:0200000280007C
:10000000E04F07204DF1090049F1090049F10900CD
:1000100049F1090049F1090049F109000000000017
:1000200000000000000000000000000049F109008D
:1000300049F109000000000049F1090049F10900F7
:1000400049F1090049F1090049F1090049F10900A4
:1000500049F1090049F1090049F1090049F1090094
:1000600049F1090049F1090000000000ADB909009B
:1000700079BA090045BB090011BC09000000000065
:100080000000000049F1090049F1090049F10900A7
:1000900049F1090049F1090049F1090049F1090054
:1000A00049F109000000000049F109008D780800BD
:1000B00049F1090049F1090049F1090049F1090034
:1000C00049F1090049F1090049F1090049F1090024
:1000D00049F1090049F1090049F1090049F1090014
:1000E0003DCA090049F1090049F1090049F1090037
:1000F00049F1090010B5054C237833B9044B13B10D
:100100000448AFF300800123237010BD200C0720AA
:100110000000000028CC0A000C4B43B10C4810B57D
:100120000C49AFF300800C48036823B910BD0A489E
:10013000036833B97047094B002BF7D0BDE8104076
:100140001847064B002BF5D0184700BF00000000F1
:1001500028CC0A00240C072028CC0A00000000004C
:1001600008B5044B9847044B9847044D044CA847E6
:10017000A047FCE755990900CDDC0800659A090005
:10018000711B090070B50B4B05469847053084B2CA
:10019000094B2846984704EB4401C900074B984790
:1001A00030B122460146064B2846BDE8704018474C
:1001B00070BD00BF4D61090071610900D95A0A0084
:1001C0009961090030B50E4B83B004464FF0991089
:1001D00098470C4B984700200B4B984701200B4B3E
:1001E00098470B4B98470B4B0546984700220090C9
:1001F0002B4620461146084CA04703B030BD00BF37
:10020000C9460800E1460800F1460800FD4608001E
:100210002D6E0800316E0800E1500800704700BFE5
:100220002DE9F04F40F2071300240B2789B0DFF8C7
:100230007CA2009306A82246E6230521D047DFF8DA
:10024000709202976F4A704906A803940194009433
:100250006E4BC847DFF85C826D4BC8F800004FF466
:1002600090709847834609206A4D6B496B4A6C4BE6
:10027000A9626A6285F82C002F269847694A0346CE
:100280005946039602920194009428460C22664E29
:10029000B0470521D8F800302862BE2201950097AA
:1002A0000846624DA8476249624AD8F80030624D5C
:1002B0000097086001920521C622C820A84703259F
:1002C0005E4BDFF8F4B15E4E18605E4A5846282156
:1002D000B047D8F80030DC228DE82008D021DFF8C4
:1002E000DCB10520D847584B5849594A08600A21C3
:1002F00018460593B047059BD8F80020E121DFF8A8
:10030000C081009305202B46C04780230093514BAA
:10031000462218600F2106A8A223D0470297039413
:100320000194009406A84C4B4C4A4D49C8474D4F88
:100330004D4B38604D4A18460A210593B047059B3E
:100340003A684B21009314202B46C047484B414A42
:100350000A211060474A18460593B047059B3A6842
:10036000192100935F202B46C047434B4349444A21
:1003700008600A2118460593B047059B3A684B214F
:1003800000935A200123C0473E4BDFF838813E4A94
:1003900028211060424618460593B0473A68059BED
:1003A00000950193142113460A204622D847374B63
:1003B000374942460860282118460593B0473A68F5
:1003C000059B00950193232113460A204622D84716
:1003D0003222CD212F4B00911860114606A8B4237C
:1003E000D0472D49039402950194009406A82B4B05
:1003F0002B4AC8472B4A2C4B1060984709B0BDE8E0
:10040000F08F00BF950D0800E0630A00210E080080
:10041000E1520A00F40C07204C670A009C670A00AE
:10042000B59B09008501080055600900F597090092
:10043000742F0720F00C0720D98D0900782F072092
:10044000316F0900EC630A00600C07208C2F072035
:10045000F4630A00702F0720E1050800C9040800B2
:10046000FC630A00902F0720480C072008640A004C
:10047000540C072010640A003C0C0720682F07204A
:1004800014640A00C40C0720842F07206C0C07207A
:100490007C2F0720942F072028640A00B515080038
:1004A0008D1408006C2F0720B15A09003D6E090019
:1004B0004DE90800882F0720980C07207183090058
:1004C000857909001C640A000B1C18BF01232DE963
:1004D000F043814687B040F205120C4618462E497B
:1004E0002E4B2F4DA847DFF8F4800120C0472D4E3A
:1004F0004FF6FF70B0472C4B6FF07F4098472B4F63
:100500000020B8472A4B98472A4D494602A8A847D9
:10051000494604A8BDF90C90A8470022BDF9165021
:100520004B46114620460095234DA8470020C04762
:100530000120B8474FF6FF70B047204E0020B0476B
:10054000322320460093072296230521A84728231B
:100550003E220521204600939623A8470120184BF0
:1005600098470020174B9847174B002098470020CA
:10057000B047164D6FF07F40154B98472046154BFE
:1005800005220F21A84720463C220F21AC46124BE2
:1005900007B0BDE8F043604758640A006C650A0084
:1005A000DD5A0900D5460800C9460800F146080092
:1005B000E146080035070900E1500800B14608008F
:1005C0000947080045470800154708001D5F080057
:1005D000BD46080084650A0090650A00FD460800D3
:1005E0002DE9F04F04460030634B8BB018BF01205B
:1005F0004FF493726149624DA847237A512B00F260
:100600009680DFE813F0A600940094009400940014
:10061000940094009400940094009400940094003A
:10062000940094009400940094009400940094002A
:100630009400940094009400E3007A0194009400E4
:10064000940094009400940094009400940094000A
:1006500094009400940094009400940094009400FA
:1006600094009400940094009400940094009400EA
:1006700094009400940094009400940094009901D4
:10068000B1019400C90194005200E2019400F2010A
:1006900094009400940094009400940094009400BA
:1006A000940094009400750297002669354B3046FB
:1006B0009847354F35498046B847002800F03E82BC
:1006C00040463349B847002840F09C82002E00F095
:1006D000D682304B98470746A0B12F2130462E4B8B
:1006E00098478146002800F010832C4DD5F8403201
:1006F000002B00F0D782D5F8D4324FF00108002B40
:1007000000F0D182264D274E00206168264A274BF3
:1007100002900391019200939622254B32211420DE
:10072000244FB84760681F21B0476068A8470BB0E6
:10073000BDE8F08F002160681F4A204B03900291B2
:100740000192009396221E4B32211A4C1420A0478E
:10075000EDE700221B49114B0868C3F88420C3F859
:100760001821C3F8AC21C3F84022C3F8D422616831
:10077000154B14309847DAE76C650A0074640A0078
:10078000DD5A09003D7109007D7109009C640A0071
:10079000C4640A0061DF0800315F0A00980D072079
:1007A0000904090081020900B8010720240207207A
:1007B000BC010720DD2E080054650A0058650A00B8
:1007C0004C650A00982F0720F917090001254FF002
:1007D000300A4FF00209DFF80CB308A89A4B98478B
:1007E000DFF804838DE8200607A99DF822000A237C
:1007F0000322C04707AA954B58462921944E984793
:100800005846944A2921B0478DE820060A2307A9B3
:100810009DF821000322C04707AA58462921B04766
:1008200058468C4A2921B0478DE8200607A90A239B
:100830009DF820000322C04707AA58462921B04747
:10084000854B61681A682D20CDF800B00195002312
:10085000824FB847804B824FDFF858B21868D847AC
:100860008DE8200607A99DF823000A230322C0472C
:1008700007AA764B3846292198473846794A2921D4
:10088000B0478DE820060A2307A99DF8240003221B
:10089000C04707AA38462921B04729213846714A5E
:1008A000B0476422BDF826306F488DE82002A0FBD7
:1008B0000310400902FB103007A90A23DFF82C922D
:1008C000CDF808A0032280B2C04707AA38462921E4
:1008D000B0476168D9F800200023019500972D20CA
:1008E0005E4DA847D9F80000D847604B616818688A
:1008F00000225F4B1430984719E75E4A236812685C
:10090000934200F099815C4A1268934200F0A28100
:100910005A4A126893427FF40AAF594B9847002114
:100920000122646803460294019100927821554A9D
:10093000554C4620A047FAE6E568002D7FF4F7AE57
:100940005248534B64689847002840F0488114216E
:10095000504A514B039402900192009308464F4B2A
:1009600096224F4CA047E2E6002640F2E2770123B0
:100970004C481A4680F8E462E56864212D0A80F844
:10098000E652E56880F8E5526468462002940196D4
:100990000097454CA047CAE6424BE26803F539711F
:1009A00083F8E722E268354D120A83F8E822E089ED
:1009B0003E4AA3F8EA0203C99047286801213C4B4C
:1009C000984728683B4B9847B1E6226980211F4B26
:1009D0002E48984700226168374B019100920A2106
:1009E000364A374C0520A047A1E62E4D354B05F57C
:1009F0003B709847284490F8EB322F2B00F0ED80A5
:100A000005F53B70174A8021114DA84722698021C6
:100A10001E48A8471D482C4B9847054600288FD0F4
:100A20002A4B9847002014216568294A294C2A4BF3
:100A3000039002940192009304950846274BD2221A
:100A4000274CA04773E600BF919D0900316F090054
:100A5000856F090094640A007C2F0720551909004E
:100A60003C0D072098640A001F85EB51982F072042
:100A7000F9170900702F0720682F0720842F0720FF
:100A8000B59B0900D4010720E9290800841007203C
:100A90000D9B090014650A0034650A0008650A0008
:100AA000DD2E0800980D07201D210800A59D0900D6
:100AB000110F0900710F0900680D072014020720AB
:100AC0002D350800795E0A00F19A0900A59B0900FE
:100AD000C4010720B4010720F4010720E401072026
:100AE000E93D08006C0D07203D720900942F072096
:100AF000894D2368D5F88420934200F0BE80D5F854
:100B00001821934200F08F80D5F8AC21934208BFA2
:100B1000022300F08980D5F84022934200F0AB8098
:100B2000D5F8D422934208BF01237FF400AE94216C
:100B3000002201FB0355C5F84022F8E5002E00F025
:100B40009380764B9847074600283FF4DBAD2F2172
:100B50003046734B98478046002800F099806E4DD0
:100B6000D5F88430002B00F09180D5F81831002B97
:100B700000F09580D5F8AC314FF00209002B7FF4DE
:100B8000C1AD64230A220093114608A8DFF8FCA136
:100B9000D047942100230F2201FB0955029208F14E
:100BA00001010395019300935E4A5F4BDFF8E081FA
:100BB00008A8C04780463246802128465B4BC5F8CE
:100BC000848098475A4D4046A8475A4E40461F21B8
:100BD000B047002F7FF4A6AD96E5574D16E72521C7
:100BE0005648574B9847574B98471421564A574BEE
:100BF00003940192009302950846554BAF22554C41
:100C0000A04794E500206168534A544B0290039139
:100C1000019200934F4D524B962232211420A84747
:100C2000444E434D7EE501239421002201FB0353F2
:100C3000C3F8842023686EE74A4B98470022616816
:100C400003460291019200926421474A474C462094
:100C5000A0476CE5002362687821019200931A4650
:100C6000434C4620A04762E5424B8F224249A847A9
:100C7000304E2F4D48E5002359E70023D4E73D4B84
:100C8000CE223E49A8472B4E294D3DE5994678E7AF
:100C90003B4B9B223849A847264E254D34E54FF063
:100CA00001096EE7984664230A220093114608A8BA
:100CB000DFF8D8A0D0479421002340F28F1201FB27
:100CC00008F808F5DE7AAA4409F1010102920193BD
:100CD00000932C4A2C4BDFF8B89008A8CDF80CA054
:100CE000C8478146A84432468021104B5046C8F878
:100CF000409298470E4D4846A8470E4E48461F2141
:100D0000B047002F7FF40EADFEE41D4BDA221B49E5
:100D1000A847084E064DF7E4980D072061DF08004C
:100D2000315F0A003D160800ED170800316F090019
:100D30000904090081020900856F0900E0640A00C6
:100D4000759B0900A59B090014650A0018650A0037
:100D500008650A00DD2E0800B8010720C8640A00F3
:100D6000BC010720B59B0900C8010720E92908003C
:100D7000493A0800A0640A0034640A0044640A0086
:100D8000B0640A00650F0800A51308003D6E090055
:100D90004DE908000B1C18BF012370B5054686B04D
:100DA00050220E4618461449144B154CA0470120FA
:100DB000144B98474FF6FF70134B98476FF07F40E6
:100DC000124B98470020124B9847124B9847124CF1
:100DD000294602A8A047294604A8BDF90C50A047FF
:100DE0000022BDF916402B460094304611460B4CAC
:100DF000A04706B070BD00BF98650A006C650A0088
:100E0000DD5A0900FD460800D5460800C94608001D
:100E1000F1460800E146080035070900E1500800E6
:100E200070B504460030404B82B018BF01206422E8
:100E30003E493F4DA847237A1A3B162B1DD8DFE8C1
:100E400003F02B1C1C1C1C381C1C1C1C1C1C1C44D4
:100E50001C1E5D0C251C1C1C6300364B206898472B
:100E6000E168354B984701200023344A61681268D5
:100E7000334C019000933A20A04702B070BDE18945
:100E8000304C01B1012120682F4B984720682F4B2F
:100E900002B0BDE8704018470020284B2C4A61681A
:100EA0001B681268264C019000905120A04702B0A8
:100EB00070BD00210120214AE3681268204C019096
:100EC00000913920A04702B070BD224E2068194B16
:100ED0009847214D3246E1686423A84701231F4DFE
:100EE00061682A682D20019300960023144CA047C6
:100EF0002868164B02B0BDE8704018470D4B2068BB
:100F00009847E168164BADE7002101200D4DE368DD
:100F10002A680B4C019000913020A04728680B4BA9
:100F200002B0BDE8704018476C650A00B8650A0059
:100F3000DD5A09006D17090001680900742F0720A8
:100F400055190900782F0720110F0900710F0900AA
:100F50006C2F0720081107202D6C09008C2F07200B
:100F6000BD9B09000B1C18BF01232DE9F04F04465F
:100F7000A1B018460F46B94B5D22B949B94DA847F3
:100F80002046B94B9847002800F098810646B74B99
:100F900001209847B648B74B98470020B64B984772
:100FA000B64B9847B64D21460CA8A8470EA8214637
:100FB000BDF934B0A8473046B24BBDF93E809847E2
:100FC000B0B90025B04F01953A6821462B46512013
:100FD0000095AE4EB0472046AD4B98473A682B4639
:100FE0000195009521465020B04721B0BDE8F08F13
:100FF000A84B9847352802D8A74B9847E1E70BA89C
:101000000221DFF8B4A2D0479DF82C30422BF3D157
:101010009DF82D304D2BEFD1A04B0A20984704218D
:101020000BA8D0479DF82C30042103939DF82D3058
:101030000BA804939DF82E309DF82F900593D04770
:101040009DF82E309DF82D201B049DF82C1003EBED
:1010500002239DF82F200B4403EB0263282BCBD1F6
:1010600004210BA8D0479DF82D209DF82C30042199
:1010700003EB0223A6F888300BA8D0479DF82D205B
:101080009DF82C3003EB02231BB29845A6F88A305A
:1010900000F32B81FF2296F88D10A3EB080303FBCE
:1010A00001F393FBF2F30693B6F98820934500F31E
:1010B0001A81FF2196F88C00A2EB0B0303FB00F3CF
:1010C00093FBF1F304210BA808920793D0479DF8F6
:1010D0002E109DF82DE09DF82C00090401EB0E2147
:1010E0009DF82FE001446E4801EB0E618142079BA1
:1010F000089A81D1B6F98AC0BCF1000F75DDB8F14C
:10110000000F72D005984FEA096101EB0041039886
:101110001BB201440498013201EB002103EB4303AD
:10112000BDF918E0CB1802EB4202099322F0030349
:1011300007936FEA0E0308930023CDF814806046EE
:1011400098460396CDF810B00694089B099A184467
:10115000079BA0EB080003FB0020504B9847039B24
:10116000B3F98890049B9945A8BF9946B9F1000F3F
:10117000C8BF002626DD06F1100BCB45C0F2A580C6
:10118000A9EB060424B23444A64217DA03210BA8C3
:10119000D0479DF82E309DF82D209DF82C001B0483
:1011A00043EA022318433F4B9847314601364246F3
:1011B00038463D4B36B29847A642E7DB0FFA8BF62E
:1011C000B145D8DC039B08F10108B3F98A000FFA96
:1011D00088F8404540F38C80059B4345B5D1039E7C
:1011E000DDF810B0DDF81480069C214610A8B6F991
:1011F0008890A847BDF944304B4500F3B78021469D
:1012000014A8B6F98A90A847BDF956304B4500F3AB
:101210009A80214618A8B6F98A90A847BDF9663089
:101220004B456CDCB6F98810D6F884005945D4BF1C
:10123000002101211D4B9847B6F98A10D6F8840089
:101240004145D4BF00210121194B9847D6F88400AD
:101250001821184B9847104B9847C6E66C650A0052
:10126000DC650A00DD5A090085080900FD46080012
:1012700066666600C9460800F1460800E1460800B7
:1012800035070900F19A0900902F07205519090028
:10129000C9110900299B0900A59B0900919B090020
:1012A00001001800B146080005480800A9FF080021
:1012B0001501090081020900599B0900344B632282
:1012C0003449A84721B0BDE8F08F30213248D047DB
:1012D0000123314A00930192314610234246384699
:1012E0002E4CA0476AE70023ECE600230693DBE6DA
:1012F0001E46DDF810B0DDF81480069C75E7214627
:101300001AA8B6F98A90A847BDF96E304B4589DD19
:1013100021461CA8A84721461EA8B6F98890BDF80A
:1013200074A0A847B6F98A20BDF87E40AAEB090A46
:10133000A41A0FFA8AFA24B2009453464946384652
:10134000174CA0476EE7214616A8B6F98890A84723
:10135000B6F98A20BDF85E104B46891A09B2009191
:1013600038460021DFF83890C84752E7214612A8D6
:10137000A847B6F98810BDF84C30B6F98A205B1A38
:1013800000921BB200223846DFF81490C84736E7B7
:1013900030660A00DC650A006C110720BD6A08008F
:1013A000E150080030B50446003018BF012083B07A
:1013B000204B4FF493722049204DA8476068204B82
:1013C000984700282DD0237A0C2B11D8DFE803F0A2
:1013D0001707101010101010101E231223000023E6
:1013E000184A61681268502001930093164CA04778
:1013F00003B030BDE36880F88C3003B030BD00230B
:1014000080F88C3080F88D3003B030BDE36880F810
:101410008D3003B030BD60680C4B03B0BDE8304088
:1014200018474FF49672AC46094B034903B0BDE828
:101430003040604718660A00F8650A00DD5A090066
:1014400085080900902F0720551909000904090093
:1014500030660A0070B50A4D1646AA88094B02EBA1
:1014600082025400984724B20346224630460221A5
:10147000054CA0470120AB880344AB8070BD00BF82
:101480009C110720996B09001D5F08000B1C18BFF9
:101490000123F0B5054687B0652218460E46304B4D
:1014A0003049314CA0470120304B98474FF6FF7030
:1014B0002F4B98476FF07F402E4B984700202E4BC4
:1014C00098472E4B98472E4C294602A8A0472946FC
:1014D00004A8BDF90C70A0470022BDF91650294C94
:1014E000304600953B461146274DA847206808B96D
:1014F00007B0F0BD254B984705460028F8D00020DE
:10150000234B98470020234B98470020224B9847B5
:101510000020224B98470022214B296A2846A280AE
:101520009847C30708D4296A284600961D4B012214
:101530001D4CA04707B0F0BDA388296A03EB8303C5
:101540005F002846194B98473FB203463A460221AE
:101550003046174FB847A3880133A380E3E700BFA5
:101560006C650A0054660A00DD5A0900FD46080051
:10157000D5460800C9460800F1460800E1460800C3
:10158000350709009C110720E15008006D1709007C
:10159000B1460800094708004547080015470800FC
:1015A000916A09005514080079630900996B0900D4
:1015B0001D5F080070B504460030174B18BF0120AE
:1015C00093221649164DA847237A192B1BD0512B6D
:1015D00004D003B170BD134A136070BD114AE568B1
:1015E00001216068104B1560984760680F4B984761
:1015F0000F4B627A186861680E4B64309847BDE8FB
:1016000070400D4B18476068074B00219847BDE8B4
:101610007040094B184700BF6C650A0074660A00E9
:10162000DD5A09009C11072005F0080059E0080068
:10163000982F0720F9170900B15A09000B1C18BF91
:1016400001232DE9F04F044693B018460891514B01
:101650008D225149514DA8472046514B98470028AB
:1016600000F08F8080464F4B012098476FF07F40FD
:101670004D4B984700204D4B98474D4B98474D4D4B
:1016800021460AA8A84721460CA8BDF92C60A84706
:101690000022BDF93600114633460090464E0898A8
:1016A000B047FF20454B98470020454B9847454B96
:1016B0000020984721460EA8A847BDF93C3010A845
:1016C00021460593A847BDF9462040463E4B099266
:1016D000984710B913B0BDE8F08F3C4B98470446CB
:1016E00007903B4B00209847002C45D00026394FEF
:1016F0000696344602E0079BB3423DD0364B9847EE
:10170000B8F88C30A4B2E31A1FFA83FA8146B847BE
:101710000546B8F98E300FFA8AFB0493BDF81830ED
:1017200001360393B84705990AEB0503594511DDC6
:10173000039A0499551AADB219042AB20AD4099B26
:101740000544934206DD2B0404D459464B460898C1
:10175000224DA847B84701300444B9F10A0F24B21A
:10176000C9D11F4B9847039B013003441BB206931A
:10177000079B0024B342C1D11A4B13B0BDE8F04F10
:1017800018479322AC46184B034913B0BDE8F04FFD
:10179000604700BF6C650A0098660A00DD5A0900C0
:1017A00085080900FD460800C9460800F146080002
:1017B000E146080035070900E1500800B14608007D
:1017C0000947080015470800F19A0900299B0900FC
:1017D000919B090051470800359B0900B955080045
:1017E000A9470800A59B090030660A002DE9F043CF
:1017F0000546003018BF01208FB0A34BDD22A3495E
:10180000A34EB0476868A34B9847002800F00B81AF
:101810002B7A0446172B15D8DFE803F07CAF14149D
:101820000C14141414141414141414141414141480
:10183000A6141417984B9847002840F0C580002341
:10184000C4F88C300FB0BDE8F083944B002098476B
:10185000934F696802A8DFF86C82B847BDF90C9015
:10186000B4F98860C04700FB0666B14580F29180FC
:10187000B4F89030B4F88C10EA890B449B1A1BB270
:10188000002BA4F89020C0F2F4801E46A4F88C30FF
:10189000B4F98890C04700FB0999696804A8B84763
:1018A000BDF91430A9EB0309B145C0F2C4806968E1
:1018B00008A8DFF81482B847BDF92690B4F98A6009
:1018C000C04700FB0666B1451EDAB4F89230B4F8A2
:1018D0008E10EA680B449B1A1BB2002BA4F89220CE
:1018E000C0F2CC801E46A4F88E30B4F98A90C0476E
:1018F00000FB099969680AA8B847BDF92E30A9EB21
:1019000003094E4500F3A6806868664B0FB0BDE83A
:10191000F0431847604B9847002893D0624B984794
:10192000624B8046002098474FF48033C4F88830DB
:10193000B8F1000F43D000265D4F354604E0013575
:101940002DB20136B04534D0B8470A28F7D1B4F9E2
:101950008830AB42B4F88A30B8BFA4F8885001335D
:101960000025A4F88A30ECE7EB89A0F89030EB680A
:10197000A0F892300FB0BDE8F08300234D4A6968AB
:1019800012685020019300934B4CA0470FB0BDE864
:10199000F083696808A8DFF83081B847BDF9269060
:1019A000B4F98A60C04700FB0666B145BFF64AAF8E
:1019B0008BE7B4F98830AB42B8BFA4F888503F4BEE
:1019C0000FB0BDE8F0431847374B9847374B804678
:1019D000002098474FF48033C4F88830B8F1000FE6
:1019E0001ED00026324F354604E001352DB20136B7
:1019F000B0450FD0B8470A28F7D1B4F98830AB42C8
:101A0000B4F88A30B8BFA4F8885001330025A4F890
:101A10008A30ECE7B4F98830AB42B8BFA4F88850FC
:101A2000264B98470BE7E322B446254B17490FB0E6
:101A3000BDE8F0436047B4F88860C04700FB066625
:101A4000696806A8B847BDF81C30B6B2F61AA4F803
:101A50008C602CE7B4F88A60C04700FB06666968B2
:101A60000CA8B847BDF83630B6B2F61AA4F88E60A6
:101A70004AE700231E46A4F88C3009E700231E46DF
:101A8000A4F88E3031E700BF18660A00B4660A0079
:101A9000DD5A090085080900F19A09001547080078
:101AA0003507090009040900299B0900919B0900D9
:101AB000359B0900902F072055190900A59B0900A7
:101AC00030660A0051470800A94708002DE9F04197
:101AD0000B694C690F68CD68FF1A2D1B05FB07F5D4
:101AE0004E688F68341BFB1A04FB13549461002C5E
:101AF0007BD003464F6900691E68CC68361AE41B28
:101B000004FB06F44D689E68ED1B301A05FB10407F
:101B100010600F6918699C680E68241AF61B04FB94
:101B200006F48D681E68ED1B301A05FB10405060EE
:101B30001D69D1F800C098680CFB05FE1E680F698E
:101B40008C6800FB07F806FB17EECF6805FB1485D1
:101B500007FB0EF706FB04F44E680CFB104406FB73
:101B600005754E694FF0000C06FB045494605C69E7
:101B70005F684E69CD683F1BAD1B05FB07F5D86854
:101B80004F68041BBE1B06FB1454D4600E695C69CD
:101B9000DD680F682D1BBF1B05FB07F558688F68B4
:101BA000041BBE1B06FB145414615D69D1F800E0F0
:101BB0000E690EFB05F7DC685B6804FB06F803FBA7
:101BC00016778E68C86803FB06F305FB168500FBD5
:101BD00007F60EFB14344B6803FB05654B6903FBEA
:101BE000045454616046BDE8F0814FF0FF3CF9E7D2
:101BF000F0B49569F5B156684C68136804FB06F4B7
:101C00000F68966807FB0343334493FBF5F30360C7
:101C100014694B680D6803FB04F1D368546905FB34
:101C200003139269234493FBF2F3002243601046AE
:101C3000F0BC70474FF0FF32F9E700BF0B1C18BF34
:101C400001232DE9F047064696B0D92218460C46E6
:101C50004C4B4D494D4DA84701204D4B98476FF0D7
:101C60007F404C4B984700204B4B98474B4B984735
:101C70004B4D314606A8A847314608A8BDF91C605F
:101C8000A8470022BDF9265011463346204600954C
:101C9000444DA8470020444B98470020434B9847A9
:101CA0000020434B98474FF0300A042201230026BE
:101CB000404DDFF81C91B5F8800004A90192009313
:101CC00005220A23CDF808A0C847DFF808813A4A60
:101CD00010210AA8C047394F04AA10210AA8B84702
:101CE00095F882000A2304A90522CDF808A00196E0
:101CF0000096C847324A10210EA8C04704AA1021F6
:101D00000EA8B84795F883000A2304A90522CDF848
:101D100008A001960096C8472A4A102112A8C04779
:101D200004AA12A81021B84795F88400A0B9264B40
:101D30009847264D12AB204614221221A8470EAB1D
:101D400020463C220C21A8470AAB204664221221DF
:101D5000A84716B0BDE8F08705201B4B98471B4DE0
:101D600012AB204625226521A8470EAB20467822DB
:101D70005B21A8470AAB2046C8226521A84716B0B8
:101D8000BDE8F08718660A0074690A00DD5A090088
:101D9000FD460800C9460800F1460800E146080073
:101DA00035070900E1500800B1460800094708005E
:101DB00045470800A4110720FC690A00856F090047
:101DC000046A0A000C6A0A00154708001D5F080033
:101DD0003D720900316F09002DE9F041564C574E14
:101DE00094F8823094F88310022BF25C3DD091423B
:101DF00063D80121A069524DA8470121E069A84795
:101E000094F88330012B7ED094F88220B4F88000BF
:101E1000022AB15C54D08B4279D001212069A847B5
:101E200001216069A84794F88230012B67D00C2B00
:101E300071D00121A068A8470121E068A847B4F843
:101E40008010002954D0632955D03E4D2069A84701
:101E50006069A847A068A847E068A847A069A847A4
:101E6000E0692B46BDE8F0411847B4F88030980788
:101E7000BDD14FF0640E3448571CA0FB03504509F8
:101E80000EFB1535ADB25FFA87FE45B94FF4C87544
:101E9000C00905FB103080B2002818BF9646714576
:101EA000A7D964252849FFB2A1FB0301480905FB16
:101EB000103080B2002834D03A4684F8832098E766
:101EC0008207A8D14FF0640E1F4A4E1CA2FB00727D
:101ED00057090EFB1707BFB2F6B207BB4FF4C8771E
:101EE000D20907FB120080B2002808BF314692E7F2
:101EF000E068A847A9E70021A068A847A5E7002156
:101F00006069A84795E70021E069A84785E70021B7
:101F1000A069A84781E700212069A84789E73146E1
:101F200079E74FF4C870C90900FB11339BB2002B4D
:101F300008BF3A46C1E700BFA4110720C4690A00E0
:101F4000110F0900710F09001F85EB5170B5044690
:101F50000030644B18BF012082B040F20D1262497C
:101F6000624EB047237A1A2B3DD0232B39D1604DD6
:101F70002368AA6893425CD0EA6893424BD02A69EE
:101F8000934272D06A69934277D0AA6993427CD017
:101F9000EA69934261D0574B4FF4A0725249002036
:101FA000B047554B984795F88430D5F88C00002BF6
:101FB00039D05249524B02B0BDE870401847002159
:101FC00095F88230B5F8804095F883001B0243EA0B
:101FD00004430343D5F88820019100913F20494CE8
:101FE000A04702B070BD424D474BD5F88C009847D2
:101FF000464B984723682A689342E0D06A68934228
:1020000021D04FF4B8720020B4463A4B364902B0A2
:10201000BDE870406047B5F88030002BC1D0013B6F
:10202000A5F88030BDE73A49354B02B0BDE87040B5
:10203000184742F20E72B5F880309342B1D801339E
:10204000A5F88030ADE70023D5F8882001930093F0
:10205000194640202B4CA047C3E795F88330012B4D
:102060009FD9013B85F883309BE795F882300B2B95
:1020700097D8013385F8823093E795F88230012BA9
:102080008FD9013B85F882308BE795F88220214972
:10209000022A95F88330895CB5F8800006D08B421F
:1020A000BFF47FAF013385F883307AE78207F6D13A
:1020B0006426194A4C1CA2FB00E2520906FB1202DC
:1020C00092B2E4B262B94FF4C876134AA2FB00E2BE
:1020D000D20906FB120292B2002A08BF2146DEE7AF
:1020E0002146DCE718660A009C690A00DD5A0900EF
:1020F000A4110720E8690A00D91D0800146A0A0023
:102100009105090055190900C9110900B15A0900C2
:102110001C6A0A00C4690A001F85EB512DE9F041D1
:10212000864C86B0022BE45CBDF830509DF83460DC
:1021300000F0DD80A24200F2D68042F20F74A54288
:1021400000F2D1805C1E0B2C00F2CD80002A00F042
:10215000CA807B4CA4F8805084F8823084F88320B5
:10216000002E40F0E58076234FF0AA0E1D46754AFA
:10217000ADF814508846C5180746ADF816E09047EC
:10218000854200F3B080002FC0F2AD806E4BBDF9E8
:10219000165098474544854200F3A580B8F1000FDA
:1021A000C0F2A180694B98470546002840F09B800B
:1021B0000E98674B9847002800F095800E9B84F896
:1021C0008460C4F88830ADF81070ADF81280002E2D
:1021D00000F0D88048F24B030395029301950095D7
:1021E0005C4B5D4A5D4904A85D4EB047C4F88C0065
:1021F000002878D05B4E5C4F06F10C085B4A3046F5
:102200000A21B8475A4A0A214046B847B4270096DF
:102210000B23D4F88C20FA212587A4F85050A4F879
:102220006850A4F84470534DA4F85C70A4F874701E
:102230000520A847CDF800800B232060D4F88C201F
:10224000FA217820A84706F14803606000934A4DC0
:102250000923D4F88C200A21BA20A84706F1540398
:10226000A0610093D4F88C2009233221BA20A8471A
:1022700006F13007E06100970923D4F88C205A2139
:10228000BA20A84706F13C0320610093D4F88C20C3
:1022900009238221BA20A847009709236061D4F856
:1022A0008C20AA21BA20A8472436A06000960923D2
:1022B000D4F88C20D221BA20A847E060236873B1FB
:1022C000636863B1A36853B148B123693BB16369E3
:1022D0002BB1A3691BB1E369002B40F0C980D4F88E
:1022E0008C00264B9847002006B0BDE8F081AF0770
:1022F0007FF420AF4FF06408214F04F1010EA7FBDB
:1023000005C74FEA571C08FB1C5C1FFA8CFC5FFAE0
:102310008EFEBCF1000F09D14FF4C87CFF090CFB05
:102320001757BFB2002F08BF744603E7744601E792
:10233000E22340F2311E1D4619E700BFC4690A00BE
:10234000A41107202D6E0800316E0800FDFE080064
:10235000D9DF08004D1F08003D1C0800DC690A0099
:102360004DE90800C4110720316F090054650A00C7
:10237000D4690A008579090079760900C911090034
:102380001F85EB514B230396029301960096414B18
:10239000414A424904A8424DA847C4F88C0000288D
:1023A000A1D0404D404F05F10C08404A28460A2173
:1023B000B8473F4A0A214046B847B427009503234F
:1023C000D4F88C2082212687A4F85060A4F8686095
:1023D0000520384EA4F84470A4F85C70A4F874701A
:1023E000B047CDF8008003232060D4F88C208221F0
:1023F0003C20B04705F14803606000932E4E012356
:10240000D4F88C2005215D20B04705F15403A0616C
:102410000093D4F88C20012319215D20B04705F1E9
:102420003003E0610093D4F88C2001232D215D203E
:10243000B04705F13C0320610093D4F88C200123C0
:1024400041215D20B04705F1180360610093D4F885
:102450008C20012355215D20B0472435A0600095D4
:102460000123D4F88C2069215D20B047E06025E786
:10247000124B9847124D01210E98A8471F21D4F8FE
:102480008C00A847D4F88C000E4B9847D4F88C00E9
:102490002AE700BF4D1F08003D1C0800DC690A0048
:1024A0004DE90800C4110720316F090054650A0086
:1024B000D4690A008579090079760900D91D0800D8
:1024C000810209000904090070B5194C82B094F822
:1024D000273002464BB31749174B04F128050191E9
:1024E000009329461023154E04F1A800B047012699
:1024F000034684F82D01A2688DE860000021332096
:102500000F4DA84700210F4DE068A84794F825100B
:1025100001B131466069A8470B4DE068A8472B46DA
:10252000606902B0BDE8704018470849084BD4E71D
:10253000041307209C670A004C670A00699C090085
:1025400055190900110F0900710F0900BC670A0035
:102550006C670A000B1C18BF012370B5054686B0D6
:10256000B8220E4618461249124B134CA0470120C0
:10257000124B98476FF07F40114B98470020114B4A
:102580009847114B9847114C294602A8A047294665
:1025900004A8BDF90C50A0470022BDF916402B46F7
:1025A0000094304611460A4CA04706B070BD00BFEB
:1025B000246A0A0018660A00DD5A0900FD46080070
:1025C000C9460800F1460800E14608003507090041
:1025D000E15008002DE9F04105460030974B82B0EC
:1025E00018BF0120CF229649964CA0472B7A232B67
:1025F0003CD8DFE803F05F3B3B3B3B3B3B3B3B3B9B
:102600003B3B3B3B3B3B3B3B3B3B3B3B3B3B3B3B1A
:10261000123B3B7CAD3B3B3B3B3E8B4C8B4B206AA8
:1026200098478B4B98472A6863689A4200F08281EA
:1026300094F82630002B40F0F68094F8253004F111
:10264000A805002B40F0E980824ED4F8303194F890
:102650003621802153F832207F48B0470023E269B9
:1026600019460095019341207C4CA04702B0BDE87B
:10267000F081EB68002B7ED1734C94F82430002B52
:10268000F4D0013BD9B284F82410002900F04B812A
:10269000734D744E20690121A8472069B04701207D
:1026A000002194F82430A2686C4D019000913120F3
:1026B000A84799E06C4B684898470023624C1D4638
:1026C00006E091F8A82001332F2A04BF0135EDB2AE
:1026D0009AB2824204EB0201F3D394F82600634BD2
:1026E000013D84F8255002B0BDE8F0411847564C32
:1026F0002E7BD4F83021F7003A4453685C498B4272
:1027000000F0C8805B498B4200F0FF805A4A934238
:1027100000F00481594A9342A8D194F82730002B45
:10272000A4D101214E4B206898474E4F2068B847EE
:102730000122D4F830316968019253F83630A26929
:102740002D200093454D0023A847A0693B460EE08D
:10275000E9893D4CA1F10101B1FA81F12069404BB9
:1027600049099847EA6820693E4BA4F8AA2102B0BB
:10277000BDE8F0411847B42B39D0B3F5877F7FF41B
:1027800075AF314C2F2104F1A806DFF804813046E3
:10279000C047002703462F211F703046C047324BE9
:1027A000077030469847364B304A1B88335294F8AE
:1027B000253094F82600013B84F8253084F82470F5
:1027C000904794F82630002B40F0D980254E002108
:1027D000234B206898472068B0472A4A28212A4876
:1027E0002A4B9847A069B047A0683346BFE7164C0C
:1027F00094F82430B4F8AA219342BFF437AF0133E0
:10280000DBB29A4284F8243000F0CB80144D154E90
:10281000E0680121A847E06840E72846184A80217F
:102820000C4EB04711E70023E269A83400940193ED
:1028300019464220094CA04718E700BF18660A0055
:102840004C6A0A00DD5A090004130720C911090067
:10285000B15A0900856F0900AC130720551909000A
:10286000110F0900710F0900795E0A00C9240800E0
:102870009C670A00BC670A004C670A006C670A0084
:1028800098640A009C6A0A0084140720316F0900CA
:10289000315F0A0094F8271059B946498B4208D095
:1028A000454A93427FF436AF444B9A427FF4DEAE02
:1028B00037E794F82680B8F1000F4ED0404E414FD4
:1028C00012688021DFF81C813846C0473E4A8021CB
:1028D0003846C04794F8253094F8260001333B4A27
:1028E00084F82530904794F82630002B2BD0012314
:1028F0006968A2692D20019300970023344DA847F1
:10290000A068B047A069334631E794F82710002942
:10291000CFD0294A93427FF4A9AE02E794F827303A
:10292000002BC1D0FDE6E0682A4DA847244EE068A0
:10293000B047AFE60023E2691946019300934320B4
:10294000234CA04792E6012723486968A269204DDD
:102950008DE881002D20A847D2E71F4A28211F4B70
:102960001F489847164EA069B04741462068194B4A
:1029700098472068B047D4F830213A449FE70120B7
:102980006968A2693B4600960190114D2D20A84729
:102990000B4EA069B04794F82630002B7FF424AF8B
:1029A00015E7206900210B4DA847054E2069B04767
:1029B0002EE700BFBC670A004C670A006C670A007C
:1029C000710F0900AC13072098640A00C92408009D
:1029D00055190900110F09009C6A0A00316F09009E
:1029E00084140720856F09002DE9F04F87B09DF80A
:1029F00040509DF844801746002A00F0DE80814652
:102A00008A461E46B8F1000F44D1992387211A4601
:102A1000974809EB0304ADF81610ADF81420804771
:102A2000844233DCB9F1000F30DB924BBDF9164024
:102A300098475444844229DCBAF1000F26DB1298EF
:102A40008D4B984710B3B8F1000F48F24B034FF08D
:102A5000000B08BF4B23894C3946129F0293CDF8D7
:102A60000CB0CDF804B0CDF800B0854B854A04A871
:102A7000DFF83CC284F82780E76184F82650ADF87F
:102A80001090ADF812A0E047206238B9002007B0DE
:102A9000BDE8F08FDC23E8211A46B9E7B4214FF4F2
:102AA00087774FF6FF734FF0050E04F5B47A764A38
:102AB000A4F85011A4F85C710A21744F5046A4F890
:102AC000343184F82CE1A4F844B184F82DB1C4F871
:102AD00030B1B84704F5BA706D4A0A21B84794F886
:102AE0002630002B00F0BD806A4B984704F5C07972
:102AF000024628214846B847226AB8F1000F65D03F
:102B0000DFF8B081DFF8B0B1CDF8008009230521EE
:102B1000B620D84708F10C03226AE06070210093C8
:102B2000B6200923D84708F11803226A20613A2108
:102B30000093B6200923D8474FF00B0B0521A8F1CD
:102B40001802236A6061DFF8748101920846AA22A4
:102B5000CDF800B0C047226AA060DFF864815B4610
:102B6000AF21CDF800A00520C0474B4B226A206062
:102B7000AF21009370205B46C047236A6060D1227A
:102B8000CDF800B0CDF8049096210520DFF834810F
:102B9000C047A061E36863B1236953B1636943B17E
:102BA000A36833B1236823B1636813B1002840F0F0
:102BB0008B80206A394B984768E73846384B40F29B
:102BC000DF123849384CA047384660E7DFF8E48028
:102BD000DFF8E4B0CDF80080012305218220D8473A
:102BE00008F10C03226AE0603B210093822001235C
:102BF000D84708F11803226A20611F210093822020
:102C00000123D8474FF0030B0521A8F11802236ACE
:102C10006061DFF8A880019208467822CDF800B004
:102C2000C047226AA060DFF8988001236121CDF8B7
:102C300000A00520C047184B226A20606121009344
:102C40005F205B46C047236A60608E22CDF800B0EB
:102C5000CDF8049050210520DFF86880C047A061BE
:102C600098E704F5C0794846104A2821B84743E759
:102C70002D6E0800316E0800D9DF0800041307200C
:102C8000D52508005525080054650A00316F090054
:102C9000D4690A00B59B090078140720C9110900FE
:102CA00018660A00746A0A00DD5A09009C6A0A0064
:102CB0004DE908004814072079760900618A090067
:102CC00085790900718309004FF0000832468021A0
:102CD000354884F82480B847344B354A03F10D0059
:102CE00003F11A0103F1270703F134062063A163FE
:102CF00003F1410003F14E012764A66403F15B0771
:102D000003F168062065A16503F1750003F18201F6
:102D1000A3622766A66603F18F0703F19C0620676E
:102D2000A16703F1A90003F1B601C333C4F82C80F5
:102D3000C4F83480C4F83C80C4F84480C4F84C80A3
:102D4000C4F85480C4F85C80C4F86480C4F86C8013
:102D5000C4F87480C4F87C80C4F88480C4F88C8083
:102D6000C4F89480C4F89C80C4F8A480C4F880702F
:102D7000C4F88860C4F89000C4F89810C4F8A03073
:102D8000C4F830211DB1012120680A4B9847012168
:102D90001298094DA8471F21206AA847206A074BAF
:102DA0009847206A73E600BFAC130720341207204F
:102DB0002C130720110F09008102090009040900E2
:102DC0000B1C18BF012370B5064686B05522184665
:102DD0000C461D4B1D491E4DA84701201D4B984711
:102DE0006FF07F401C4B984700201C4B98471C4BB2
:102DF00098471C4D314602A8A847314604A8BDF9A2
:102E00000C60A8470022BDF91650114633462046F3
:102E10000095154DA8470020144B9847144D0020ED
:102E2000144B98470020144B9847287F00B1052089
:102E3000124B98472046124C0A220C21A446EB68FC
:102E400006B0BDE87040604718660A00A46A0A0030
:102E5000DD5A0900FD460800C9460800F146080091
:102E6000E146080035070900E1500800B1460800B6
:102E7000B014072009470800454708001547080017
:102E80001D5F080030B5044600300D4B18BF01200F
:102E900083B079220B490C4DA847237A1A2B0DD108
:102EA0000A4C0B4BA06898470A4B9847002362686E
:102EB0001946019300933B20074CA04703B030BD57
:102EC00018660A00C86A0A00DD5A0900B014072013
:102ED000C9110900B15A0900551909002DE9F04737
:102EE00088B09DF848707BB31D46109B63B3119B5F
:102EF00053B380468946144607BB332A19DD4B235A
:102F0000ADF81630594B984708EB0406864210DCA2
:102F1000B8F1000F0DDB564BBDF9166098474E44D3
:102F2000864206DCB9F1000F03DB524B9847064698
:102F3000A8B10024204608B0BDE8F087652AF8DD76
:102F40005F23ADF81630DDE74B4BA7224B4900203D
:102F50004B4CA0470024204608B0BDE8F0871398EA
:102F6000484B98470028E4D0DFF840A1109BADF80B
:102F70001080CAF80C30139BADF81290ADF81440D5
:102F80008AF81C70CAF80430002F3DD048F24B0379
:102F9000039602930196009629463B4B3B4A04A8B0
:102FA0003B4CA047CAF808000028C2D00146394B64
:102FB00006A898470AF11005BDF91C40119A0A218C
:102FC000354B28469847A4F1640000EBD070334C91
:102FD000DAF8082040F34F0000950B232321A04787
:102FE0000446CAF80000002C3BD02D4C0121139858
:102FF000A0471F21DAF80800A047DAF80800294B9B
:103000009847DAF8084095E74B2303970293019716
:10301000009729461C4B1D4A04A81D4CA047CAF81E
:103020000800002885D001461A4B06A898470AF1E7
:103030001005BDF91C40119A0A21174B28469847E4
:10304000A4F1320000EBD070144CDAF8082040F301
:103050004F00009503231E21A0470446CAF8000034
:10306000C1E7DAF80800104B984763E72D6E0800B7
:10307000316E0800FDFE080018660A00F06A0A00BA
:10308000DD5A0900D9DF0800852E0800C12D08008F
:103090004DE9080035070900316F090085790900FD
:1030A0008102090009040900C9110900B0140720B0
:1030B0002DE9F041054600308F4B82B018BF01204A
:1030C000C8228E498E4CA0472B7A242B3CD8DFE8AF
:1030D00003F0133B3B3B3B3B3B3B3B3B3B3B3B3BEB
:1030E0003B3B3B3B3B3BA23B3B3B3B758B3B3B3B3F
:1030F0003B3B3B3B3B3B3E00824B834C1868696843
:103100000022824B0A309847814B04F158009847BF
:1031100094F86E3005B2A4F87050002B00F0AA802D
:1031200016260A237B4904F1140203C982E803002E
:103130006684A4F8723006200121A28AE08302325C
:1031400005FB03232184A38302B0BDE8F0816E4C0C
:103150006F4B04F158009847E96803B2082900F062
:103160009D80132B15DCB4F97020934278D002F1C6
:10317000580102F1590021449A1A2044664B98479D
:10318000B4F97030E968E218013382F85810A4F8F5
:10319000703094F858106068003118BF01215F4BFF
:1031A00098475F4B60689847A28AB4F87030B4F8CB
:1031B0007210023201FB0323A3834AE0524B594CA5
:1031C00093F86D2003F11C0182F0010283F86D2059
:1031D0006868A04700224B4B696818684B4B0A305F
:1031E00002B0BDE8F0411847474C4F4B2069984763
:1031F0004E4B98472A68A3689A424FF00003E26852
:103200005ED058340094019319464420484CA0479E
:1032100002B0BDE8F0813C4CB5F90E60B4F9148001
:10322000B4F97270A6EB080696FBF7F604F15800A5
:1032300036B2374BA4F87060984700B28642C8BFD8
:10324000064608F1020806FB0786C8BFA4F870000E
:10325000A68368683749334B02B0BDE8F041184790
:1032600000222344013083F85810A4F8700083F83A
:1032700059208EE70D2218462F4B628498472F4B1A
:1032800098472F49431C04F114029BB203C9B4F9B7
:10329000705082E80300A4F872304CE7002B7FF7EF
:1032A00078AFB4F97060002E7FF773AFB3420ED1E0
:1032B000002223440138A4F8700083F8572068E7FF
:1032C0000193009319464520194CA0473CE7C6F1ED
:1032D000010206F1580106F157001A4421440E4B31
:1032E00020449847B4F97030002B7FF752AF013B70
:1032F000A4F870304DE700BF18660A00386B0A006A
:10330000DD5A0900982F0720D0140720F91709006B
:10331000795E0A008C6B0A005D590A00110F0900E2
:10332000710F090091050900C9110900B15A09007E
:1033300055190900E41407201547080051470800F3
:10334000846B0A000B1C18BF01232DE9F04F0024E9
:1033500081460F4689B070225F4918465F4D604B29
:10336000ADF80C40A8475F4B01209847DFF8AC81CF
:103370006FF07F40C0475C4D2046A8475B4B9847A5
:103380005B4E494604A8B047494606A8BDF91490CB
:10339000B047BDF91E60224621464B46384600968E
:1033A000544EB0470120A847534B4FF6FF70534D82
:1033B0009847DFF86CB12046D8475148C047B5F967
:1033C0001A00B5F91830B5F91620B5F914100090A7
:1033D0003846B0476FF07F40D847EA8A6B8BA98A9E
:1033E0001344023B013201311BB212B209B238461A
:1033F000444EB047A98A2A8BEB8A0A44023A01312B
:10340000013B12B209B21BB23846DFF81881C0473F
:103410003D48D847EA8A288B6B8BA98A134401441C
:10342000023B013202391BB212B209B23846B04730
:10343000A98A688B2A8BEB8A0A440344023A013139
:10344000023B12B209B21BB23846C04720462F4B8E
:10345000984720462E4B98472046D84795F86E004F
:1034600078B305202B4B98477D26DFF8BC9005F1FB
:103470005808DFF8A4A00DE02B1993F858E031B2FA
:1034800003AB0A2238468DF80CE0D04701340A36E7
:1034900024B2B6B24046C84700B28442ECDB95F88D
:1034A0006D305BB10020D847B5F91E206B8C3846D3
:1034B00013441BB2B5F91C10124CA04709B0BDE86B
:1034C000F08F144B9847144C05F15803082236210D
:1034D0003846A047E3E700BF146B0A00DD5A090035
:1034E00018660A00FD460800F1460800E14608009B
:1034F00035070900E1500800D5460800D014072020
:10350000E6E6E600394F0800A6A6A60045470800F3
:1035100009470800154708001D5F0800C946080054
:10352000B1460800D14D0800795E0A002DE9F04748
:1035300086B09DF83880002A00F083801F46002B5B
:103540007FD0054689461646B8F1000F74D1E823AE
:1035500082211C460020024665F30F0064F30F022F
:1035600061F31F4269F31F40614904900592EC1812
:10357000884784425CDC002D5ADB5E4BBDF9164067
:1035800098474C44844253DCB9F1000F50DB5A4B4E
:103590009847044600284BD10F98584B984700286D
:1035A00046D0574D0F9BEB60B8F1000F54D048F256
:1035B0004B0303940194009402933146514B524AB9
:1035C00004A8524CA0472861002831D005F12406F8
:1035D00030464F4A0A214F4C05F13009A0474E4A68
:1035E0000A214846A04705F13C032A69222100939D
:1035F00005200B23DFF844A1D0472A690923009650
:10360000A1212860454E3220B0472A6968600B230B
:10361000CDF80090A1214FF49670B047A8602B68B8
:103620001BB16B680BB1002850D128693C4B9847FF
:10363000002006B0BDE8F0874FF4E273D9211C46A4
:1036400088E7384B40F27B1237490020374CA047BF
:10365000002006B0BDE8F0874B23CDF80C80029324
:10366000CDF80480CDF800803146264B264A04A8C8
:10367000264CA04728610028DAD005F12406304600
:10368000234A0A21234C05F13009A047224A0A2186
:103690004846A04705F13C032A69182100930520FC
:1036A0000323DFF898A0D0472A69012300965A2106
:1036B00028601A4E1920B0472A6968600323CDF8A4
:1036C00000905A219C20B047A860A8E73A461521EF
:1036D0001748A047174C01210F9885F86E80A04726
:1036E0001F212869A0472869134B98472869A0E73C
:1036F0002D6E0800316E0800FDFE0800D9DF0800BD
:10370000D0140720B1300800453308004DE9080007
:1037100054650A00316F0900D4690A0085790900EF
:10372000C911090018660A00606B0A00DD5A090019
:10373000281507208102090009040900D181090028
:103740000B1C18BF01232DE9F047064692B09322C7
:1037500018460D463D4B3E493E4CA04701203E4B8E
:1037600098476FF07F403D4B984700203C4B98476F
:103770003C4B98473C4C314606A8A047314608A828
:10378000BDF91C70A047002214464FF0300ABDF965
:10379000266011463B4628460096344EB0472046E8
:1037A000334B9847334E2046334B98472046334B94
:1037B0009847DFF8E09096F868000A2305A90322ED
:1037C000CDF808A001940094C847DFF8CC802C4ABB
:1037D00010210AA8C0472B4F05AA10210AA8B847F4
:1037E00096F869000A2305A90322CDF808A00194E0
:1037F0000094C847244A10210EA8C04705AA0EA865
:103800001021B84796F86A0078B9204B9847204CA9
:103810000AAB284614221E21A0470EAB28463C22A4
:103820001221A04712B0BDE8F0870520174B98473A
:10383000174C0AAB284628226521A0470EAB284624
:1038400078225921A04712B0BDE8F08718660A0017
:10385000946B0A00DD5A0900FD460800C9460800BD
:10386000F1460800E146080035070900E15008006C
:10387000B1460800441507200947080045470800DD
:10388000F06B0A00856F0900F86B0A001547080005
:103890001D5F08003D720900316F090070B5194CB9
:1038A0000121E069184DA84701212069A84794F833
:1038B0006910C1B13B2920D00121A068A84701218E
:1038C000E068A84794F8681081B1172911D00F4D0E
:1038D000E069A8472069A847A068A847E0682B4688
:1038E000BDE8704018472069A847E5E7E068A847A9
:1038F000EDE70021A068A847E9E70021E069A847B3
:10390000DAE700BF44150720110F0900710F090005
:1039100070B504460030404B18BF012082B0C02271
:103920003E493F4DA847237A1A2B2DD0232B29D16E
:103930003C4E2368B26893424BD0F26893423AD02F
:10394000F269934260D0326993424AD196F8693065
:10395000002B55D1344B984796F86A30B069002B4C
:1039600031D03249324B02B0BDE8704018470021D7
:10397000B6F8683072695BBA9BB2019100913D2044
:103980002C4CA04702B070BD264E2B4BB069984717
:103990002A4B9847236832689342E8D07268934272
:1039A00025D04FF489720020AC46254B1B4902B04C
:1039B000BDE87040604796F86830002BCAD0013BE4
:1039C00086F86830C6E71F49194B02B0BDE8704061
:1039D000184796F86830162BBCD8013386F8683043
:1039E000B8E7174BE3220D490020A847B2E70023B0
:1039F00072690193009319463E200E4CA047C1E71F
:103A0000013B86F86930A5E796F869303A2BA1D8D2
:103A1000013386F869309DE718660A00BC6B0A001E
:103A2000DD5A0900441507209D380800046C0A007F
:103A30009105090055190900C9110900B15A090079
:103A4000E8690A000C6C0A002DE9F041172A86B0DB
:103A50009DF8306026D83B2B24D8864F87F8682005
:103A600087F8693016BB76234FF0820E1C46824AD7
:103A7000ADF814408846C4180546ADF816E09047E6
:103A800084420FDC002D0DDB7C4BBDF916409847BE
:103A90004444844206DCB8F1000F03DB784B9847BE
:103AA000044640B1002006B0BDE8F081E2234FF0AB
:103AB000E10E1C46DBE70D98724B98470028F1D0C9
:103AC0000D9B87F86A607B61ADF81050ADF81280ED
:103AD000002E67D048F24B030394029301940094A4
:103AE000694B6A4A6A4904A86A4DA847B861002828
:103AF000D8D0694D694A05F10C0628460A21DFF83D
:103B0000B081C047664A0A213046C0474FF0B40E24
:103B1000BA690B230095AA21A7F844E0A7F85CE056
:103B20003C87A7F8504005205E4CA047BA69386032
:103B30000B23AA2100967820A04705F118035A4CC0
:103B4000BA6978600A210093BA200923A04705F1D9
:103B50002403BA69B86032210093BA200923A04730
:103B600005F13003BA69F8605A210093BA2009239D
:103B7000A0473C35F861BA69092300958221BA2033
:103B8000A04738613B684BB17B683BB1BB682BB148
:103B9000FB681BB1FB690BB100285CD1B869434BD2
:103BA00098477FE74B230396029301960096364B86
:103BB000364A374904A8374CA047B86100283FF47B
:103BC00071AF354C3A4D04F10C08344A20460A21B5
:103BD000A847334A0A214046A8474FF0B40EBA69B5
:103BE000304D00940323A7F844E0A7F85CE05A2185
:103BF00005203E87A7F85060A847BA6938600323BC
:103C00005A21CDF800803C20A84704F11803264D26
:103C1000BA697860052100935D200123A84704F16B
:103C20002403BA69B860192100935D200123A847D5
:103C300004F13003BA69F8602D2100935D2001235F
:103C4000A8473C34F861BA690123009441215D2002
:103C5000A847386196E7174B9847174C01210D98F4
:103C6000A0471F21B869A047B869144B9847B869A5
:103C700019E700BF441507202D6E0800316E0800BB
:103C8000FDFE0800D9DF080011390800413708009F
:103C9000E46B0A004DE908006415072054650A002A
:103CA000D4690A008579090079760900C9110900EB
:103CB000316F09009D3808008102090009040900DC
:103CC0000B1C18BF012370B5064686B05A22184651
:103CD0000C461E4B1E491F4DA84701201E4B9847FE
:103CE0006FF07F401D4B984700201D4B98471D4BA0
:103CF00098471D4D314602A8A847314604A8BDF992
:103D00000C60A8470022BDF91650114633462046E4
:103D10000095164DA8470020154B9847154D0020DB
:103D2000154B98470020154B984795F82C0000B18B
:103D30000520134B98472046124C0A220C21A4461A
:103D4000AB6A06B0BDE87040604700BF18660A0065
:103D5000146C0A00DD5A0900FD460800C946080037
:103D6000F1460800E146080035070900E150080067
:103D7000B1460800B015072009470800454708006C
:103D8000154708001D5F080030B5044600300F4B92
:103D900018BF012083B07E220D490E4DA847237A1B
:103DA0001A2B11D10C4D0D4BE86898470C4B9847D6
:103DB000002120682B68AA68C31A18BF012301914B
:103DC00000913C20074CA04703B030BD18660A00A4
:103DD000386C0A00DD5A0900B0150720C911090026
:103DE000B15A0900551909002DE9F04389B09DF831
:103DF0004C60002B00F094801D46109B002B00F0BF
:103E00008F80119B002B00F08B80129B002B00F009
:103E10008780074689461446002E7BD16F2A75DDC0
:103E20004B23ADF816306B4B984707EB04088045E1
:103E30006CDC002F6ADB684BBDF916809847C844DC
:103E4000804563DCB9F1000F60DB1498634B984741
:103E500000285BD0DFF8B881109BADF81070C8F86F
:103E60002830149BADF81290ADF8144088F82C60FF
:103E7000C8F80830002E5DD0002348F24B020393AF
:103E80000193009302922946554B564A04A8564C7A
:103E9000A047C8F80C00002838D0544B014608F160
:103EA000100606A89847524FBDF91C403046119A9B
:103EB0000A2108F11C05B847129A0A212846B8477A
:103EC000A4F10A0303EBD37358106438D8F80C201C
:103ED0000B2300962321474E00B2B04704EBD47366
:103EE0005B100533C8F80000D8F80C2018B2009514
:103EF0000B232321B047C8F80400D8F800300BB1D9
:103F0000002857D1D8F80C003B4B9847002009B047
:103F1000BDE8F083D32AF9DD5F23ADF8163082E7E0
:103F2000364BBB2236490020364CA047002009B052
:103F3000BDE8F0834B230396029301960096294631
:103F4000274B284A04A8284CA047C8F80C00002892
:103F5000DCD0264B014608F1100606A89847244FEE
:103F6000BDF91C403046119A0A2108F11C05B847DA
:103F7000129A0A212846B847A4F10A0303EBD37327
:103F800058103238D8F80C20032300961E21194E01
:103F900000B2B04704EBD4735B100533C8F80000DF
:103FA000D8F80C2018B2009503231E21B047C8F89A
:103FB0000400A2E701211498134CA0471F21D8F850
:103FC0000C00A047D8F80C00104B9847D8F80C000C
:103FD0009DE700BF2D6E0800316E0800D9DF080094
:103FE000893D0800C13C08004DE90800350709007B
:103FF000316F090085790900C911090018660A00A6
:10400000606C0A00DD5A09008102090009040900F8
:10401000B01507202DE9F04F83B01D460D9B0446D7
:1040200049480E4617460193BDF930808047474BFB
:10403000824698478346201C454B18BF0120B42276
:104040004449DFF81891C847B4F90830002B66D00E
:10405000B4F90A00002862D0B4F90420B24203DDAA
:10406000911B16466D1A2DB2B4F90610B94259DCEF
:1040700005EB060E02EB030CE645C8BFACEB0605EC
:1040800008EB070E01EB000CC8BF2DB2E645C4BF1C
:10409000ACEB07080FFA88F8002D40DDB8F1000FEF
:1040A0003DDDB4F900E07244D34238D4B4F90230B3
:1040B0001944C84233D406EB0E00C5422FD4FC1875
:1040C00018EB040F2BD40AF1FF3A0FFA8AFA524583
:1040D00025DC0BF1FF3B0FFA8BFB59451FDC5045EC
:1040E0001DDC5C451BDC002824DB002C9BB20EDBB6
:1040F0003B4419B2184C019B2A460C93A4464346F4
:104100000EEB060000B203B0BDE8F04F60479844E4
:104110000FFA88F8FF1AB8F1000F3FB2E8DC03B0DD
:10412000BDE8F08FA1EB070EA8EB0E080F460FFAC3
:1041300088F89DE71FFA8EF215442DB2B61A002DAD
:1041400036B2D2DCEBE700BF2D6E0800316E0800FE
:1041500018660A0020B00A00316F0800DD5A090015
:104160002DE9F04F1C4695B013938146AA4B20468B
:104170000591099298471190B9F1000F11D0DFF81D
:10418000B4B29BF83230052B16D0BDF84420042B76
:1041900000F25882DFE813F035023E0244024A0280
:1041A00050029E4C484640F2E532A4469C4B9D4945
:1041B00015B0BDE8F04F60470446002800F0448287
:1041C00000210B460A469848139DAA5C0131A2F1D2
:1041D0001F0630F81660203A30F81220C9B2334476
:1041E0009B1A8C421BB20A46EFD89BF83320032A55
:1041F00000F2BE80DFE802F0805A3002B9F9041004
:10420000B9F90820059C0A44944280F2AE80B9F9BD
:104210000600099D854240F3A88022460F32914254
:1042200000F3A380B9F90A20E91A0244914280F20E
:104230009C809BF83120012A40F0A1802A46DBF8BF
:1042400004100132D21A0093019112B221461023B8
:104250004846764CA04792E0B9F904400599A1423E
:1042600040F38380B9F90600099D85427DDDB9F9E7
:104270000820C91A2244914277DAB9F90A10A5F147
:104280000F0201448A4270DC9BF83110012976D17B
:1042900010240599DBF804000131C91A009401903B
:1042A00012B209B24846614CA04768E0B9F904402F
:1042B000B9F90820059D2244A5F10F01914254DC73
:1042C000B9F90600B9F90A20099F024497424CDA6D
:1042D000A5424ADDDA19904247DA9BF83120012ADB
:1042E0004DD1DBF804200093019209B210233A4625
:1042F00048464E4CA04742E0B9F90400B9F90820FD
:10430000059C0244944230DAB9F90610B9F90A2042
:10431000099E0A44964228DA1A19904225DA06F1D3
:104320000F02914221DC9BF83120012A27D1102174
:10433000DBF8042048468DE80600214632463B4C17
:10434000A0471CE00025089B0133102B089328D1BF
:10435000129B11990133DBB218461293069B8142DE
:104360002B44C1461BB2024613D815B0BDE8F08FEE
:104370002F4B40F242422B490020284CA047119B72
:10438000002BF2D0002213462749DFF8ACA012928E
:1043900010910021C846089113999BB28A180C927B
:1043A00006930C9B80221B78109D203BDBB25E2B7A
:1043B00086BF0A230B21591C35F8134035F91170BB
:1043C00004F0070324B242FA03F3BC425FFA83F914
:1043D000B8DA572300250899049703FB01F30393E8
:1043E000059B8AB2D3189BB20F931BB207920A9314
:1043F000A4B2039A0AEBD4039B5C19EA030F40F0C2
:10440000FE809BF83330032B00F2F980DFE813F0D5
:10441000D500A60063001600795E0A00DD5A090087
:1044200018660A0040B00A0058AF0A00154008009C
:1044300098B10A00E0150720E8A90A00DBF800306F
:10444000824E0D93824B9847824B07469847824B8A
:104450000B90852281490120B047B8F90420B8F9B2
:1044600008300A9913449942ADB226DA069E099B98
:10447000B8F906009B1B5B1BB8F90A109BB21EB271
:1044800001448E4219DA0A998A4216DC864214DB0C
:10449000B8F800000F9A104400B200280DDB8742E4
:1044A0000BDDB8F802100B4419B2002905DB0B9B99
:1044B0008B4202DD0D9A6A4B98470134049B5FEAF8
:1044C000590924B205F1010508BF4FF08009A34244
:1044D0002DB28DD137E7069A059BADB29E1ADBF857
:1044E00000305A4F0E935A4B98475A4B0B909847AF
:1044F000594B0D90852259490120B847761BB8F9D0
:104500000420B8F90830B6B231B213449942D4DA73
:10451000099B079FDB1BB8F906E0B8F90A009BB2BC
:104520001FB270448742C8DA9142C6DBBE45C4DC84
:10453000B8F80000304400B20028BEDB0B9A82427B
:10454000BBDDB8F802100B4419B20029B5DB0D9B96
:104550008B42B2DD0E9A424B9847AEE7079A059B15
:104560003A4F9E1ADBF80030B6B20E93384B98479C
:10457000384B0B909847384B0D90852237490120D6
:10458000B847B8F90410B8F9083032B20B449A426F
:10459000ADB292DA099F069BB8F90A003B442B445E
:1045A000B8F906709BB20FFA83FE3844864584DA68
:1045B000914282DCBE45BBDA7FE7059A069BADB22D
:1045C0009E18DBF80030214F0E93214B9847214B6A
:1045D0000B909847204B0D90852220490120B84729
:1045E0002E44B8F90420B8F90830B6B231B21344F9
:1045F0009942BFF662AF079B099F3B448BE7ADB280
:104600005BE7184BB3F9043001339BB203FB02F3B1
:104610001BB2EAE5144BB3F9043001339BB2F5E762
:10462000124BB3F9043001339BB2EFE7104BB3F9EF
:10463000043001339BB2E9E70E4BB3F90430013388
:104640009BB2E3E70123E1E70346CEE5DD5A09002B
:104650002D6E0800316E080018660A0018B00A00B6
:10466000396E080088A60A00846C0A0000710A00EE
:10467000E87C0A00C88B0A0010B400226FF07F406B
:104680004FF6FF740121094B186098609C815A60B5
:1046900083F82F2083F8302083F8322083F83320EA
:1046A00083F82E1083F8311010BC7047E0150720F6
:1046B000014B1860704700BFE0150720014B5860A0
:1046C000704700BFE0150720014B9860704700BF9E
:1046D000E0150720014B9881704700BFE0150720C7
:1046E0000022024B83F83020704700BFE0150720FE
:1046F000014B83F82E007047E0150720014B83F82B
:104700002F007047E0150720014B83F831007047F8
:10471000E015072038B504460528064B8CBF00205D
:10472000012040F2F2520449044DA847044B83F89B
:10473000324038BD88B10A0054B00A00DD5A090081
:10474000E0150720014B83F833007047E015072080
:104750000F4B93F83230042B18D8DFE803F0070B27
:104760000F1303000B4BB3F9040070470A4BB3F966
:1047700004007047094BB3F904007047084BB3F9C4
:1047800004007047074BB3F90400704700207047DE
:10479000E0150720C88B0A0088A60A00846C0A006E
:1047A00000710A00E87C0A00104B93F83230052BA8
:1047B0001AD8DFE803F005090D1115031020704722
:1047C0000B4BB3F9060070470A4BB3F9060070476C
:1047D000094BB3F906007047084BB3F90600704760
:1047E000074BB3F90600704700207047E01507201B
:1047F00088A60A00846C0A0000710A00E87C0A009E
:10480000C88B0A002DE9F047002839D01646214A06
:10481000214B0D460446D2F8009098471F4B07469F
:104820009847DFF888A01E4B852280461D4901204D
:10483000D047B4F90420B4F9083013449D421DDA7E
:10484000B4F90610B4F90A300B449E4216DA9542C8
:1048500014DB8E4212DB2088284400B200280DDBD6
:1048600087420BDD6188314409B2002906DB8845A7
:1048700004DD4A46BDE8F0470B4B1847BDE8F0871A
:104880000A4C074BA446BDE8F04740F27462084961
:10489000604700BFE01507202D6E0800316E08004C
:1048A00018660A0018B00A00396E0800DD5A0900BF
:1048B00064B00A002DE9F04F994287B088461C4643
:1048C00081469346BDF9405004DC2A460C465D46BD
:1048D00098469346ABEB0503A8EB04069BB2B6B231
:1048E000580071001AB289B280B2002A0F460291B4
:1048F000039031B2C0F20D81C01B80B28A42019098
:104900002DDC0644A04536B226DB4FF40047DFF825
:104910005CA34FF6FF72BAF80C3093426AD037EAC4
:1049200003036ED0B9F1000F00F01D829AF831B088
:10493000BBF1010F00F0AC80A4B27F0808BF4FF4B8
:1049400000470134002E24B249DD019B01351E448D
:10495000A0452DB236B2DCDA07B0BDE8F08FFE1A02
:10496000AB4536B2F8DB4FF40047DFF800A34FF653
:10497000FF72BAF80C30934221D037EA030347D0D4
:10498000B9F1000F00F0F9819AF83180B8F1010F08
:1049900045D0ADB27F0808BF4FF400470135002E67
:1049A0002DB216DD019B0134F61AAB4524B236B2A6
:1049B000D2DB4FF6FF72BAF80C309342DDD12A46B3
:1049C00021464846A34BADB298470135002E2DB283
:1049D000E8DC029BAB451E4436B2C8DABCE7039B59
:1049E000A0451E4436B2B7DB4FF6FF72BAF80C3062
:1049F000934294D121462A464846964BA4B2984702
:104A00009FE721462A464846924BA4B2984794E72E
:104A10002A46214648468F4BADB29847BAE7DAF8A6
:104A2000043005938C4B98478C4B039098478C4BE4
:104A30000490852240468B49DFF83482C047B9F99B
:104A40000420B9F9083013449C42A2DAB9F90610DF
:104A5000B9F90A300B449D429BDAA24299DCA94283
:104A600097DCB9F80000ADB2204400B2002891DB19
:104A7000039B83428EDDB9F80210294409B2002954
:104A800088DB049B8B4285DD059A774B984781E74D
:104A9000DAF804300593704B9847704B02909847B2
:104AA0006F4B0490852258466E49DFF8C4B1D84751
:104AB000B9F90420B9F9083013449C42BFF63CAF61
:104AC000B9F90610B9F90A300B449D42BFF634AF6C
:104AD000A2423FF731AFA9423FF72EAFB9F800002D
:104AE000A4B2204400B20028FFF627AF029B834205
:104AF0007FF723AFB9F80210294409B20029FFF665
:104B00001CAF049B8B427FF718AF059A564B984712
:104B100013E75242384480B29142019048DB361A82
:104B2000A0450FFA86FBFFF617AF4FF40046DFF8FB
:104B30003CA14FF6FF72BAF80C30934225D036EA0A
:104B4000030378D0B9F1000F00F021819AF8317099
:104B5000012F00F0C880A4B2760808BF4FF40046C9
:104B60000134BBF1000F24B21ADD019B013DABEB18
:104B7000030BA0452DB20FFA8BFBFFF6EDAE4FF6FF
:104B8000FF72BAF80C309342D9D121462A464846E2
:104B9000304BA4B298470134BBF1000F24B2E4DCDF
:104BA000039BA045ABEB030B0FFA8BFBC1DAD3E6FB
:104BB000C31AAB451BB23FF7CFAE4FF400461F46BA
:104BC000DFF8A8A04FF6FF72BAF80C30934222D05B
:104BD00036EA030336D0B9F1000F00F0E1809AF80D
:104BE0003180B8F1010F45D0ADB2760808BF4FF45F
:104BF0000046013D002F2DB217DD019B01341F44FB
:104C0000AB4524B23FB23FF7A7AE4FF6FF72BAF8FA
:104C10000C309342DCD12A46214648460D4BADB2BA
:104C20009847013D002F2DB2E7DC029BAB451F44A6
:104C30003FB2C7DD90E621462A464846054BA4B25E
:104C4000984789E72A4621464846024BADB2984725
:104C5000CBE700BF054808002D6E0800316E080044
:104C600018660A0018B00A00396E0800E01507201F
:104C7000DD5A0900DAF8043005934E4B98474E4B45
:104C8000039098474D4B0490852240464C49DFF8ED
:104C90003881C047B9F90420B9F9083013449C425F
:104CA000A2DAB9F90610B9F90A300B449D429BDA31
:104CB000A24299DCA94297DCB9F80000ADB22044C9
:104CC00000B2002891DB039B83428EDDB9F802100D
:104CD000294409B2002988DB049B8B4285DD059AB3
:104CE000384B984781E7DAF804300593314B984701
:104CF000314B02909847314B049085223846304919
:104D0000314FB847B9F90420B9F9083013449C422F
:104D1000BFF621AFB9F90610B9F90A300B449D422C
:104D2000BFF619AFA2423FF716AFA9423FF713AF44
:104D3000B9F80000A4B2204400B20028FFF60CAF7E
:104D4000029B83427FF708AFB9F80210294409B2E9
:104D50000029FFF601AF049B8B427FF7FDAE059A59
:104D6000184B9847F8E6154B40F27F6217494846C2
:104D7000DFF854B0A4B2D847DFE5104B40F27F62B1
:104D800012494846DFF84080ADB2C04702E60B4BFF
:104D900040F27F620D4948460B4FA4B2B847DBE6AC
:104DA000064B40F27F6209494846DFF81C80ADB2ED
:104DB000C0471AE72D6E0800316E080018660A0019
:104DC00018B00A00396E0800DD5A090074B00A00F4
:104DD0002DE9F04F87B0002800F0928091420E46F6
:104DE00014469B4607467ADDB7F90420B7F9083028
:104DF00013449C4270DA96426EDBB7F906305B458D
:104E00006ADCB7F90A2013449B4565DA4FF6FF7256
:104E1000DFF820A1BAF80C30934250D0B4425BDCEA
:104E20004FF40045DFF804910FE09AF83180B8F1B3
:104E3000010F57D0A4B201346D0824B208BF4FF45B
:104E40000045A64248DBBAF80C3035EA0303ECD142
:104E5000DAF8003005932F4B98472F4B0390984773
:104E60004B460490852201202C49DFF8BC80C047C6
:104E7000B7F90420B7F9083013449C42DADAB7F9DD
:104E80000610B7F90A300B449B45D3DAA242D1DCB5
:104E90008B45CFDB3888A4B2204400B20028CADB9F
:104EA000039B8342C7DD7988594409B20029C2DBDC
:104EB000049B8B42BFDD059A194B9847BBE7012540
:104EC000DAF8002073191B1B019221461BB25A46C7
:104ED00038460095134CA04707B0BDE8F08F0C464C
:104EE000164681E7DAF8043005930A4B98470A4BD7
:104EF000039098474B460490852240460749B4E703
:104F0000094C40F29162A446084B094907B0BDE83C
:104F1000F04F60472D6E0800316E080018B00A008F
:104F2000396E080015400800DD5A090018660A00AD
:104F300084B00A00E01507202DE9F04F87B0002863
:104F400000F092809A428B4616461C4607467ADD50
:104F5000B7F904305B4573DCB7F9082013449B456F
:104F60006EDAB7F90620B7F90A3013449C4267DAC3
:104F7000964265DB4FF6FF72DFF820A1BAF80C30DD
:104F8000934250D0B4425BDC4FF40045DFF804910B
:104F90000FE09AF83180B8F1010F57D0A4B2013474
:104FA0006D0824B208BF4FF40045A64248DBBAF8AA
:104FB0000C3035EA0303ECD1DAF8003005932F4BBF
:104FC00098472F4B039098474B4604908522012029
:104FD0002C49DFF8BC80C047B7F90420B7F9083086
:104FE00013449B45DADAB7F90610B7F90A300B44D7
:104FF0009C42D3DA9345D1DBA142CFDC3888A4B2FE
:10500000584400B20028CADB039B8342C7DD79887D
:10501000214409B20029C2DB049B8B42BFDD059A03
:10502000194B9847BBE7731C1B1BDAF800201BB217
:10503000009301925946224638460123134CA0475B
:1050400007B0BDE8F08F14461E4681E7DAF8043059
:1050500005930A4B98470A4B039098474B46049098
:10506000852240460749B4E7094C40F2C762A4468E
:10507000084B094907B0BDE8F04F60472D6E0800A6
:10508000316E080018B00A00396E0800154008009B
:10509000DD5A090018660A0090B00A00E0150720E2
:1050A00030B4BDF9085048B1084CA48924B1084C6B
:1050B0000295A44630BC604730BC7047054C064B97
:1050C000A44630BC40F2047204496047E015072052
:1050D000B5480800DD5A090018660A009CB00A00AD
:1050E0002DE9F04F8BB00892BDF95040002800F038
:1050F0003582DFF86CB38A469BF82F601D468046E8
:10510000002E00F0C9809BF82E60012E00F0EC808C
:105110009BF83060002E00F0DE800B448B42099338
:105120006DDDA31893426ADDD04681469A464FF45E
:1051300000431FFA88F2069202F00F02D340089C47
:105140009BB20393264613E0A5B205F00F030BEBC9
:105150004303DB89039A32EA030355D09BF831708D
:10516000012F00F08B806C1C24B2544526463FDA98
:105170009BF83030002BE7D1DBF80830AF4D0593BA
:10518000AF4B9847AF4B07469847AF4B04908522EB
:10519000AE490120A847B9F90420B9F908301344F1
:1051A00098452FDAB9F90610B9F90A300B449E4236
:1051B00028DA424526DC8C4224DBB9F80000069B45
:1051C000A5B2184400B20028CDDB8742CBDDB9F888
:1051D0000210294409B20029C5DB049B8B42C2DDC1
:1051E0006C1C24B2059A9A4B984754452646BFDB5F
:1051F000069B01330FFA83F8099B984597DB0BB0A8
:10520000BDE8F08FA5B2AEE7DBF8003007938C4B1A
:1052100098478C4B049098478522059001208A4B33
:105220008A49864FB847B9F90420B9F908301344C0
:10523000984598DAB9F90610B9F90A300B449E423C
:1052400091DA42458FDC8C428DDBB9F80000069B79
:10525000184400B2002886DB049B834283DDB9F842
:105260000210294409B20029FFF67DAF059B8B424D
:105270007FF779AF079A764B984774E7DBF80430ED
:1052800007936F4B98476F4B049098476E4B059070
:10529000852238466D49C4E717465D1E0D44013C22
:1052A0002DB23C4424B22A463B466A4EB0472346C0
:1052B0002A4651464046B047674E23463A46514635
:1052C0004046B04723463A4629464046B4460BB0CE
:1052D000BDE8F04F6047DBF808508DE830005F4CC8
:1052E000A0470BB0BDE8F08F9BB21FFA81F9059380
:1052F000013B4B441BB21A46564F0393A6B2089B80
:105300000696B847BDF82020013E164436B20492F6
:105310003346039A51464046B8473346089A5146A9
:1053200040464D4FB8473346089A03994046B84720
:105330009BF83030002B00F01B81554409F1010926
:105340006B1E0FFA89FA534509937FF758AF089AF5
:10535000049B224401331BB2013A93420893BFF6E7
:105360004EAF91464FF400431FFA8AF2069202F0C4
:105370000F02089CD3409BB22646039313E0A5B2CC
:1053800005F00F030BEB4303DB89039A32EA0303B7
:1053900068D09BF83170012F00F0A0806C1C24B203
:1053A0004C45264641DA9BF83030002BE7D1DBF83C
:1053B0000830224D0593224B9847224B07469847C9
:1053C000214B0490852221490120A847B8F90420E7
:1053D000B8F908301344534521DDB8F90610B8F97F
:1053E0000A300B449E421ADA524518DC8C4216DB16
:1053F000B8F80000069BA5B2184400B20028CDDB27
:105400008742CBDDB8F80210294409B20029C5DB78
:10541000049B8B42C2DD059A0D4B9847BEE7A5B2AF
:105420006C1C24B24C452646BDDB069B01330FFAAB
:1054300083FA099B9A4595DBE1E600BFDD5A090036
:105440002D6E0800316E080018660A0018B00A00B8
:10545000396E0800D14D0800394F0800154008008A
:10546000E0150720DBF800304B4F05934B4B984776
:105470004B4B049098474B4B079085224A4901209B
:10548000B847B8F90420B8F908301344534585DD0E
:10549000B8F90610B8F90A300B449E42BFF67EAF49
:1054A00052453FF77BAFA1423FF778AFB8F8000015
:1054B000069B184400B20028FFF670AF049B83429D
:1054C0007FF76CAFB8F80210294409B20029FFF643
:1054D00065AF079B8B427FF761AF9CE7DBF8043039
:1054E00004932E4B98472E4B079098472D4B0590D1
:1054F000852238462C49284FB847B8F90420B8F916
:105500000830134453457FF749AFB8F90610B8F98E
:105510000A300B449E42BFF641AF52453FF73EAFC3
:105520008C42FFF63BAFB8F80000069B184400B26F
:105530000028FFF633AF079B83427FF72FAFB8F801
:105540000210294409B20029FFF628AF059B8B42BF
:105550007FF724AF049A154B98471FE70E4C40F293
:10556000CA72A4460F4B12490BB0BDE8F04F60471A
:10557000069B049A981E059BDBF8084000B209F1CF
:105580000101023B01328DE811001BB212B209B2D7
:105590004046084CA04732E6DD5A09002D6E08004F
:1055A000316E080018660A0018B00A00396E08004B
:1055B000A8B00A00154008002DE9F04F8BB0029208
:1055C000002847D01F2B1C4619D97F2B8E4B28BF94
:1055D0002A2493F83230052B43D08B4A894692F81F
:1055E00033208046032A03D8DFE802F02A20160C75
:1055F000864B40F63A0286490020864CA0470BB005
:10560000BDE8F08F042B00F2B683DFE813F06103EE
:105610005D03590355039702042B00F2A083DFE8D2
:1056200013F07D02790275027102C501042B00F2AC
:10563000B583DFE813F0B701B301AF01AB01FF00A1
:10564000042B00F2A383DFE813F0DB00D700D300C4
:10565000CF001500704B40F60E026D496D4CA0470F
:10566000CDE7002609AB6D4D8DF824408DF82560FF
:10567000A847C4E76A4AB2F90470B2F90650B8F90B
:105680000410B8F908200A449145B8DAB8F90600C0
:10569000B8F90A20029E02449642B0DA07EB0902EA
:1056A0009142ACDCAA199042A9DC574AADB292F8FB
:1056B0003120012A00F0CB83794201F0070107F085
:1056C000070258BF4A42002A3946D4BF00220122AD
:1056D000002FB8BFF91D02EBE10292B2203C04FB9F
:1056E00002F4069212B20592C2F1040A0022114697
:1056F000CDF810901A46894604FB05F4CDF80C80CD
:1057000024B20FFA89F0052A00F22783DFE802F0BD
:105710006864605C580310218842BFF670AF059B37
:105720000025002B20DD3F4B3F48D3F800B0069BFF
:105730003E4E3F49D0F800C01819394BD6F80080CA
:105740001B680E6800B22D02042A00F2C782DFE84F
:1057500002F0033331352F003146095D013424B2A4
:10576000844245EA0105EED1BAF1000F06DD0021C1
:10577000013109B251454FEA0525F9DB002F14DD4F
:1057800000264FF00048029B09EB030B0FFA8BFB3E
:1057900038EA050300F0B282013633B29F424FEA85
:1057A0005808F5DC184B93F8322009F10109A8E7F5
:1057B0001946D2E74146D0E76146CEE75946CCE7E5
:1057C000174BB3F90610A7E71649B1F90610A3E77E
:1057D0001649B1F906109FE71349B1F906109BE786
:1057E0001349B1F9061097E70E4AB2F9047044E77D
:1057F0000E4AB2F9047040E70B4AB2F904703CE774
:105800000B4AB2F9047038E7E015072098B10A0096
:10581000B8B00A00DD5A090018660A0061410800A4
:10582000C88B0A00E87C0A00846C0A0000710A0038
:1058300088A60A00BB4AB2F904A0B2F906301A469B
:105840000393B8F90410B8F90830A9EB02020B442D
:105850009A42BFF6D4AEB8F90620B8F90A30029DD4
:1058600013449D42BFF6CBAE89457FF7C8AE0AEB25
:1058700005039A42BFF6C3AEAB4BBDF80C5093F88C
:105880003130012B00F09682DAF1000202F00702BB
:105890000AF0070358BF5342002B5246D4BF0023DF
:1058A0000123BAF1000FB8BF0AF1070203EBE203CC
:1058B0009BB2203C04FB03F404FB05F4039A06931B
:1058C000002A1BB2059324B27FF799AE0022C3F1E0
:1058D0000403CDF81080CDF81C9090469946059BA6
:1058E000002B40F36382914D9149D5F800C000250B
:1058F000904A069B904E181917680B688A4A894986
:10590000D6F800B092F832200E6800B22D02042AB8
:1059100000F2CC82DFE802F0383634320300314640
:10592000095D013424B2844245EA0105EED1B9F1A2
:10593000000F06DD0022013212B24A454FEA05256A
:10594000F9DBBAF1000F11DD00264FF00047079B8D
:10595000A3EB080B0FFA8BFB37EA050300F0DD81A0
:10596000013633B29A454FEA5707F5DC08F10108D2
:10597000039B0FFA88F29342B1DC40E65946CFE729
:105980006146CDE71946CBE73946C9E76A4AB2F91D
:1059900004A052E7654AB2F904A04EE7644AB2F99E
:1059A00004A04AE7634AB2F904A046E75D4AB2F9A7
:1059B00004A0B2F906300393B8F9043099457FF793
:1059C0001EAEB8F90600029D85427FF718AEB8F901
:1059D0000810A9EB0A020B4401329A42BFF60FAE3F
:1059E0000399B8F90A206B1A104401338342BFF6B9
:1059F00006AE4D4B93F83130012B00F0FD818DB296
:105A0000DAF1000202F007020AF0070358BF53421E
:105A1000002B5246D4BF00230123BAF1000FB8BFB8
:105A20000AF1070203EBE2039BB2203C04FB03F400
:105A300004FB05F4039A0793002A1BB2069324B2D1
:105A40007FF7DDAD0022C3F10403CDF81080CDF85F
:105A5000149098469146069B002B40F3A981334D44
:105A60003349D5F800B00025324A079B324E181949
:105A700017680B682C4A2B49D6F800C092F83220E0
:105A80000E6800B22D02042A00F20E82DFE802F056
:105A90003634383203003146095D013424B2844281
:105AA00045EA0105EED1B8F1000F06DD0022013212
:105AB00012B242454FEA0525F9DBBAF1000F11DDBC
:105AC00000264FF00047029BA3EB090B0FFA8BFB5C
:105AD00037EA050300F03081013633B253454FEA0F
