S01500004D696E6957696E53696D706C652E73726563EA
S214080000F02F0720E52F0800E12F0800E12F080051
S214080010E12F0800E12F0800E12F0800000000008B
S214080020000000000000000000000000E12F0800AB
S214080030E12F080000000000E12F0800E12F08006B
S214080040E12F0800E12F0800E12F0800E12F080043
S214080050E12F0800E12F0800E12F0800E12F080033
S214080060E12F0800E12F0800000000002D2E0800F0
S214080070412E0800552E0800692E080000000000D2
S21408008000000000E12F0800E12F0800E12F08001B
S214080090E12F0800E12F0800E12F0800E12F0800F3
S2140800A0E12F080000000000E12F08000502080004
S2140800B0E12F0800E12F0800E12F0800E12F0800D3
S2140800C0E12F0800E12F0800E12F0800E12F0800C3
S2140800D0E12F0800E12F0800E12F0800E12F0800B3
S2140800E0591B0800E12F0800E12F0800E12F08003F
S2140800F0E12F080010B5054C237833B9044B13B12B
S2140801000448AFF300800123237010BD280C072095
S214080110000000007C8508000C4B43B10C4810B565
S2140801200C49AFF300800C48036823B910BD0A4891
S214080130036833B97047094B002BF7D0BDE8104069
S2140801401847064B002BF5D0184700BF00000000E4
S2140801507C8508002C0C07207C8508000000000021
S21408016038B518B906200A4B984738BD014643F2F9
S214080170B062002343F2AF6400250648E0FB014561
S21408018020462946044CA047014B984738BD00BF77
S2140801900100072000BD01058D36080008B50A468F
S2140801A00149024B984708BD00FF0F00ED390800CB
S2140801B02DE9F04180460F46062100200B4B984754
S2140801C00B4D0C4C00231A46294620460A4EB047CB
S2140801D001233A4641462046084EB04700231A46B1
S2140801E029462046064CA047BDE8F081BD280800F1
S2140801F0FFFF0F0000FF0F00592A0800E528080037
S214080200E529080008B500210648074B9847074B1C
S214080210DB6B13F0006F4FF00062044B14BF5A6399
S2140802201A6308BD00000840B113080000100E400D
S21408023030B585B01B20164B9847164C009402AB79
S21408024003AA21461420144DA847144D029A42F4D6
S214080250804200212846124B9847039AB4FBF2F4D2
S214080260104AA2FB04321209002128460E4B984772
S2140802704FF000620D4B1A601022002128460C4BE6
S2140802809847002128460B4B984705B030BD00BF5D
S2140802907D2F080000BD0105B913080000000840BE
S2140802A081130800CDCCCCCCA113080000E100E0F7
S2140802B0A913080099130800F0B4571E10D0441E5E
S2140802C04D1E023A86180E4A14F8013FD360136989
S2140802D013F0010FFBD0936805F8013FB442F3D141
S2140802E0074B4FF080721A60C25DDA601A461369CF
S2140802F013F0010FFBD0024B9B68CB55F0BC704740
S2140803000080004038B5274B02255D61C3F8A05031
S2140803104FF000611920244CA0474FF000611A20C6
S214080320A0474FF000611B20A0474FF000611C203B
S214080330A0474FF000611D20A0471C4C20461C4BD0
S2140803409847256080232360636823F00203636070
S214080350636843F001036360636843F010036360F7
S2140803600D212046134B9847002211462046124B73
S2140803709847002211462046104B984700221146FF
S21408038020460F4B98475422002120460D4B98478D
S21408039010234022002120460B4DA8470123236046
S2140803A038BD00BF00140E40712C080000800040C5
S2140803B0BD120800D9120800EF1208000D13080035
S2140803C02B1308003F13080065130800024BD86B70
S2140803D0C0F34000704700BF00140E402DE9F04FF0
S2140803E08DB0824689460024ADF804408DF8064054
S2140803F00E213648364B984702AD0327354EDFF8B0
S214080400D880D0238DF804303A46694601A8B0470C
S2140804109DF801309DF802B04BEA032B90238DF827
S21408042004303A46694601A8B0479DF801209DF871
S214080430023043EA02234FEADB0B25F802BBDB084F
S2140804406B820134E4B2C04740B90A2CD9D10DF109
S2140804501A000126002402AB354609E00A2C18BF0C
S2140804600020F4D00DB0BDE8F08F0233834207D0E9
S21408047019885A889142F8D959801A802546F4E78F
S214080480002DE8D00DF12E04002607AB284602E022
S21408049002339C4207D019885A889142F8D9598065
S2140804A01A803046F4E70028EFD0BDF81030BDF8C3
S2140804B012201344DB08AAF80030BDF82430BDF833
S2140804C026201344DB08A9F80030CBE7008000405C
S2140804D0D9120800B9020800CD03080008B5024B77
S2140804E09847024B984708BDED2A0800512B08008C
S2140804F00E4900230B700E4A13800E4AA120107076
S21408050020205070538093800220D08013810A4A9E
S2140805104FF4E130106013715371082393710B7810
S2140805200133DBB20B700120704700BF4F0C072069
S214080530E40C07207C0D0720480C0720024A137895
S214080540013BDBB2137070474F0C0720044A137840
S214080550013BDBB2137013780022024B1A70704707
S214080560500C0720460C07200020704700207047D4
S2140805701D4B1B7813F0800F05D103F06003202B6A
S21408058018D00020704703F06003202B01D000200D
S2140805907047154B5B78212B24D1134BDB88072B30
S2140805A001D000207047104B104A9A6007229A81A3
S2140805B0012070470C4B5878202804D0222814BFF6
S2140805C0002001207047084BDB88072B01D000204D
S2140805D07047054B064A1A61044A9A6007229A81B0
S2140805E00120704700207047A80F0720480C0720F6
S2140805F0F505080070470000444B1B7803B17047A8
S21408060070B584B0424B9847002841D0414B1C88AF
S214080610414B9847844276D0EFF31083B3FA83F3BE
S2140806205B09039372B6BFF35F8F00223B4B1A70C9
S214080630039D3B4B1C78E4B23A4B33F81430002B3E
S2140806402DD00022384B1A80384B1B78002B42D10D
S214080650B4FA84F35B09324A137001222B4B1A70E2
S21408066025B12E4B1A70BFF35F8F62B626462D4B08
S21408067033F81430402B14BF0125002534D0244B02
S214080680984700282BD0244B9847224B18802EE0FA
S214080690204B1C88264B98478442BDD133E0224A1B
S2140806A01388013313801A4B984718B91E4B1B88BA
S2140806B0632B08D9164B98470028C2D01A4B1B88BC
S2140806C0B3F5487FBDD2F5B10122144B1A70BFF3BB
S2140806D05F8F62B617E0B4FA84F46409BDE7144B7A
S2140806E098470C4B188002E000220A4B1A800D4BE4
S2140806F033F816300F4A00920F4A02EB8412294646
S21408070081200E4CA04704B070BD00BF780D0720AE
S21408071071210800740D0720BD210800700207200B
S214080720700D07206C0D0720440C0720E80C0720E6
S214080730AD21080041070800EC0C07202524080016
S21408074000B1704708B5074B1B78B3FA83F35B090B
S214080750054A22F81300054B1870054B1870054B10
S214080760984708BD700D07206C0D0720E80C072079
S214080770780D0720F905080008B50020014B9847B2
S21408078008BD00BFF905080082B0EFF31083B3FA7E
S21408079083F35B09019372B6BFF35F8F00220B4B9E
S2140807A01A7001990A4B188883B20A4A1278D2B28C
S2140807B0094830F8120080B2C01A29B10122034B4A
S2140807C01A70BFF35F8F62B602B0704770020720D8
S2140807D0DC0C0720D80C0720D40C072008B5034BE0
S2140807E09847003018BF012008BD00BF89070800D9
S2140807F010B584B0EFF31083B3FA83F35B09039361
S21408080072B6BFF35F8F00221E4B1A70039B1E4AF8
S21408081014781E4A12784AB9E4B21D4A118889B279
S2140808201C4A32F8142092B2914209D23BB30122F4
S214080830144B1A70BFF35F8F62B6002004B010BD69
S2140808400021134A1180B4FA84F252090E490A703C
S21408085001210E4A117023B10A4B1970BFF35F8F3E
S21408086062B600200C4B98470C4B009340230C4A6A
S21408087002EB8412012102200A4CA047DEE7002082
S214080880DCE700BF70020720D80C0720E00C072022
S214080890DC0C0720D40C0720DD0708003D090800FB
S2140808A0540C07202524080010B50024164B1C708D
S2140808B0164B1C70164B1C70164B1C70164B1C8067
S2140808C05C80164B1C802046154B9847154B1C70B1
S2140808D0154B1C70154B1C805C80154B1C802046E5
S2140808E0144B9847014640B1074A13780133DBB2E8
S2140808F013701378DBB2012B01D0084610BD012215
S2140809000D4B1A70F9E700BF500C0720780D07202A
S214080910E80C0720700D07206C0D0720740D0720C3
S214080920F9050800E00C0720D80C0720D40C07208F
S214080930DC0C0720F1070800460C0720E8B910B5BC
S21408094082B010460D4B1C78B4FA84F4640951B191
S21408095089B20B4B23F8141000200A4B18700A4B68
S214080960984702B010BD094B00934023084A02EB93
S21408097084120121074CA047F3E77047D80C0720DC
S214080980D40C0720E00C0720F10708003D090800F2
S214080990540C0720252408002DE9F04782B0254B83
S2140809A093F80680B8F1090F14BF4FF000084FF00F
S2140809B001084FF0000A204CD14657461F4D204EDE
S2140809C004E08B4223D31F4B1B78D3B1EFF310837D
S2140809D0B3FA83F35B09019372B6BFF35F8F277090
S2140809E001982B889BB23278D2B2174931F8121088
S2140809F089B20028E5D001202070BFF35F8F62B669
S214080A00DFE74FF0000A504602B0BDE8F0870F490E
S214080A1001EB8212D25C42EA0A0A01339BB22B80AF
S214080A2048460B4B9847B8F1000FECD04FEA0A2A15
S214080A30C846CBE7480C072070020720DC0C0720C6
S214080A40D80C0720460C0720D40C0720540C072087
S214080A50F107080008B50020014B984708BD00BFFD
S214080A609909080082B0EFF31083B3FA83F35B09A1
S214080A70019372B6BFF35F8F0022144B1A70019A67
S214080A80134B1B78DBB2134931F8130040280AD001
S214080A90C0F140002AB101220C4B1A70BFF35F8FD9
S214080AA062B602B070470C4909780029F0D10B49A4
S214080AB009780029ECD1012008490870B3FA83F3B5
S214080AC05B0903490B700020E2E700BF70020720AD
S214080AD0700D07206C0D0720780D0720E80C0720FE
S214080AE008B5034B9847003018BF012008BD00BF63
S214080AF0650A08002DE9F04182B00C461D4B9D7929
S214080B00092D14BF002501251B4E1C4FDFF87C80DD
S214080B1022E0EFF31083B3FA83F35B09019372B60E
S214080B20BFF35F8F00233B70019898F80030DBB264
S214080B30134A32F8131001F1010E22F813E0114A95
S214080B4002EB83135C5420B101233B70BFF35F8F25
S214080B5062B665B1241200250020B0470028D8D117
S214080B60094B1B78002BF7D102B0BDE8F0810120B5
S214080B70FAE700BF480C0720E10A080070020720C1
S214080B806C0D0720EC0C0720460C0720700D07207C
S214080B9008B501460020014B984708BDF50A08002D
S214080BA0104B1B681A6853881A44037818449042F6
S214080BB011D24378042B10D08B4209D003781844FE
S214080BC0904206D24378042B09D08B42F6D107E030
S214080BD070470020704700207047002070470020AC
S214080BE0704700BF940D072008B5034B987800F0AF
S214080BF07F00024B984708BDA80F072075210800FC
S214080C00194B1B784BB3194B1B681B681A79824221
S214080C1025D970B4164A13605C881C44A34220D2B7
S214080C200025012607E0124A13600FE01A781344DD
S214080C303546A3420CD25A78042AF7D19A788242CB
S214080C40F4D1DA788A42F1D1002DECD1012002E005
S214080C50074A1360002070BC7047002070470020C9
S214080C6070470020F7E700BF900D0720940D072077
S214080C70980D07202DE9F84304460021134B9847A2
S214080C80804610B94046BDE8F883114B1B685B6880
S214080C9053F82490D9F80C309847014620460B4B59
S214080CA0984780460028EDD00A4B1C6805260A4D52
S214080CB00A4F31462046A847044610B18078B84700
S214080CC0F7E7D9F804309847DCE700BF010C0800BE
S214080CD0940D0720980D0720A10B0800D9210800BD
S214080CE02DE9F0418046104B98470346C8B10F4B94
S214080CF01C6805260E4D0F4F31462046A847044669
S214080D0038B18288C1788078B84703460028F3D17E
S214080D1007E0094B1B685B6853F828301B68984740
S214080D2003461846BDE8F081010C0800980D072018
S214080D30A10B080021250800940D072008B5014BD3
S214080D40984708BD0119080070B50D4B1B7883B18C
S214080D500C4B1B681B681B795BB100240A4E094DB7
S214080D602046B0470134E4B22B681B681B79A342BF
S214080D70F6D80022024B1A700122044B1A8070BD66
S214080D80900D0720940D0720750C0800860D072087
S214080D9038B50D4B1B78B3B10C4B1B681A68127923
S214080DA08AB10024094D06E00134E4B22B681A68BB
S214080DB01279A24207D95B6853F824301B69002BC6
S214080DC0F2D09847F0E738BD900D0720940D07201D
S214080DD0F8B5964B00229A811A615A611B7813F06F
S214080DE0800F14D113F0600F00F0B8808F4B1B787B
S214080DF003F01F03012B00F08B818C4B1B7803F04C
S214080E001F03022B00F0AC8100231846F8BD874A62
S214080E10D288002A00F0CD8113F0600FE6D113F0D7
S214080E201F0306D181494978062913D0082958D0C6
S214080E3049B1012B5CD0022BD8D17C4B5B78002BB8
S214080E407ED0002360E1022AD0D102217848794B6F
S214080E5098479FE0754B5A88130A013B0E2B00F201
S214080E605081DFE813F00F001C0036004E014E01DB
S214080E704E014E014E014E014E014E014E014E01ED
S214080E804E012E006C4B186801786A4B9847674BE2
S214080E90DA889B8993427DD9644B9A817AE0D2B2EC
S214080EA0654B1B685B7C9342A0D9634B5B6853F821
S214080EB0320041885F4B98475C4B9B6802225A7009
S214080EC0E5E75D4B9868002890D04188594B9847CD
S214080ED0DDE712F0FF0F89D104215848554B984793
S214080EE0D5E7012A82D101215548524B984751E04F
S214080EF04E4949780A299ED1012A7FF477AF504B8C
S214080F001B78002B3FF472AF484B1C794D4B1D687D
S214080F102B681B79A3427FF669AF002120464A4B0F
S214080F20984700283FF462AF6B6853F82430DB68B4
S214080F309847464B1870012118463E4B984729E0BB
S214080F40022A7FF453AF394B1879414B9847414BE7
S214080F50188002211846374B98471BE013F01F03EA
S214080F6040F08280314A5278013A082A7CD8DFE875
S214080F7012F013007B00CA007B0009007B007B0090
S214080F807B002300294BDB88002B7FF42FAF324AE7
S214080F90264B1A61012338E7244BDB88002B7FF4A5
S214080FA025AF224B5B88012B7FF420AF204A13889D
S214080FB023F002031380EDE71C4BDB88002B7FF43D
S214080FC015AF264B984700283FF410AF174B9A7872
S214080FD0194B1B685B7C9A423FF708AF204B984733
S214080FE0124B9B78164A1370002BD3D003F100538C
S214080FF0013B114A526802EBC3001249086052F8D6
S21408100033301B79002BC5D000242646154D0F46D5
S21408101031462046A84700283FF4E8AE0134E4B23B
S2140810203B681B681B79A342F2D8B3E7A80F0720D2
S214081030860D0720CD210800FC010720F8010720AF
S214081040900D0720940D0720010C08008C0D072032
S21408105035220800880D0720E90B08009D210800A6
S214081060490D0800E10C0800012B0AD0022B7FF47A
S214081070BDAE524B5B78012B20D0032B2ED000231D
S21408108042E04E4A52780B2AF0D14C4BDB88002BB4
S2140810907FF4ACAE4A4B1B78002B3FF4A7AE474B09
S2140810A01C795D882046474B984700283FF49EAE3B
S2140810B0E9B22046444B9847034625E03F4BDB8879
S2140810C0002B7FF493AE3D4B5B88002B7FF48EAEEF
S2140810D03A4B18793D4B9847034615E0374BDB8863
S2140810E0002B7FF483AE354B5B88002B7FF47EAEF7
S2140810F0324C2079364B98472079364B984703462A
S21408110002E0002300E00023002B7FF47EAE6DE6AD
S2140811102B4B1B78002B4ED0284B1C792E4B1D686A
S2140811202B681B79A34201D800236EE600212046CF
S2140811302A4B984700283FF460AE6B6853F8245053
S214081140EB68984701462046244B984700283FF40A
S21408115054AEAB689847034600287FF456AE4CE674
S214081160174B1B780BB31C4B1A6813681B79F3B123
S21408117000241A4E184F536853F82450EB689847C3
S21408118001462046B047034600283FF43EAEAB680B
S2140811909847034600287FF438AE0134E4B23A682C
S2140811A011680979A142E6D82FE600232DE6002328
S2140811B02BE6002329E6002327E600BFA80F072012
S2140811C0900D0720750C0800E10C0800492308005C
S2140811D01927080049220800940D0720010C08006A
S2140811E02DE9F04180B90C469046002A0FDD8F188D
S2140811F0084E094D306821462B6898470134BC4292
S214081200F8D14046BDE8F0814FF0FF38F9E7804650
S214081210F7E700BFC40F0720A40F072008B5064B42
S2140812201B780BB9002008BD0846044B9847B0FA4F
S21408123080F04009404208BD9C0D0720910B08002D
S214081240054B1B780BB90B70704710B50C46034B53
S2140812509847207010BD00BF9C0D0720550A08004F
S2140812600120014B187070479C0D072070B50024AC
S2140812700A4B1C600A4A0B4B1A600B4A0B4B1A6047
S2140812800B4B98470B4E3368214698680A4DA8477B
S214081290336821465868A84770BD00BFC40F0720AA
S2140812A01D120800C00F072041120800A40F0720CF
S2140812B03D0D080078020720753B080008B5044B6A
S2140812C0984200D008BD1820024B9847FAE700BF9E
S2140812D0008000407D2F0800436823F47023436095
S2140812E04368090401F4702119434160704732B914
S2140812F000EB8100036B23F001030363704700EBE8
S2140813008100036B43F001030363704732B900EBB7
S2140813108100036B23F002030363704700EB810030
S214081320036B43F002030363704700EB81010B6B0A
S21408133023F0F0030B630B6B1A430A63704772B112
S21408134010B4144600EB81010B6B23F47F430B6348
S2140813500A6B42EA04220A63002010BC70474FF06A
S214081360FF30704710B400EB8101086B80B2086349
S2140813700C6B44EA036343EA02430B6310BC7047F2
S21408138010B489014318022444504FF0FF31996283
S214081390196A5A6010BC7047890105234350704784
S2140813A000EB8111CA61704700EB81114A627047F1
S2140813B000EB8111086A7047F0B486B002240194E5
S2140813C00824029420240394802404940A9CE40BA2
S2140813D00594B0EB510F14D84C0CA04217D2012537
S2140813E001AF57F82540B1FBF4F4260C84420AD323
S2140813F086420DD90135052DF3D1002006B0F0BC84
S21408140070470020FAE70020F8E70120F6E70025F5
S2140814102AB106A901EB850151F8141C1160002BAE
S214081420F3D01D600120E9E782B0EFF31083B3FA2A
S21408143083F35B09019372B6BFF35F8F00220C4BF0
S2140814401A70019B01210B4A116023B1084B1970D1
S214081450BFF35F8F62B60222074B1A60074A002363
S214081460136153619381064A137002B0704700BF38
S2140814707002072020C20A4060C10A40A80F072051
S214081480A40D07200522034B1A704FF40022024BC6
S2140814901A607047A40D0720F0C10A4082B00322E4
S2140814A00F4B1A70EFF31083B3FA83F35B090193BB
S2140814B072B6BFF35F8F00220A4B1A7001980A496A
S2140814C001220A60094B1A6008220A601A6028B1CD
S2140814D00122044B1A70BFF35F8F62B602B07047E2
S2140814E0A40D07207002072060C10A40F0C10A4018
S2140814F008B5024B1B6903B1984708BDA80F07201B
S21408150030B585B0EFF31083B3FA83F35B09019324
S21408151072B6BFF35F8F00224C4B1A70019B0121F5
S2140815204B4A116023B1494B1970BFF35F8F62B6FF
S214081530484B1B78032B57D0474B1B88474A948940
S214081540E41AA4B2C4B9464A11880B449BB2138065
S214081550424AD2889A424CD0424B1B78002B48D13C
S2140815603E4B5B69002B61D0984700285ED000226E
S214081570394B1A80394B9C893F2C57D90022394B56
S2140815801A704024354B9A68334B1D88EFF3108346
S214081590B3FA83F35B09029372B6BFF35F8F002139
S2140815A02A4B19700298304B1B6813F0020F41D172
S2140815B044B12A442D4B12F8011B03F8011BD9B27B
S2140815C0A142F8D3244B1A8814441C800123284AC5
S2140815D0136090321360002836D01A461B4B1A70D8
S2140815E0BFF35F8F62B62FE0224B9847224B98478F
S2140815F02AE00422174B1A70EFF31083B3FA83F32A
S2140816005B09039372B6BFF35F8F00220F4B1A7005
S214081610039A102316490B6090310B60A2B1012281
S2140816200A4B1A70BFF35F8F62B60DE001220D4BAE
S2140816301A70A7E728B10122044B1A70BFF35F8F10
S21408164062B60422034B1A7005B030BD700207203C
S21408165020C20A40A40D0720A00D0720A80F0720C7
S214081660A20D07209D0D072030C10A400000182053
S21408167060C10A40F114080029140800037D13F01D
S214081680010F13D010B50C46037D6FF300030375E6
S214081690036853B1064951F8221011F4807F18BF29
S2140816A042F0800281682046984710BD704700BF08
S2140816B000C10A40431E03EB43015F4A02EBC10226
S2140816C0127D12F0010F00F0B580F0B583B00A461F
S2140816D0594901EBC202D1689268914277D0521AF2
S2140816E0B2F5803F92BF17044FF480320027534C60
S2140816F054F8205015F4807F14D054F82050C5F3C1
S21408170002150824AC40013C144213D047F00807E1
S21408171003EB4304484D05EBC404257D6FF34105F0
S214081720257507E054F82050C5F3C125012D37D09C
S21408173047F01407424C04EB001403EB43053E4EF7
S21408174006EBC5056D6829446160EFF31081B1FAB0
S21408175081F14909019172B6BFF35F8F00253949B7
S2140817600D70019DE16811F0100F22D147F0210796
S214081770A76003EB430006EBC001C8681044C860C6
S2140817800A614FF0007000FA03F32F4A9361002DA8
S2140817904ED001222B4B1A70BFF35F8F62B647E01C
S2140817A054F82050C5F302150824AC40A242C1D80C
S2140817B0BEE72DB10121234A1170BFF35F8F62B6D1
S2140817C003EB43021C4901EBC202D16891601B4A35
S2140817D052F8202012F4807F21D003EB43021649EA
S2140817E001EBC202127D12F0020F18D00122174B2D
S2140817F043F82020303B53F8203013F4803F1CBFBA
S214081800134B43F820200122124B43F820204FF4B4
S214081810805202FA00F0A3F5F873986108E00246D1
S21408182003EB43030021044800EBC3000A4B984728
S21408183003B0F0BD704700BFA80D072000C10A40DE
S21408184000C30A407002072000C00A4060C10A4070
S21408185090C10A40F0C10A407D16080082B00146D1
S21408186028BB244B1B781BB9224B197002B0704753
S214081870214B9B7803B9FEE7EFF31083B3FA83F3A3
S2140818805B09009372B6BFF35F8F00221B4B1A707A
S2140818900098194A9378013B93700028E4D00122F7
S2140818A0164B1A70BFF35F8F62B6DDE7FEE7114B83
S2140818B01B78002BD8D1104B9B78FF2BF6D0EFF374
S2140818C01083B3FA83F35B09019372B6BFF35F8F95
S2140818D000220A4B1A700198074A937801339370CE
S2140818E00028C1D00122054B1A70BFF35F8F62B67D
S2140818F0BAE700BF9E0D07209C0F0720700207203E
S21408190010B582B0EFF31083B3FA83F35B09009344
S21408191072B6BFF35F8F0022544B1A70009C2820C3
S214081920534B9847534B9847534B502283F82823DA
S2140819304FF480725A604FF48020504B9847504BB3
S214081940D3F8002822F08072C3F80028D3F80028BD
S21408195042F00072C3F80028D3F8002822F08072FC
S214081960C3F80028D3F8002842F48052C3F80028A9
S214081970D3F8002842F40042C3F800281A6822F474
S21408198080521A601A6842F440621A60D3F8002837
S21408199022F48042C3F800281A46D2F8043813F412
S2140819A0804FFAD0374B1A7D02F0FE026FF38202A0
S2140819B01A7593F82C2002F0FE026FF3820283F861
S2140819C02C2093F8442002F0FE026FF3820283F87C
S2140819D044202B4B0222C3F80828D3F8043813F403
S2140819E0006F1CBF264BC3F80C28254BD3F80028DD
S2140819F042F00202C3F80028D3F8002842F48042D6
S214081A00C3F80028204B1B781BBB01221E4B1A70FC
S214081A1000221E4B1A701E4BDB78FF2B18D0EFF3F4
S214081A201083B3FA83F35B09019372B6BFF35F8F33
S214081A3000220E4B1A700199154AD3780133D370D9
S214081A4051B10122094B1A70BFF35F8F62B603E0EB
S214081A50FEE700200F4B98472CB10122034B1A7063
S214081A60BFF35F8F62B602B010BD00BF70020720DA
S214081A707D2F0800CD2A080000E100E0BD2F0800F1
S214081A8000C00A40A80D07209F0D07209E0D0720BE
S214081A909C0F07205D18080030B583B0EFF310835D
S214081AA0B3FA83F35B09019372B6BFF35F8F002224
S214081AB0194B1A70019C0120184B9847184AD2F8FF
S214081AC0003823F48043C2F80038D2F8043813F4F8
S214081AD0804FFAD0124B1A6822F480721A600825D2
S214081AE09D610121996110229A61042098619D6088
S214081AF0986002209860D9609A60D3F8002842F46B
S214081B008042C3F8002824B1034B1970BFF35F8FD7
S214081B1062B603B030BD00BF700207205D1808002B
S214081B2000C00A4008B50A4BD3F8002822F48042C1
S214081B30C3F800281A6842F480721A60D3F800289E
S214081B4042F48042C3F800280020024B984708BD9C
S214081B5000C00A405D1808002DE9F04385B09A4B8E
S214081B60984720B9994B5B6813F0010F0FD0974B35
S214081B705B6813F0040F14D0944B04229A60D3F8D1
S214081B80043813F4405F09D005B0BDE8F08372B698
S214081B90BFF35F8F00228E4B1A70F5E78D4B984780
S214081BA0F2E78A4B5B6813F0020F33D1874B5B680A
S214081BB013F4805F26D0884B10221A6008221A6019
S214081BC0F03B1B6813F0040F2AD1844B1B6813F0F4
S214081BD0010F05D0824B1B6813F0010F40F085807B
S214081BE07E4B1B6813F0020F40F082807B4B1B680D
S214081BF013F0080F40F03081784B1B6813F0100F75
S214081C0040F03D81774E0123704A4FF0007E4FF436
S214081C10805C7FE102226D4B9A606E4B9847B3E773
S214081C20714B1B78002B41D16C4B1B68C3F30A53CE
S214081C30082B40D16D4A6E4B6E4813F8011B02F80C
S214081C40011F8342F9D16C4B9847002839D00422EB
S214081C506A4B1A606A4B93F90030002B37DB684BE7
S214081C60DB88002B3ED00022664B1A80664B1A8013
S214081C7001215D4B19701021604B1960EFF310833A
S214081C80B3FA83F35B09019372B6BFF35F8F504BC9
S214081C901A70019B5D4A1160002B3FF475AF012254
S214081CA04B4B1A70BFF35F8F62B66DE7584B984779
S214081CB0584B9847B8E7584B984704224F4B1A603A
S214081CC062E7554B984704224C4B1A605CE70023A2
S214081CD04C4A13804C4A13800222434B1A704F4BCF
S214081CE0984751E74E4B98474EE74C4B98474BE77B
S214081CF03D4B1B78012B0BD0022B04D0042B02D0B3
S214081D00454B984701E0424B9847424B98473BE77C
S214081D10324B1868C0F30A50394B9B893A4A1488E4
S214081D2022189342BCBF1B1B98B2354B9A6878B1F1
S214081D30631E1A442E4B13F8011B02F8011FD9B272
S214081D408142F8D30444A4B22F4B1C8040280CD000
S214081D502B4B9C815B6913B1984700282ED0022232
S214081D60264B1A602E4B98470EE7254BDA88254BEC
S214081D701B8823449A42EBDD214B9B89A34251D012
S214081D801E4B02221A6010221A60EFF31083B3FA71
S214081D9083F35B09029372B6BFF35F8F00210C4B87
S214081DA01970029B19490A60002B3FF4EDAE012218
S214081DB0074B1A70BFF35F8F62B6E5E6164B984777
S214081DC002220E4B1A60DFE6D12F080000C00A4038
S214081DD070020720910D080020C20A4030C10A4050
S214081DE0C0C10A4034C10A40A40D0720A70F072027
S214081DF00000182008001820D10D080060C10A400D
S214081E00A80F0720A20D0720A00D0720F0C10A4042
S214081E10F1140800291408008514080001150800A4
S214081E209D140800A14B5B6953B1984770B1A0494F
S214081E30A04A0B88108803440B80002313809FE772
S214081E409D4B984702229D4B1A609DE69A4B9847F1
S214081E5002229A4B1A6097E60822984B1A60303B83
S214081E601B6813F0010F7FF48FAE954B1B78032B7E
S214081E707FF48AAE4FF40022924B1A6084E6102252
S214081E808E4B1A60303B1B6813F0020F7FF47CAE53
S214081E908B4B1B78012B07D0042B7FF475AE4FF4C1
S214081EA00022884B1A606FE6874B98476CE6874B8C
S214081EB003EB0013DA6812F0010F7FF465AE844A6C
S214081EC05161DD682D0C08D0824B7900CC1903EBE4
S214081ED0C404E268521BE260A2607F4B984753E650
S214081EE07E4B012249F80320744949F801204FF433
S214081EF0804249F8032007EB470702460021754849
S214081F0000EBC700764B98473EE601330436042BB1
S214081F1000F0F680D8B21D465F1EB84614690EFA61
S214081F2007F10C4202D054682142C0D111690CFA5C
S214081F3005F52942E9D04FEA830906F19004D6F858
S214081F40901011F0010F03D0316811F0010FC7D1BE
S214081F50216811F4805FD8D0316811F4405FD4D17D
S214081F604FF480525D4B49F80320A3F508735D6172
S214081F7008EB4808574B03EBC80898F814206FF38B
S214081F80820288F81420574A59F8023023F400735E
S214081F9049F802304B4B4FF4002249F803204FF41F
S214081FA0802249F80320EFE5494C0823A360494EF0
S214081FB00122114630464A4DA8470222012106F161
S214081FC01800A8470322012106F13000A847464B0F
S214081FD09847236823F07F032360236843F0800331
S214081FE02360404A136823F4CB5323F01C0343F0C2
S214081FF030031360136843F002031360E36943F089
S2140820000103E361EFF31083B3FA83F35B090393E9
S21408201072B6BFF35F8F0022344B1A70039A294BAF
S21408202004211960022119604FF48053A3612AB174
S21408203001222E4B1A70BFF35F8F62B62C4B98475F
S214082040A2E5234BD3F8002822F48042C3F80028E0
S21408205001225A6110229A61D3F8002842F480427D
S214082060C3F800280020234B98478DE5184BD3F873
S214082070043813F0020F3FF487AD154BD3F8002849
S21408208022F48042C3F800280222C3F80828D3F8AE
S214082090002842F48042C3F80028D3F8043813F422
S2140820A0006F14BF144B154B98476DE5A80F072013
S2140820B0A20D0720A00D07208514080060C10A405D
S2140820C0A40D0720F0C10A409D14080000C30A406A
S2140820D000C00A40A80D0720B516080020C20A400E
S2140820E07D16080000C10A40490D08007002072046
S2140820F0291408005D180800991A0800251B08000E
S214082100194B5B6813F0080F7FF44EAF164B1B692C
S21408211013F0010F04D0144B5B6813F0010F90D135
S214082120114B1B6913F0100FA0D00F4B5B6813F010
S214082130100F9BD00C4AD2F8003823F48043C2F81C
S21408214000381346D3F8042812F4804F03D15A688F
S21408215012F0010FF6D0044B10225A610120986144
S214082160024B984710E500BF00C00A405D180800FB
S21408217000207047084B1A6822F080021A601A6816
S21408218022F07F0200F07F0002431A601A6842F0CD
S21408219080021A60704700BF00C00A40024B1868E9
S2140821A000F07F00704700BF00C00A40024B186A64
S2140821B0C0F3CA00704700BF00C00A40024B186A46
S2140821C0C0F30D00704700BF00C00A40014B98607E
S2140821D099817047A80F072000F00F02032A00D93C
S2140821E0704770B51048C369012101FA02F423EA62
S2140821F00403C36100F5807050F8223023F0020310
S21408220040F82230561E094C06FA01F5A81904EBC8
S214082210C000074B9847354404EBC504237D6FF38D
S2140822208203237570BD00BF00C00A40A80D0720B2
S2140822307D16080000F00F00024B53F82000C0F38C
S214082240C0407047C0C10A4000F00F03032B5DD89A
S214082250354A52F8232012F4002F59D110B483B00F
S214082260591E01EB4104314A02EBC402127D12F0FA
S214082270040F4FD112F0010F50D1EFF31082B2FACB
S21408228082F25209019272B6BFF35F8F0024284A81
S2140822901470019C10F0800F18D1264951F823209D
S2140822A022F4007241F823204021234A42F82310E2
S2140822B04FF40021903242F82310002C32D001202F
S2140822C01B4B1870BFF35F8F62B624E01B4A52F8A8
S2140822D0232012F4405FE0D001EB4101134A02EBE1
S2140822E0C1010A7D42F004020A754FF4805214496F
S2140822F041F8232002FA03F3124A936184B10120BD
S2140823000B4B1870BFF35F8F62B604E0002070476F
S21408231001207047012003B010BC70470020FAE780
S2140823200120F8E70120F6E7C0C10A40A80D0720FB
S2140823307002072000C10A4060C10A4030C10A4046
S214082340F0C10A4000C00A4000F00F00032851D828
S21408235010B5431E03EB43012C4A02EBC102127D63
S21408236012F0040F48D00A46284901EBC202117D34
S2140823706FF38201117582004FF48051244C44F8A3
S21408238020108140A4F508746161224951F8201094
S21408239011F4002F14D02049515811F0400F06D0E0
S2140823A040201E4950504FF48020903150504FF432
S2140823B00020174950501A48115841F4007111501E
S2140823C003EB4302114901EBC202127D12F0010F22
S2140823D001D1012010BD08465900CA1800EBC202F8
S2140823E0147D6FF3000414750B4450F83330984787
S2140823F0012010BD002070478200064951F82010C1
S21408240011F4002FC7D1012010BD00BFA80D07206A
S21408241020C20A40C0C10A4030C10A4060C10A4012
S21408242000C10A4000F00F00032864D8F0B583B056
S214082430364CE569012484402C425ED0344C54F86E
S214082440204014F4002F5BD1441E04EB4406314DA3
S21408245005EBC6052D7D15F0040F53D1EFF3108557
S214082460B5FA85F56D09019572B6BFF35F8F00263C
S214082470294D2E70019F04EB4405264E06EBC50534
S2140824802D7D15F0010F09D0002F3DD00122224BDB
S2140824901A70BFF35F8F62B600202FE004EB440586
S2140824A01C4E06EBC5052E7D46F001062E752FB18F
S2140824B00126194D2E70BFF35F8F62B6154F04EBD9
S2140824C04405ED007E197260B3600022F260326146
S2140824D0089A7A5111B9B3FA83F1490904EB44040E
S2140824E00C4B03EBC404237D61F3410323750B4BAC
S2140824F09847012002E000207047002003B0F0BD96
S2140825000020FBE70020F9E70020F7E700C00A40B4
S214082510C0C10A40A80D072070020720B51608009B
S2140825202DE9F04F83B000F00F04032C00F2DF8093
S214082530744BDD690123A3402B4040F0DD8011F089
S214082540030500F0DB80022D20D9032D40F0D6804D
S2140825504FF0000E6C4E06EB840556F8247027F4F0
S214082560CB5727F01C07C90201F4C05140B2002817
S214082570B8BF4FF48073A2F5806080B2B0F57C4F88
S21408258007D3082A24D95200013A04E04FF0010E76
S214082590E0E740F2FF72B2FA82F241EA8E0119438E
S2140825A0C2F11C0341EA031323F4D06323F00303A8
S2140825B0DB04DB0C3B4346F824300127A740BFB2B8
S2140825C0022C1CD8514A03234E484FF0010E06E051
S2140825D00F22E0E7013B043AD9B28C420FD2C66913
S2140825E00EFA03F10E42F5D00F43BFB2C66926EACB
S2140825F00101C161116821F002011160EAE704EBEC
S2140826004403434E06EBC306DFF80491DFF8F48074
S214082610DFF800A11DE001EB41033D4A52F83340C4
S214082620002C6DD02B6813F4807F18BF40F0800014
S21408263001EB4101364B03EBC1010246C968012094
S214082640A047002354E0013404351836E3B2032BC0
S2140826504BD8E0B247FA04F313F0010FF3D0611E2B
S21408266001EB410309EBC30393F814E00EF00102F3
S2140826706FF3000E83F814E02B6843F002032B6018
S214082680D8F81CE00123A34043EA0E03C8F81C3020
S2140826902B6B13F4802FBED02B6843F400732B608B
S2140826A0002AD0D056F80C3C56F8082C9A1A46F849
S2140826B00C2C2B6813F4807F18BF40F0800056F867
S2140826C010BC56F814CC01EB410109EBC101097D99
S2140826D056F8183C0093ABEB02036244C1F3400182
S2140826E0D04703460028AED102E0012300E00023CD
S2140826F0184603B0BDE8F08F0023F9E70023F7E794
S2140827000023F5E700C00A4000C10A400CC10A4091
S214082710A80D07202524080070B500F00F02541EE7
S2140827204FF00073A34016494B61164B03EB021398
S21408273000259D604FF4805393404B6110F0800F46
S21408274008D104EB440401210F4800EBC4000F4BEA
S214082750984770BD93000E4818440E4D1D444FF41C
S214082760005601F5E071194404E02E600B6813F476
S214082770005FFBD1036813F4405FF6D1E1E700BFC2
S21408278000C00A4000C30A40A80D07207D160800AE
S21408279030C10A40F0C10A400138022815D82DE990
S2140827A0F0410E4614469AB10D46DFF838800C4FB5
S2140827B0D8F8000015F8011B3B68984700280ADB84
S2140827C0A81B013CF4D1BDE8F0814FF0FF307047FC
S2140827D01046BDE8F0814FF0FF30BDE8F08100BF3D
S2140827E0C00F0720C40F07200068C0F303207047F7
S2140827F008B5120202F470621143024B9847002093
S21408280008BD00BF8500072008B50368090201F463
S214082810706123F470631943014B984708BD00BFE5
S21408282085000720A1F10E03012B02D84FF0FF30D8
S214082830704710B582B0EFF31083B3FA83F35B09E1
S214082840019372B6BFF35F8F00240B4B1C70019C7C
S214082850120222F07F4222F0FF0242F0B442C9B2CE
S2140828601143064B98472CB10122034B1A70BFF34D
S2140828705F8F62B602B010BD70020720890007207D
S21408288030B4B1F5402F0DD3A1F54024C4F30F247E
S214082890C9B2084D00B1056002B1148003B11980B1
S2140828A030BC7047A1F50024C4F30F24C9B2024D0A
S2140828B0F0E700BF000C0E40000A0E4070B5054653
S2140828C00E460A4601460448044CA04732462946A6
S2140828D00348A047002070BD000A0E40F1270800F4
S2140828E0000C0E402DE9F04F85B08B4692460093BB
S2140828F002AB0DF10A02014603A8334CA047039821
S214082900324B9847019006210398314B9847BAF105
S214082910000F50D0DFF8C48008F1FC0513E0BDF8BE
S2140829200A20012103982B4B9847002848D1BB441E
S214082930BDF80A300133ADF80A300023ADF8083088
S214082940BAEB070A37D0BDF80860C6F58077574552
S21408295028BF5746BDF80A30039A1F498A420CBF5B
S21408296003F5006303F540631C02324621464046E1
S214082970DFF86C90C8473A46594608EB0600C84741
S214082980F019C6F58072D21B92B201194044C847A6
S214082990A8F10403043C53F8042F44F8042FAB4270
S2140829A0F9D1009B002BBAD0BDF80A200321039862
S2140829B0084B9847B9E701990398054B98470020B4
S2140829C005B0BDE8F08F00BF81280800E927080099
S2140829D00928080025280800000A0E40F00D0720E0
S2140829E0ED39080030B583B020F47F5020F03F0062
S2140829F06FEA91346FEA843402B1106003B11C6048
S214082A0000230DF10202014601A8114DA847002334
S214082A106A4621461846A847BDF80220BDF8003089
S214082A20934213D908250B4C29460198A04701461E
S214082A3048B9BDF80220403292B2ADF80220BDF87F
S214082A4000309342F0D8084603B030BD0021FAE7BC
S214082A50812808002528080030B583B020F47F5068
S214082A6020F03F006FEA91346FEA843402B11060B8
S214082A7003B11C6000230DF10202014601A8114DA6
S214082A80A84700236A4621461846A847BDF80220EC
S214082A90BDF80030934213D909250B4C29460198F6
S214082AA0A047014648B9BDF80220403292B2ADF8B8
S214082AB00220BDF800309342F0D8084603B030BD77
S214082AC00021FAE7812808002528080008B5044BE5
S214082AD098470020034B9847034B984708BD00BF0C
S214082AE0652F08009D2F0800B12F080010B50E4866
S214082AF00E4B98473E2100200D4B98470D4CA0479B
S214082B000028FCD00C4B98470C4A0D4B9A620D4C8B
S214082B10A0470028FCD010200B4B98470B4B984733
S214082B200148024B984710BD00BD01054901072022
S214082B30E12E0800352F0800452F0800013F0D201C
S214082B4000060E40552F08007D2E08007D30080030
S214082B5010B54FF40042164B5A600B20154CA04790
S214082B600C20A0470D20A0470E20A0474FF060512C
S214082B703B20114CA0474FF060515520A0474FF01E
S214082B8060515620A0470D496820A0470C495C2094
S214082B90A0470C4A4FF440710B480C4B98474FF02F
S214082BA000612B20A0474FF000612A20A04710BDE7
S214082BB0501A0E407D2F0800712C08007900002856
S214082BC00100002801000008000E0E40412D0800F4
S214082BD04264B1F1805F16D00BD849B1B1F1006FED
S214082BE005D1036F016F0B4023EA020303674260B7
S214082BF07047B1F1405FFBD0B1F1605FF8D0B1F13A
S214082C00205FF4D17047036F13430367EFE741640F
S214082C1012F0010F14BF4166016612F00A0F14BFC6
S214082C200162416212F0020F07D112F0080F18BFB6
S214082C30C0F88410416101607047C0F88010F9E759
S214082C4010B4019C416444B9016643B1016542B9B8
S214082C5041630161016010BC70474166F5E7416554
S214082C60F5E70163F5E7C06C7047806C70470000B5
S214082C7070B582B00D46430903F5001303F20773D7
S214082C805C0201F0F043B3F1205F31D016D8B3F1FF
S214082C90006F1BD0B3F1805F16D100F01F0001262D
S214082CA0864032464FF080512046224B984715F012
S214082CB0010F14BF66662666012017E0B3F1405F71
S214082CC021D0B3F1605F1ED000200FE000F01F0097
S214082CD00126864032464FF000612046154B98473D
S214082CE015F0010F14BF66662666012002B070BD97
S214082CF000F01F0101262A4606FA01F120460E4B6F
S214082D0098473046F2E705F0605200F01F010126AA
S214082D1005EA06030093C5F38003B2F1605F14BFAB
S214082D200022012206FA01F12046044CA04730464C
S214082D30DCE700BFD12B08000F2C0800412C080048
S214082D4070B582B005460E46144602F0F043B3F15D
S214082D50205F27D011D8B3F1006F16D0B3F1805F8B
S214082D6011D10A464FF08051194B984714F0010FBD
S214082D7014BF6E662E66012012E0B3F1405F15D0D0
S214082D80B3F1605F12D000200AE00A464FF00061F7
S214082D900F4B984714F0010F14BF6E662E6601207D
S214082DA002B070BD0B4B98470120F9E704F060525B
S214082DB004F001030093C4F38003B2F1605F14BF0C
S214082DC00022012231462846034CA0470120E7E7A7
S214082DD0D12B08000F2C0800412C08002DE9F041E3
S214082DE0044688460E4B9847054620460D4B98479E
S214082DF0054013D00C4C04F1600603E0B4420DD035
S214082E0010345DB120684045F8D161682942F5D094
S214082E10E3689847636825EA0305EFE7BDE8F081AD
S214082E20672C08006B2C0800F00E072008B50B214D
S214082E300148024B984708BD000E0E40DD2D0800DD
S214082E4008B50C210148024B984708BD00100E40F3
S214082E50DD2D080008B50D210148024B984708BD2E
S214082E6000120E40DD2D080008B50E210148024B61
S214082E70984708BD00140E40DD2D0800174A136B4E
S214082E8023F0700318431063936E13F0080F0AD1EB
S214082E904FF4006311498A6E12F0080F03D1013B04
S214082EA0F9D1012070470D4A136B23F0030343F052
S214082EB002031363936E13F0080F0AD14FF40063EE
S214082EC006498A6E12F0080F05D1013BF9D1012098
S214082ED07047002070470020704700BF00060E406D
S214082EE0C8B9114A136A090289B223F45C1323F09D
S214082EF0030343F45C1343F001030B431362936E1E
S214082F0013F0010FFBD0084A136A43F09B7343F48F
S214082F1080331362704704490B6A044A1A40044B0C
S214082F2013430B62704700BF00060E40FCFFC8FE46
S214082F3002003701024B986E00F48030704700BFDD
S214082F4000060E404FF00052014B9A62704700BFD1
S214082F5000060E40024B986E00F00200704700BF55
S214082F6000060E404FF44412034BDA611A46936E7D
S214082F7013F0400FFBD0704700060E4000F07F00AD
S214082F80054BC3F80C01D3F80C2142F01022C3F805
S214082F900C210020704700BF00060E40000200F417
S214082FA0706040F00100014B9863704700060E40C1
S214082FB02022014B1A60704700060E40034B1A6F1A
S214082FC0C0F3120010431867704700BF00060E4093
S214082FD0024B187880F00100704700BF600F07208A
S214082FE0FEE7000008B51C4B1C4A9A4210D01C4B42
S214082FF0194A9A420CD2013B9B1A23F00303043366
S2140830001344164951F8040B42F8040B9A42F9D1B6
S214083010144B154A9A420AD2013B9B1A23F0030323
S21408302004331344002142F8041B9342FBD10F4B90
S21408303023F0604222F07F020D498A6003F1604364
S214083040B3F5801F03D28B6843F000538B60094B9F
S2140830509847094B9847FEE7000007207C8508003C
S214083060280C0720F00F0720280C0720000008006F
S21408307000ED00E09D390800013208003D4B1B6B4F
S21408308003F00303032B0ED8DFE803F0021C3838DE
S214083090394B5B6913F0800F14BF4FF400424FF4AE
S2140830A0FA42364B1A60334B1B6B03F07003702BD7
S2140830B057D0304B1A6B3149C2F302120B68D34013
S2140830C00B6070472B4B1B6A13F0807F03D02C4A8B
S2140830D02A4B1A60E7E72B4A284B1A60254B1B6ACF
S2140830E003F07003102B05D0202BDCD1244A234B89
S2140830F01A60D8E7244A214B1A60D4E71D4B1B6A8E
S21408310013F0807F0CD01E4A1C4B1A60194B1B6BA1
S21408311003F00303022B16D01C4A184B1A60C2E7AA
S214083120184A164B1A60134B1B6A03F07003102BD1
S21408313005D0202BEAD1124A104B1A60E6E7124A4D
S2140831400E4B1A60E2E70B4A916A926A0B48C1F383
S2140831500A41036801FB0333D2B2B3FBF2F3036000
S214083160A1E7064A13680A49A1FB03135B08136024
S214083170704700BF00060E40101A0E407402072063
S214083180001BB70000093D0000127A00001C4E0E16
S214083190ABAAAAAA0A4B1B6853B1094B1B681A1894
S2140831A00849914208DB1046054A106018467047E1
S2140831B0054A034B1A60F0E74FF0FF30704700BF30
S2140831C0640F0720FC7F0820F02F07204FF0FF3001
S2140831D070474FF400534B6000207047002070473C
S2140831E0017851B170B504460026044D3046A8470C
S2140831F014F8011F0029F9D170BD70471D12080088
S21408320080B5A8B0344B9847344B9847344B98470A
S214083210344B9847344B24AC0FCB84E80F004FF45C
S2140832207A60324B984710212046314B9847102138
S21408323020A8304B9847304C2498A04780468946AB
S2140832402E4F2798A047CDE904012698A047CDE938
S21408325002012598A047CDE9000142464B4639466B
S21408326007A8274EB04707A8264DA8472098A04786
S214083270804689462398A047CDE904012298A047AE
S214083280CDE902012198A047CDE9000142464B4608
S214083290394607A8B04707A8A8471B4B98471B4CB2
S2140832A01B4F1C4E11E00DF11A0106A8B847BDF8D1
S2140832B01A30BDF81820314607A8114DA84707A8A8
S2140832C0104B9847FA20094B9847E36B13F0020F08
S2140832D0E9D0114B0793F2E7DD0408003102080035
S2140832E06D12080061120800988208006101080043
S2140832F0B10108009D010800E5350800A88208000D
S214083300153D0800E13108000503080000140E40CA
S214083310DD030800B8820800750A0D0081F0004138
S21408332002E000BF83F0004330B54FEA41044FEA9D
S214083330430594EA050F08BF90EA020F1FBF54EA38
S214083340000C55EA020C7FEA645C7FEA655C00F0D4
S214083350E2804FEA5454D4EB5555B8BF6D420CDDA5
S2140833602C4480EA020281EA030382EA000083EA28
S214083370010180EA020281EA0303362D88BF30BDC8
S21408338011F0004F4FEA01314FF4801C4CEA11311E
S21408339002D0404261EB410113F0004F4FEA03337D
S2140833A04CEA133302D0524263EB430394EA050F08
S2140833B000F0A780A4F10104D5F1200E0DDB02FA77
S2140833C00EFC22FA05F2801841F1000103FA0EF20B
S2140833D0801843FA05F359410EE0A5F120050EF1D1
S2140833E0200E012A03FA0EFC28BF4CF0020C43FA02
S2140833F005F3C01851EBE37101F0004507D54FF00F
S214083400000EDCF1000C7EEB00006EEB0101B1F55E
S214083410801F1BD3B1F5001F0CD349085FEA3000A4
S2140834204FEA3C0C04F101044FEA445212F5800FAF
S21408343080F09A80BCF1004F08BF5FEA500C50F14C
S214083440000041EB045141EA050130BD5FEA4C0C2F
S214083450404141EB010111F4801FA4F10104E9D1B8
S21408346091F0000F04BF01460020B1FA81F308BFAF
S2140834702033A3F10B03B3F120020CDA0C3208DD7B
S21408348002F1140CC2F10C0201FA0CF021FA02F156
S2140834900CE002F11402D8BFC2F1200C01FA02F1C6
S2140834A020FA0CFCDCBF41EA0C019040E41AA2BFEB
S2140834B001EB0451294330BD6FEA04041F3C1CDAB3
S2140834C00C340EDC04F11404C4F1200220FA04F0D3
S2140834D001FA02F340EA030021FA04F345EA03017D
S2140834E030BDC4F10C04C4F1200220FA02F001FA3F
S2140834F004F340EA0300294630BD21FA04F02946C1
S21408350030BD94F0000F83F4801306BF81F4801159
S2140835100134013D4EE77FEA645C18BF7FEA655CCC
S21408352029D094EA050F08BF90EA020F05D054EA9E
S214083530000C04BF1946104630BD91EA030F1EBFA3
S2140835400021002030BD5FEA545C05D140004941A7
S21408355028BF41F0004130BD14F580043CBF01F59A
S214083560801130BD01F0004545F0FE4141F4700180
S2140835704FF0000030BD7FEA645C1ABF194610465B
S2140835807FEA655C1CBF0B46024650EA013406BF5C
S21408359052EA033591EA030F41F4002130BD00BF1B
S2140835A090F0000F04BF0021704730B54FF48064D8
S2140835B004F132044FF000054FF0000150E700BF59
S2140835C090F0000F04BF0021704730B54FF48064B8
S2140835D004F1320410F0004548BF40424FF00001A5
S2140835E03EE700BF42004FEAE2014FEA31014FEAE8
S2140835F002701FBF12F07F4393F07F4F81F0605137
S214083600704792F0000F14BF93F07F4F704730B5A5
S2140836104FF4607401F0004521F0004120E700BF38
S21408362050EA010208BF704730B54FF000050AE0BF
S21408363050EA010208BF704730B511F0004502D5C0
S214083640404261EB41014FF4806404F132045FEAC2
S214083650915C3FF4DCAE4FF003025FEADC0C18BF67
S21408366003325FEADC0C18BF033202EBDC02C2F15D
S214083670200300FA03FC20FA02F001FA03FE40EAEF
S2140836800E0021FA02F11444C1E600BF53B94AB944
S214083690002908BF00281CBF4FF0FF314FF0FF304D
S2140836A000F07AB9ADF1080C6DE904CE00F006F822
S2140836B0DDF804E0DDE9022304B070472DE9F047A1
S2140836C08C460E460446089D002B50D18A42174663
S2140836D06CD9B2FA82FEBEF1000F0BD0CEF1200CE8
S2140836E001FA0EF620FA0CFC02FA0EF74CEA060C63
S2140836F000FA0EF43A0CBCFBF2F9BBB202FB19CC8A
S21408370009FB03FA4FEA144848EA0C46B2450AD9B8
S214083710F61909F1FF3180F02581B24540F2228181
S214083720A9F102093E44A6EB0A06B6FBF2F002FB34
S214083730106600FB03F3A4B244EA0644A34209D980
S214083740E41900F1FF3280F00B81A34240F20881B1
S21408375002383C440021E41A40EA0940002D62D0B1
S214083760002324FA0EF42C606B60BDE8F0878B42C9
S21408377007D9002D55D0002185E841000846BDE848
S214083780F087B3FA83F1002940F08F80B34202D362
S214083790824200F2FC80841A66EB03060120B446D7
S2140837A0002D40D085E81010BDE8F08712B9012733
S2140837B0B7FBF2F7B7FA87FEBEF1000F35D1012145
S2140837C0F61B4FEA174C1FFA87F8B6FBFCF20CFB01
S2140837D0126608FB02F0230C43EA0646B04207D9F5
S2140837E0F61902F1FF3302D2B04200F2D2801A462E
S2140837F0361AB6FBFCF00CFB106608FB00F8A3B202
S21408380043EA0644A04507D9E41900F1FF3302D27B
S214083810A04500F2B9801846A4EB080440EA024026
S2140838209CE729462846BDE8F08707FA0EF7CEF14A
S214083830200326FA03F24FEA174CB2FBFCF11FFAF4
S21408384087F80CFB112206FA0EF620FA03F301FBA2
S21408385008F933431E0C46EA0246B14500FA0EF450
S21408386009D9F61901F1FF3280F08C80B14540F293
S214083870898002393E44A6EB0906B6FBFCF00CFB31
S214083880106200FB08F99EB246EA0246B14507D91F
S214083890F61900F1FF3371D2B1456FD902383E44AC
S2140838A0A6EB090640EA01418FE7C1F1200722FA94
S2140838B007F88B4048EA030326FA07F44FEA134E44
S2140838C0B4FBFEF91FFA83FC0EFB19448E4020FA5F
S2140838D007F809FB0CFA48EA06084FEA184646EACB
S2140838E00444A24502FA01F200FA01F608D9E418DF
S2140838F009F1FF3044D2A24542D9A9F102091C4475
S214083900A4EB0A04B4FBFEF00EFB104400FB0CFC10
S2140839101FFA88F848EA0444A44507D9E41800F1D1
S214083920FF3E29D2A44527D902381C4440EA09405C
S214083930A0FB0289A4EB0C0CCC45C246CE4615D398
S21408394012D055B1B6EB0A036CEB0E0606FA07F76B
S214083950CB401F43CE402F606E600021BDE8F08745
S2140839601046F7E68946DEE64645EAD2B8EB020A8E
S21408397069EB030E0138E4E77046D7E718468FE789
S2140839808146BDE7114676E702383C4444E70846D8
S21408399006E7023A3E442BE7704700BF70B50F4E65
S2140839A00F4D761BB61018BF002405D0013455F805
S2140839B0043B9847A642F9D10A4E0B4D04F0C8FDC1
S2140839C0761BB61018BF002406D0013455F8043B01
S2140839D09847A642F9D170BD70BD00BF5C85080047
S2140839E05C850800648508005C850800844641EA12
S2140839F0000313F0030349D1403A23D30B6803604E
S214083A004B6843608B688360CB68C3600B6903614F
S214083A104B6943618B698361CB69C3610B6A036237
S214083A204B6A43628B6A8362CB6AC3620B6B03631F
S214083A304B6B43638B6B8363CB6BC3634030403104
S214083A40403ADBD230320BD30B6803604B684360D6
S214083A508B688360CB68C36010301031103AF3D29D
S214083A600C3205D351F8043B40F8043B043AF9D22B
S214083A70043208D0D2071CBF11F8013B00F8013BFE
S214083A8001D30B8803806046704700BF082A13D30B
S214083A908B07B1D010F00303AED0C3F10403D21ADB
S214083AA0DB071CBF11F8013B00F8013BA4D331F833
S214083AB0023B20F8023B9FE7043AD9D3013A11F8B3
S214083AC0013B00F8013BF9D20B7803704B78437042
S214083AD08B7883706046704770B4860746D0541E4D
S214083AE0002A41D0CAB2034602E014F1FF343BD3A1
S214083AF003F8012B9D07F8D1032C2ED9CDB245EA41
S214083B0005250F2C45EA054519D9264603F1100266
S214083B10103E0F2E42F8105C42F80C5C42F8085C27
S214083B2042F8045C02F11002F2D8A4F1100222F066
S214083B300F0204F00F041032032C13440DD91E464E
S214083B402246043A032A46F8045BFAD8221F22F0D3
S214083B5003020432134404F003042CB1C9B21C4413
S214083B6003F8011B9C42FBD170BC70471446034601
S214083B70C2E700BF00290CBF022200224FF4806370
S214083B8000F000B82DE9F043614D83B02D68044677
S214083B900F4690461E4615B1AB6B002B64D0B8F1A5
S214083BA0020F06D0B8F1010F00F29F80002EC0F277
S214083BB09C80636ED80734D52146284602F0B2FBAF
S214083BC0216B41B104F14003994202D0284602F025
S214083BD0A7FC002323630022B4F90C30A2616260BC
S214083BE01A063AD423F44A6323F00303B8F1020F03
S214083BF0A3811DD001AB6A462146284602F0B4FDD3
S214083C00A3891843A081002E32D1009E304602F0C8
S214083C10D9FD074600286BD0A38943F08003A3810B
S214083C2028E0A3899905C7D4A06D02F099FDC3E7DB
S214083C30002500260120616E04F1430243F00203CA
S214083C40A660CE07A38160612260226101D4980530
S214083C503ED5284603B0BDE8F0832169284602F021
S214083C605FFCB4F90C30BDE7284602F0B3FB96E7D4
S214083C70002FCBD0AB6B002B33D0009BB4F90C20B5
S214083C809E421CBF42F40062A281B8F1010F04BF35
S214083C9042F00102A28192B212F00803276027615F
S214083CA066610ED0D1071AD50023656E764215F0E8
S214083CB00105A661A36009D00025284603B0BDE823
S214083CC0F083A360656E15F00105F5D19305C0D4A1
S214083CD0A06D02F047FD284603B0BDE8F083A66055
S214083CE0F0E7284602F076FBC7E74FF0FF35B0E767
S214083CF0DDF80090B14504D0484602F063FD07465B
S214083D0020B9B4F90C304FF0FF3592E74E4683E7FA
S214083D10780207200EB40146F0B56FF000454FF460
S214083D2002774FF6FF769CB021AC54F8042B0B4B69
S214083D3002910691186802A923460194ADF81470FA
S214083D4004950795ADF8166000F00AF80022029B65
S214083D501A701CB0BDE8F04003B070477802072020
S214083D602DE9F04FC3B00C460B9192460F930C907A
S214083D7002F0E4FC036818461A9303F071FBA38963
S214083D801990190603D52369002B01F03580002306
S214083D900DF1C809C84615931393149318931B93EB
S214083DA009931693179327932693CDF894909AF829
S214083DB000305446EBB1252B02D11AE0252B03D050
S214083DC014F8013F002BF9D1A4EB0A058DB1269B08
S214083DD0279A01332A44072BC8F800A0C8F80450CD
S214083DE02792269300F38A8008F10808099B2B443B
S214083DF009932378002B00F0898000234FF0FF30CA
S214083E001A468DF8773019460D939B46637804F169
S214083E10010A0A900AF1010AA3F12000582800F2C4
S214083E20B783DFE810F04C03B503B5035403B503B6
S214083E30B503B503B503B503B50359005903B50370
S214083E4066001402B5032F02A503A503A503A50360
S214083E50A503A503A503A503A503B503B503B503E5
S214083E60B503B503B503B503B503B503B5038B02B0
S214083E70D302B503D302B503B503B503B5031B03D5
S214083E80B503B5032003B503B503B503B503B503FA
S214083E903402B503B5034B02B503B503B503B50342
S214083EA0B503B503B503B503B503B50376029E039C
S214083EB0D302D302D30263039E03B503B503680394
S214083EC0B5037503DD018C035E03B503F201B50384
S214083ED08700B503B50332030F9C236818460D9375
S214083EE02346002803F104030F9304DA0D9B5B4274
S214083EF00D934BF0040B9AF800308BE725AA0B9924
S214083F000C9803F0DBFA40B9C8466FE7279B23B145
S214083F100C9825AA0B9903F0D1FA0B9B9B8913F0F2
S214083F20400F099B18BF4FF0FF330993099843B019
S214083F30BDE8F08F1BF0200F119340F0AF810F9A69
S214083F401BF0100F134640F09A851BF0400F00F048
S214083F50968500250123148804320F9200221746FE
S214083F608DF877200A994A1C00F010822BF0800200
S214083F70079254EA050240F00F82002940F0318487
S214083F80002B40F039851BF001030E9300F0628683
S214083F90302342AE06F8413D0A9B0E9A9342B8BFBC
S214083FA0134608930023129317B1089B013308930E
S214083FB0079B13F00203109302D0089B0233089362
S214083FC0079B13F0840540F010830D9B089AA3EB1B
S214083FD0020BBBF1000F40F30883BBF1100F40F350
S214083FE0B287279C43462146A8461027269A0C9C4B
S214083FF00B9D06E0ABF1100BBBF1100F03F10803A5
S21408400018DD0132AB481031072A2791269283E83B
S2140840108100EFDD25AA2946204603F04FFA00283E
S2140840207FF47BAFABF1100BBBF1100F4B46279913
S214084030269AE6DC45460C46984601329D4B5C447B
S214084040072A2794269288E8080800F3C3829DF872
S214084050777008F1080887B10121269B0C440B44A9
S2140840600DF17702072B27942693C8F80410C8F892
S214084070002000F3CD8308F10808109B7BB10221CD
S214084080269B0C4401331EAA072B27942693C8F8B0
S2140840900410C8F8002000F3118408F10808802DE1
S2140840A000F004830A9B0E9A9F1A002F37DD102F04
S2140840B040F37986804D42462146B0464FF0100BB5
S2140840C02E46269B0C9C0B9D04E0103F102F02F1F9
S2140840D0080215DD01331031072B2791269382E855
S2140840E04008F2DD25AA2946204603F0E7F900280D
S2140840F07FF413AF103F102F4A462799269BE9DC1A
S21408410035460C464646904601333C44072B2794D2
S214084110269388E8A00000F3708308F10808079B38
S214084120DF0500F16482269B0E9901330C44072BA9
S2140841302794C8F80060C8F80410269300F3B383E1
S21408414008F10808079B5B073BD50D9B089A9D1A44
S214084150002D36DD102D40F321871026269B0C9F58
S214084160DDF82CB004E0103D102D08F1080816DD27
S2140841700133504A1034072B2794269388E84400C6
S214084180F1DD25AA5946384603F098F900287FF449
S214084190C4AE103D102DC846279C269BE8DC01338C
S2140841A0444A2C44072B2794269388E8240008DDE5
S2140841B025AA0B990C9803F081F900287FF4ADAE78
S2140841C0279C099B0D9A08998A42ACBF9B185B18D6
S2140841D00993002C40F0FB820023C8462693E6E5A8
S2140841E011931BF0200340F045811BF0100240F0AD
S2140841F066841BF0400300F062840F9913460A4653
S21408420004320C8800250F92A8E600250F9A119311
S21408421016688DF87750141D002E00F0CD860A9A81
S214084220531C00F01B862946304602F075FD002810
S21408423000F00D87831B0A950E930F94CDF81CB0DB
S21408424023EAE373089312959DF87770ACE69AF81C
S21408425000300AF101042A2B00F0C287A3F13000CF
S2140842600928A24600F2188700231C461AF8013BC4
S21408427004EB840400EB4404A3F130000928F5D9C4
S2140842800A94C9E54BF0800B9AF80030C2E54BF06B
S214084290100B1BF0200F11933FF451AE0F9C073400
S2140842A024F0070303F10802D3E900450F9201231F
S2140842B054E600BF10830800208308001193002AE4
S2140842C040F0AD87BE4B1BF0200F189340F0E780F8
S2140842D00F9A1BF0100F134640F0D8831BF0400FC0
S2140842E000F0D4830025043314880F931BF0010FC5
S2140842F000F0E38054EA050300F0DF8030239DF8E1
S21408430044208DF878308DF879204BF0020B022384
S21408431024E601221193002311460F98089202689A
S2140843201F468DF877300A931293031DCDF81CB0FC
S2140843300E918DF8A0200F9328AE39E61193002A27
S21408434040F084874BF0100B1BF0200F40F075846C
S2140843500F9A1BF0100F134640F09D831BF0400F7A
S21408436000F09983B2F900400433E5170F9322460C
S2140843702B46002A73F10003C0F298830A999DF829
S21408438077704A1C4FF001037FF4F0AD54EA05023B
S21408439000F02982CDF81CB0012B00F00E83022B0A
S2140843A040F09C824E461898230943EA057329096B
S2140843B004F00F020D461C46835C06F8013D54EADD
S2140843C00503F1D1A9EB06030E93E5E51193002A40
S2140843D040F038870F9C1BF0080F04F1070400F024
S2140843E0CF8424F0070303F108020F921A685B686B
S2140843F015921493149B159D23F0004428462146D5
S2140844004FF0FF326F4B03F009FF002840F034846A
S214084410284621464FF0FF326A4B03F0E1FE00289B
S21408442040F02A8415A80DC8149903F0CFFE00287A
S21408443040F0D4859DF8777003231A460893002326
S214084440614E19460A93614B0E92119A2BF0800022
S21408445007901291472AD8BF1E46A5E54BF0080BD1
S2140844609AF80030D6E44BF0100B11931BF020039B
S2140844703FF4BBAE0F9C073424F0070303F1080291
S214084480D3E900450F92002368E51193002A40F00F
S214084490C2864F4B1BF0200F18933FF419AF0F9CA2
S2140844A01BF0010F04F1070424F0070303F10802C8
S2140844B00F92D3E900457FF41DAF02234EE59AF824
S2140844C0003000297FF4A6AC01222021A2E44BF09C
S2140844D0010B9AF800309DE49AF8003001222B214F
S2140844E098E44BF0200B9AF8003093E44BF0400B1E
S2140844F09AF800308EE49AF800306C2B03BF9AF8CE
S21408450001304BF0200B0AF1010A4BF0100B81E446
S214084510002A40F07C861BF0200F40F052841BF0E7
S214084520100F40F038841BF0400F00F034840F9AC8
S214084530136804320F92BDF824201A8037E47823D3
S21408454030220F988DF879301193031D0F93204B66
S214084550046818934BF0020B8DF878200025022388
S214084560FCE41193002A3FF4EFAE8DF87710EBE6E3
S21408457000200446A3F130001AF8013B04EB84043B
S21408458000EB4404A3F130000928F5D90D9443E460
S2140845901193002A40F04A86119A002A3FF4B6ACD6
S2140845A0002301211F4608918DF8A020CDF81CB0E5
S2140845B08DF877300A9312930E9128AEF8E400BF70
S2140845C0DC820800FFFFEF7FD0820800CC8208005C
S2140845D0F082080025AA0B990C9802F06FFF0028B5
S2140845E07FF49BACC8469DF87770279C33E5119BF3
S2140845F0652B40F39A8015A80DC8149903F0DCFDC6
S214084600002800F093810121269BB54A0B440C44F0
S214084610072B27942693C8F80410C8F8002000F340
S214084620C68308F108081F9B139A279C934203DB4E
S214084630079BDD077FF586AD269B199901331A9AE5
S2140846400C44072BC8F80020C8F8041027942693B3
S21408465000F3C48308F10808139B5E1E002E7FF73C
S21408466071AD102E40F3758522461027269B9D4D6A
S214084670DDF830B00B9C05E008F10808103E102E57
S21408468040F3258201331032072B2792269388E8B9
S214084690A000F1DD25AA2146584602F00FFF0028A3
S2140846A07FF43BACC846279A269BE7E70D9B089AFB
S2140846B09F1A002F7FF7F6AC102F40F3A884894D79
S2140846C042462146B0464FF0100B2E46269B0C9CC1
S2140846D00B9D04E0103F102F02F1080215DD013390
S2140846E01031072B2791269382E84008F2DD25AA89
S2140846F02946204602F0E2FE00287FF40EAC103F62
S214084700102F4A462799269BE9DC35460C4646462E
S214084710904601333C44072B2794269388E8A0004C
S21408472000F39E8208F10808BCE4139B012B40F3B3
S2140847304F820123269F1C441F44072F2794C8F83E
S21408474000602697C8F8043000F35F8208F108086E
S214084750199A01371A9B1444072F27942697C8F8E6
S2140847600030C8F8042000F35C8208F1080815A891
S2140847700DC8149903F020FD139B002840F04181D2
S214084780013B013701361C44072FC8F800602697FE
S2140847902794C8F8043000F3668108F108081B9AC5
S2140847A00137144421AB072F27942697C8F804200E
S2140847B0C8F800307FF7C4AC25AA0B990C9802F00D
S2140847C07DFE00287FF4A9ABC846279CBAE425AA34
S2140847D00B990C9802F072FE00283FF4FDACFFF728
S2140847E09CBBDDF81CB0012B00F07E81022B71D13A
S2140847F0CDF81CB000240025D4E525AA0B990C9802
S21408480002F05CFE00287FF488ABC846279C86E446
S21408481025AA0B990C9802F051FE00287FF47DAB70
S214084820C846279C29E40120269B2D4A03440444B5
S214084830072B27942693C8F80400C8F8002040F3EE
S214084840D88225AA0B990C9802F038FE00287FF427
S21408485064ABC8461F99279C29B9139B1BB9079BAD
S214084860D8077FF56FAC1998269B02460133224479
S2140848701A9C072B2792C8F80040C8F8040026930D
S21408488000F3318408F108080029C0F20984139956
S21408489001338C18072B27942693C8F80060C8F8AD
S2140848A004107FF74DAC25AA0B990C9802F006FE6B
S2140848B000287FF432AB279CC84643E425AA0B9908
S2140848C00C9802F0FBFD00287FF427ABC846279C0F
S2140848D0FFF7E5BB00240025CDF81CB0494604E0E8
S2140848E00C830800208308003146E20842EA457235
S2140848F0E80804F0070305461446303354EA050270
S21408490001F8013C01F1FF36EED1079AD2077FF590
S21408491059AD302B3FF456AD3023023906F8013C2A
S214084920A9EB01030E930E46FFF736BB1F99002925
S2140849307FF779AF129B139A9342A8BF1346002BB2
S2140849401F460BDD269B3C440133072B279488E83B
S214084950C000269300F3FB8208F10808129B002F7C
S214084960A8BFDB1B002B1F4640F3D780102B40F355
S2140849703484BA4D42462146B0464FF0100B2E46B8
S214084980269B0C9C0B9D04E00832103F102F40F32A
S214084990B58001331031072B2791269382E840080B
S2140849A0F2DD25AA2946204602F088FD00287FF475
S2140849B0B4AA4A462799269BE7E7002D08BF0A2C83
S2140849C0C0F090804E46204629460A220023FEF76D
S2140849D05DFE303206F8012D2046294600230A22BD
S2140849E0FEF754FE04460D4654EA0503EBD1A9EB40
S2140849F006030E93FFF7D0BA0A9B4E460E93FFF7B0
S214084A00CBBA5E1E002E7FF7CAAE102E40F3E383A5
S214084A1022464FF0100B914D0C9C04E0103E102ED1
S214084A2008F1080815DD01371032072F2792269758
S214084A3088E82008F2DD25AA0B99204602F03EFDFC
S214084A4000287FF46AAA103E102EC846279A269F8A
S214084A50E9DC144601373444072F2794269788E85C
S214084A6060007FF79AAE25AA0B990C9802F026FDEF
S214084A7000287FF452AA279C269FC8468FE6043251
S214084A801C68002501230F92FFF768BA1C680433D8
S214084A900F9300252AE41C680433E51722460F9373
S214084AA02B46002A73F10003BFF668AC2D27644234
S214084AB065EB45058DF877700123FFF753BA0F9914
S214084AC000250A4604320C680F92FFF747BA1446C8
S214084AD001333444072B2794269388E860007FF731
S214084AE02FABE0E6DDF81CB0012342AE3034CDF83B
S214084AF01CB006F8414D0E93FFF74EBA35460C46E5
S214084B004646904601333C44072B2794269388E86C
S214084B10A00000F3468208F108081F9A139B9A42E1
S214084B2045DB079BD90742D4139B12989A1A1D1A7D
S214084B309542A8BF1546002D0EDD2699064401317C
S214084B402C440729C8F800602794C8F80450269112
S214084B5000F3168208F10808002DB4BF1646561B47
S214084B60002E7FF7EFAA102E40F3F3822246102776
S214084B70269B3A4DDDF830B00B9C04E008F1080897
S214084B80103E102EA3DD01331032072B27922693F2
S214084B9088E8A000F2DD25AA2146584602F08EFCD9
S214084BA000287FF4BAA9C846279A269BE8E7269BDA
S214084BB0199801331A990444072B2794C8F800104B
S214084BC0C8F80400269300F3CF8108F10808ABE77D
S214084BD0079BDA073FF5ADAD0123269F1C441F440B
S214084BE0072F2794C8F800602697C8F804307FF780
S214084BF0D4AD25AA0B990C9802F060FC00287FF427
S214084C008CA9C846279C269FC9E525AA0B990C9807
S214084C1002F054FC00287FF480A9C846279C269FEB
S214084C2096E525AA0B990C9802F048FC00287FF414
S214084C3074A9C846279C269F99E50F9C073424F03C
S214084C40070404F10801D4E900230F9114461D4611
S214084C50FFF78FBB4E46FFF79FB900BF20830800BB
S214084C6025AA0B990C9802F029FC00287FF455A970
S214084C70C846279CFFF716BA159C22462046149C61
S214084C802346214603F0CAFA002840F073820A9B9E
S214084C900133119B23F020030E9300F09C81472BD1
S214084CA000F0D6804BF480730793149B1F1E159B49
S214084CB00893B7BF3B46002303F100472D23109304
S214084CC0119B662B00F09081462B00F0A4800220F2
S214084CD00E9B23A9452B0ABF0A9B0A9D5D1C8DE8DF
S214084CE02100049120A81FA93B460390089A029128
S214084CF00C9800F059FB119B0646672B40F0BA81CA
S214084D001BF0010F00F023827419169A0898179B57
S214084D10394603F051FA002840F02481239BA34229
S214084D2006D230215A1C23921970239B9C42F9D82C
S214084D309B1B13930E9B472B00F0A280119B652BA1
S214084D4040F3A781119B662B1F9B129300F071817D
S214084D50139B129A1946914200F35D811BF0010FCE
S214084D6040F0F08122EAE273089367230E921193CB
S214084D70109B002B7DD10A939DF87770FFF714B926
S214084D8024F00704236815936368149304F1080352
S214084D900F93FFF72FBB0F9A136804320F92099AE6
S214084DA01A60FFF704B8269BAF4DFFF7ADB925AAE2
S214084DB00B990C9802F082FB00287FF4AEA8C84630
S214084DC031E40F9A134604330F93099B1168DD17D5
S214084DD01A462B46C1E90023FEF7E9BF25AA0B9918
S214084DE00C9802F06BFB00287FF497A8C846279C0F
S214084DF032E408F108082FE540210C9801F0EAFC97
S214084E000B9A10601061002800F0148240230B9A59
S214084E105361FEF7BCBF03200A9C23A98DE8110046
S214084E20049120A81FA90390089A3B4602910C9863
S214084E3000F0BAFA25460646119B7419462B7FF4ED
S214084E4064AF3378302B00F087811F9D2C445CE7D5
S214084E500A9B002B08BF01230A9323E730460A95CE
S214084E6002F0FEFA0F940E90CDF81CB00346FFF73A
S214084E70E7B92D2700238DF877700A93FFF795B8C2
S214084E801F9B1A461293033304DB0A9B194691426A
S214084E90BFF65EAF119B023B1193129B9DF8442010
S214084EA0013B002B8DF88420B4BF2D222B221F93A4
S214084EB0B8BF129B8DF88520B8BFC3F10103092B34
S214084EC040F31F810DF193000146684C00E011463F
S214084ED084FB0352DD17C5EBA20505EB8502A3EBA1
S214084EE042023032092D01F8012C2B4601F1FF321F
S214084EF0EDDC30330239DCB2884202F8014C40F26D
S214084F0092810DF18601134601E013F8014B8342A6
S214084F1001F8014BF9D101339B1A0DF186021344AF
S214084F2021AA9B1A139A1B93012A13440E9340F343
S214084F3048810E9B199A13440E9323EAE373089349
S214084F400023129314E7279C269AFFF776B825AA1B
S214084F500B990C9802F0B2FA00287EF4DEAFC84629
S214084F60279CFBE42346E3E625AA0B990C9802F057
S214084F70A5FA00287EF4D1AFC8461F9A279CD3E529
S214084F8025AA0B990C9802F099FA00287EF4C5AF6A
S214084F901F9A139BC846279C9A1ADDE5269BFFF79F
S214084FA0FEB825AA0B990C9802F088FA00287EF419
S214084FB0B4AFC846279CB0E50A9B3746062B28BFE1
S214084FC006230A96129608930F94CDF81CB00E93F3
S214084FD0274EFEF7E9BF06230A9363E62D231F46EE
S214084FE08DF87730FFF728BA03200A9C23A98DE8A6
S214084FF01100049120A81FA90390089A3B46029125
S2140850000C9800F0D1F925460646041919E7269BA0
S214085010154DFFF77EBB199A139B1344129A0E93ED
S214085020002A40F3C78023EAE373089367231193A3
S2140850309EE6002B40F3E1800A9A002A40F0B080F2
S2140850401BF0010F40F0AC8008930E9390E60A9B85
S2140850500F9408930E930A90CDF81CB012909DF802
S2140850607770FEF7A1BF00BF2083080067666666F4
S21408507004830800119B472B7FF446AE1BF0010FF4
S2140850807FF4DAAE239B9B1B13930E9B472B3FF4B0
S214085090F7AE1F9B129300E700200A90FEF7BCBEEF
S2140850A04F42103135DA10246A4DDDF830B004E08E
S2140850B008F10808103F102F2CDD01331032072B9B
S2140850C027922693C8F80050C8F80440F0DD25AAB1
S2140850D00B99584602F0F2F900287EF41EAFC8462F
S2140850E0279A269BE6E725AA0B990C9802F0E6F97C
S2140850F000287EF412AFC8461F99279A269BFFF70A
S214085100C3BB302213448DF887308DF8862022AB37
S21408511006E7504D01333A44072B88E8A00027924B
S214085120269308F108087FF7B2AB25AA0B990C98C6
S21408513002F0C4F900287EF4F0AEC846279A269BEB
S214085140FFF7A5BB129B199A13440E936BE7239B94
S214085150EEE5269B3F4DBBE4169A0898179B394602
S21408516003F02AF800287FF470AEC5F101051F95F4
S2140851702C44CAE5149B384E002BBEBF2D231F4671
S2140851808DF877304FF003031A4608934FF0000364
S214085190A8BF9DF8777019460A93304BFFF754B9A5
S2140851A0129B199A13440A9A1A4422EAE2730E9238
S2140851B00893DDE5129B0E9AC3F101031A441346C1
S2140851C0C3E71BF0010312937FF4B3AE0E9B23EAEA
S2140851D0E3730893CCE51F4D3CE4269B1D4D91E4F4
S2140851E00F9D9AF801302868A24640EAE0700A90B7
S2140851F0284604300F90FEF70DBE0A9B13B91BF025
S214085200010F02D0199B0133CDE701231CE78DF867
S2140852107710FFF780B98DF87710FFF73AB98DF851
S2140852207710FFF74FB80DF1860379E68DF87710FB
S214085230FFF7B2B94FF0FF320C2309920C9A1360AD
S214085240FEF774BE8DF87710FFF7C4B88DF87710A0
S214085250FFF778B820830800D8820800D4820800B0
S214085260024B13B1024800F005B870470000000072
S2140852704D640800002301461A46184602F0B2B9E3
S2140852802DE9F04F03690F6983B09F4200F38880C9
S214085290013F01F1140600F1140A56F827305AF8AF
S2140852A027200133B2FBF3F8BB00009306EB030993
S2140852B053440193B8F1000F3BD00023B4461C4674
S2140852C0D6465CF8042BDEF800501FFA82FB08FB73
S2140852D00B33120C4FEA134B08FB02BB9AB2A21A06
S2140852E0ABB21FFA8BF41A44C4EB154404EB224401
S2140852F092B242EA0442E1454EF8042B4FEA2444AF
S2140853004FEA1B43DDD2009B5AF803308BB9019C49
S214085310231F9A450CD254F8043C4BB9A4F1080351
S21408532002E01A68043B1AB99A4507F1FF37F8D322
S2140853300761044601F040FF00282DDB5546002390
S21408534008F1010856F8041B28688AB29A1A0B0C4A
S21408535081B20A44C3EB104303EB224392B242EAFB
S2140853600342B14545F8042B4FEA2343EAD25AF8DC
S21408537027200AEB87037AB91A1F92450BD253F8EF
S214085380042C42B9083B02E01A68043B1AB99A454D
S21408539007F1FF37F8D32761404603B0BDE8F08F22
S2140853A0002003B0BDE8F08F2DE9F04F056C9BB0E8
S2140853B0044692469B46279E4DB10123426C2946D9
S2140853C09340AB606A6001F01FFD00232364BBF1C5
S2140853D0000F5D4635DB002333609D4BAB4315D08D
S2140853E0002200235046594602F0E6FE8046002872
S2140853F02DD00123269A1360289B002B00F0BD8031
S2140854009448186001381BB0BDE8F08F42F20F735D
S214085410269A1360BAF1000F0DD1C5F3130555B9D6
S214085420289B8D48002BEED000F10803289A1360BD
S2140854301BB0BDE8F08F289B8848002BE3D0C31C20
S214085440F4E701232BF000453360AB46C5E718AAFE
S21408545019AB0192009352465B46204601F056FF70
S2140854602B0D814671D05046CBF3130242F07F5184
S214085470189FA3F2FF36CDF8508041F44011002261
S214085480774BFDF74FFF6CA3D3E9002302F02CFC03
S2140854906BA3D3E90023FDF747FFCDE902013046A9
S2140854A0FEF78EF868A3D3E9002302F01DFC024637
S2140854B00B46DDE90201FDF737FFCDE9040102F0EE
S2140854C0C3FE002202900023DDE9040102F07EFEFE
S2140854D0002840F06D81029D162D00F25781614923
S2140854E0524601EBC5015B46D1E9000102F08CFE8D
S2140854F0002800F0BE816B1E029300230E93BF1B8C
S2140855007B1E089300F14E8100230A93029B002B12
S214085510C0F23F81089A0D9311461944002308915A
S2140855200C93249B092B2AD8052B40F35886002574
S214085530043B2493249B023B032B00F23F86DFE8C0
S21408554013F0CE03C302D9035B04189F199E3E448A
S21408555006F23243202B40F38781C3F1400306F25C
S21408556012409D402AFA00F02843FEF719F8012356
S214085570013E1493A1F1F87181E73B4843E7002107
S21408558020466164259101F019FC4FF0FF3307931C
S2140855900F930123259A0490206424920B93199B59
S2140855A0002BC0F2D380029A0E2A00F3CF802D4B30
S2140855B003EBC203D3E90023CDE90823259B002B80
S2140855C0C0F2B483DDE9085650462A4633465946A3
S2140855D002F0B4FC02F038FE8046FDF7F1FF2A46DA
S2140855E0334602F081FB02460B4650465946FDF705
S2140855F099FE079E049F08F13005012E3D7002466D
S2140856000B4607F1010564D00022184B02F06CFB2C
S2140856100022002306460F4602F0CEFD002840F082
S2140856208280CDF828904FF0000ADDE908894FF00F
S214085630000B0B9429E000BF61436F63A787D23F36
S214085640B3C8608B288AC63FFB799F501344D33F64
S2140856500000F07F0D830800308308003C830800B4
S2140856600000F83F688308000C8308000000244008
S2140856700022814B02F038FB52465B4606460F4630
S21408568002F09AFD002840F0BA8342464B46304660
S214085690394602F053FC02F0D7FD0446FDF790FFAA
S2140856A042464B4602F020FB02460B463046394639
S2140856B0FDF738FE04F1300605F8016B049E079FD7
S2140856C0AE1BBE4202460B46D2D1A046DDF8289055
S2140856D00B9C10461946FDF727FE06460F4602465F
S2140856E00B46DDE9080102F071FD48B9DDE908015D
S2140856F032463B4602F060FDA8B118F0010F12D002
S21408570015F8018C6B1E049A04E09A4200F0028495
S21408571013F8018DB8F1390F03F10105F5D008F13A
S214085720010883F800804946204601F06DFB0022F8
S214085730029B2A70269A01331360289B002B00F0E0
S2140857409F8304981D601BB0BDE8F08F0B9A002A53
S2140857503ED0249A012A40F31183079B0C9A5F1EB9
S214085760BA42C0F29083D71B079B002BC0F28C84EA
S2140857700A9D079B0A9A01211A440A92089A20460B
S2140857801A44089201F0DCFB064623E001230E9338
S214085790B5E600230A9A0D93029BD21A5B420A9238
S2140857A00C93BEE6C7F101030A9300230893ADE6FF
S2140857B0029D2846FDF704FF02460B46DDE9040174
S2140857C002F0FAFC00287FF486AE6B1E029382E68F
S2140857D00AADE0CD002D0CDD089900290B4608DD42
S2140857E0A942A8BF2B460A9AED1AD21ACB1A0A92D1
S2140857F008930C9BD3B10B9B002B00F0B882002FAC
S21408580010DD31463A46204601F036FC4A46014647
S2140858100646204601F09EFB034649462046994622
S21408582001F0F2FA0C9BDA1B40F0A2820121204616
S21408583001F086FB0D9B8046002B1FDD01461A46AD
S214085840204601F019FC249B8046012B40F3558224
S21408585000230C93D8F8103008EB8303186901F07E
S2140858601FFBC0F1200013E0C3F120050AFA05F07B
S2140858707BE60E9043E600BF00002440249B012BE5
S21408588040F3858200230C930D9B0120002BE1D169
S214085890089A104410F01F0000F0A180C0F1200301
S2140858A0042B40F386840A9BC0F11C0003440A9329
S2140858B013460344054408930A9B002B05DD494616
S2140858C01A46204601F028FC8146089B002B05DD79
