:020000041000EA
:1000000000B5324B212058609868022188439860DF
:10001000D860186158612E4B002199600221596106
:100020000121F02299502B49196001219960352056
:1000300000F044F80222904214D00621196600F024
:1000400034F8196E01211966002018661A6600F04E
:100050002CF8196E196E196E052000F02FF8012189
:100060000842F9D1002199601B49196000215960AB
:100070001A491B48016001219960EB211966A021F2
:10008000196600F012F800219960164914480160C1
:100090000121996001BC002800D000471248134993
:1000A000086003C880F30888084703B5996A0420EC
:1000B0000142FBD001200142F8D103BD02B5186610
:1000C0001866FFF7F2FF186E186E02BD00000240BE
:1000D000000000180000070000035F00212200005C
:1000E000F4000018222000A00001001008ED00E03C
:1000F00000000000000000000000000074B24E7A12
:1001000000200420F7010010C3010010C5010010F9
:10011000C1010010C1010010C1010010C101001097
:10012000C1010010C1010010C1010010C701001081
:10013000C1010010C1010010C9010010CB01001065
:10014000CD010010CD010010CD010010CD01001037
:10015000CD010010CD010010CD010010CD01001027
:10016000CD010010CD010010CD010010CD01001017
:10017000CD010010CD010010CD010010CD01001007
:10018000CD010010CD010010CD010010CD010010F7
:10019000CD010010CD010010CD010010CD010010E7
:1001A000CD010010CD010010CD010010CD010010D7
:1001B000CD010010CD010010CD010010CD010010C7
:1001C00000BE00BE00BE00BE00BE00BE00F04BF888
:1001D000103800BEF2EB887168B4011084B40110CD
:1001E0003402001090A31AE700202149086006C8D5
:1001F00081F3088810471F48006800282FD10DA4FC
:100200000ECC002902D000F012F8F9E71A491B4A77
:10021000002000E001C19142FCD1194988471949E9
:1002200088471949884700BEFDE701C901C29A42C3
:10023000FBD3704784B40110C00000201C040020D0
:10024000E0B701100000042000000420E0B7011016
:1002500000100420001004200000000070470B482C
:1002600015F01EFD0047EFF30580C0B27047000097
:1002700008ED00E0000000D0200400203C1B00201E
:10028000755401104D410110615501105756000081
:1002900006005250ABB3605338B401100600525000
:1002A000861C030248B40110060052505422A29D3D
:1002B00058B4011005005250DE65F468E0B7011033
:1002C000F8B5C0460448054B10B5834203D0044B33
:1002D000002B00D0984710BD1C0400201C040020F7
:1002E0000000000006480749091A8910CB0F591869
:1002F00010B5491003D0044B002B00D0984710BD17
:100300001C0400201C0400200000000010B5074C55
:100310002378002B09D1FFF7D5FF054B002B02D026
:10032000044800E000BF0123237010BD3805002001
:1003300000000000E06C0110054B10B5002B03D04D
:100340000449054800E000BFFFF7CCFF10BDC046E0
:10035000000000003C050020E06C01107047C04622
:1003600010B514F033FC10BD01210B4A13784B403B
:1003700013700AD1D02380221B0692049A61074A87
:1003800001201368013313607047D02380221B06BD
:1003900092045A61F3E7C046221900202819002070
:1003A00000B585B014F02EFA054B064A02930023DF
:1003B0000193054B0093002314F028FA05B000BD0B
:1003C0002005002050C300006903001010B5FFF79E
:1003D000C5FF00F095F900F083F9FFF7E1FF00F0A9
:1003E00001F810BD7047C04610B50A00014916F06B
:1003F00019FA10BD00F01F10F8B506000F00EFF35A
:10040000108572B68021064C4901200016F048FC88
:100410003A003100200016F02BFC85F31088F8BD5F
:1004200000F01F0001207047F0B5DE4657464E46EB
:100430004546E0B591B0029003910322002104A843
:1004400016F0EAF90322002105A816F0E5F9A14902
:10045000A14816F087FBD02380221B0692015A6127
:10046000802292029A6104AB5E1DD02306AC9A46AC
:10047000403BA04600279946524604AB1A7004A997
:10048000032305AA944816F01BFC4A467578337876
:100490002D021D4304AB1A7004A9032305AA8E483C
:1004A00016F00EFC737832781B02134342466DBA85
:1004B000ADB2ED081580D0255BBA9BB2DB082D06E6
:1004C00093826B680137FFB25B0600D5C4E002235C
:1004D0009C46E0440A2FCFD180497F4816F042FB6A
:1004E00080239B026B6180239B01AB61238867881B
:1004F0009A46E389A6889846238AE5889C46638ABB
:100500002089994600239B466189A2890093012393
:10051000574503D25346BA461F000023BE4203D2BA
:100520003B0037001E000023B54203D233002E00EB
:100530001D000023854205D92B000500180001236A
:1005400000930023814206D2030008001900012312
:100550009B46009300238A4205D20B0011001A002B
:1005600001239B46002390450AD2434694450BD372
:100570009046E14502D26246CC4691461A00C6E753
:10058000C44507D213004246E0464A45F4D8944693
:100590001A00BCE7E1455AD3002BB8D0009A002AD4
:1005A00000D094E05A46002A00D06181608CA28A73
:1005B0008146A08C93468046E08CE28A82460020E9
:1005C0009446278B668BA58BE18B228C0190009043
:1005D00018006346844660469B4503D958469B46AF
:1005E00003000020BB4203D918003B000700002095
:1005F000B74203D93800370006000020AE4205D9C3
:100600006046009030002E0005000020A94206D26E
:1006100060460190009028000D00010000209142EA
:1006200005D96046019008001100020000204A45EB
:1006300027D94846904528D39146C24529D24246FB
:10064000D0469246020060469B45CBD9C6E71300D0
:100650006246CC46914691E720491F4816F082FA3F
:1006600080239B026B6180239B01AB6100200A2FDA
:1006700000D13BE711B03CBC90469946A246AB4640
:10068000F0BDC84507D210004A46C1469245D7D3AF
:10069000904602009FE7C24502D210004246CFE7D3
:1006A000002898D0009B002B00D0A583019B002B35
:1006B00000D0E183628923899B18029ADB081380AA
:1006C000E28BA38B9B18039ADB081380D2E720816F
:1006D00068E7C04640420F0000C003400048E80100
:1006E00000B583B06B4601A8991DFFF79DFE03B0CE
:1006F00000BDC046D0231B0658684006C00F704797
:10070000F0B5DE4657464E464546D024E0B5802536
:1007100024062D0297B0A5616420FFF721FE6561D4
:100720006420FFF71DFE802357219B018026A361D3
:100730000123FE4DF60169440B700122A6612800D9
:10074000984616F0B5FA0A20FFF70AFE5621CB2389
:1007500069440B700122A661280016F0A9FA552100
:10076000392369440B7001226661280016F0A0FA53
:100770002C2315A90B7001226661280016F098FA47
:100780005321002769440F7001226661280016F08A
:100790008FFA5221342369440B70012266612800CC
:1007A00016F086FA5121022369440B70012266611A
:1007B000280016F07DFACF2314A90B700122A66140
:1007C000280016F075FA4F2169440F700122666106
:1007D000280016F06DFA4E21C12369440B700122E6
:1007E0006661280016F064FA4D21302369440B70CD
:1007F00001226661280016F05BFAE82313A90B704A
:100800000122A661280016F053FA4B218523694482
:100810000B7001226661280016F04AFA4A216944E9
:100820000F7001226661280016F042FA49217823F0
:1008300069440B7001226661280016F039FAEA2338
:1008400012A90B700122A661280016F031FA472187
:1008500069440F7001226661280016F029FA4621CA
:1008600069440F7001226661280016F021FA4521C3
:10087000ED2369440B700122A661280016F018FAD6
:10088000642311A90B7001226661280016F010FA8A
:100890004321032269440A7028006661023A16F077
:1008A00007FA4221122369440B7001226661280075
:1008B00016F0FEF94121812369440B700122666123
:1008C000280016F0F5F9F72310A90B700122A66194
:1008D000280016F0EDF93F21202369440B70012216
:1008E0006661280016F0E4F93E21C02369440B70CC
:1008F0000122A661280016F0DBF93D21232369447B
:100900000B7001226661280016F0D2F9C1230FA9ED
:100910000B700122A661280016F0CAF93B211020B5
:100920006944087001226661280016F0C1F93A2175
:10093000C52369440B700122A661280016F0B8F99E
:1009400039213E2369440B7001226661280016F0AC
:10095000AFF928230EA90B7001226661280016F05A
:10096000A7F93721C72369440B700122A66128002B
:1009700016F09EF93621862369440B7001226661C8
:10098000280016F095F935213622694493460A70FD
:100990002800A661353A16F08BF948220DA9924637
:1009A0000A7028006661473A16F082F933213A232B
:1009B00069440B700122A661280016F079F93221F2
:1009C000552369440B7001226661280016F070F906
:1009D0003121B12369440B700122A661280016F071
:1009E00067F90CA90F7001226661280016F060F902
:1009F0002F21182369440B7001226661280016F02C
:100A000057F92E21B62369440B700122A6612800F4
:100A100016F04EF92D210820694408700122666104
:100A2000280016F045F982230BA90B70012266619C
:100A3000280016F03DF92B21272369440B70012271
:100A40006661280016F034F92A21F22369440B70FC
:100A50000122A661280016F02BF9292169440F70A4
:100A600001226661280016F023F926230AA90B70DB
:100A70000122A661280016F01BF92721424669448D
:100A80000A702800666116F013F92621E0236944F4
:100A90000B700122A661280016F00AF925210F2209
:100AA00069440A70280066610E3A16F001F9312394
:100AB00009A90B70012266612800984616F0F8F823
:100AC00023212B2369440B7001226661280016F054
:100AD000EFF822210C2369440B7001226661280083
:100AE00016F0E6F821210E22694491460A7028008A
:100AF00066610D3A16F0DCF8082008A9087001229A
:100B00006661280016F0D4F81F214E2369440B704B
:100B100001226661280016F0CBF81E21F1236944FA
:100B20000B7001226661280002E0C04600C003404D
:100B300016F0BEF81D21372369440B70012266614F
:100B4000280016F0B5F8072207A90A702800666188
:100B5000063A16F0ADF81B211020694408700122F6
:100B60006661280016F0A4F81A21032269440A706D
:100B700028006661023A16F09BF81921484669443C
:100B8000087001226661280016F092F8092306A970
:100B90000B7001226661280016F08AF8172169445B
:100BA0000F7001226661280016F082F81621E123F9
:100BB00069440B700122A661280016F079F815210E
:100BC00069440F704F4666610122280016F070F8E4
:100BD00005A90F7001226661280016F069F813213B
:100BE000142369440B7001226661280016F060F836
:100BF0001221032269440A7028006661023A16F045
:100C000057F81121112769440F70012266612800ED
:100C100016F04EF8072204A90A7028006661012226
:100C200016F046F80F21424669440A7028006661B2
:100C3000303A16F03DF80E21C12369440B700122B1
:100C40006661280016F034F80D21534669440B7094
:100C500001226661280016F02BF8082003A908700D
:100C600001226661280016F023F80B210F22694447
:100C70000A70280066610E3A16F01AF80A210C2351
:100C800069440B7001226661280016F011F80921F1
:100C9000434669440B7001226661280016F008F88B
:100CA0005B4602A90B7001226661280016F000F86D
:100CB0006B460F22D91D0A70280066610E3A15F0A6
:100CC000F7FF6B46991D0F700122A661280015F0F1
:100CD000EFFF7820FFF744FB6B46591D29230122C3
:100CE0000B702800A66115F0E3FF5B4601A90B70AD
:100CF0000122A661280015F0DBFF6B46D91C534684
:100D000001220B702800666115F0D2FF17B03CBCC1
:100D100090469946A246AB46F0BDC046F0207047CB
:100D2000A02040007047C046F0B546464F46D64624
:100D30000400FC20C0B5D30C0D00C0005109DB023B
:100D4000014012060B4382B0D20E1A436B46334F5A
:100D500052BA9E1D32800022BB5EA3425AD1304B54
:100D6000984600229B5E012B1FD0D0231B0699467C
:100D70008023DB019A464B4652462A499A612A480B
:100D8000012215F095FF4B4652465A610022274931
:100D9000E3B20A708A70244804324B70CB7015F0AD
:100DA00087FF012342463C801380214C0022A35E32
:100DB000AB4219D08023D027DB0198463F06BB61A8
:100DC00001221C49184815F073FF43461A497B61FC
:100DD000EAB22B12DBB24A70CA70134804220B70BD
:100DE0008B7015F065FF2580D02480252406ED0149
:100DF000A561012211490C4815F05AFF65610222D4
:100E00003100094815F054FF02B01CBC90469946C9
:100E1000A246F0BD024B9846A7E7C04662030020F9
:100E200060030020E16C011000C003400C19002099
:100E300064030020E26C011010190020E06C011026
:100E4000F0B5DE46574645464E46E0B5140085B03F
:100E500007000D009B46F02A00DDA3E0FC210E9B5D
:100E60000E9ADB0C5209C9000A40DB0213430E9AAA
:100E7000514E1206D20E13435BBA9BB29846002223
:100E8000B35E834206D14D4B009300229B5EA3428A
:100E900002D122E0494B0093D0231B0699468023C0
:100EA000DB019A464B46524645499A614548012224
:100EB00015F0FEFE00224449FBB20A708A70621EE1
:100EC0004B709B18CB7052464B463E485A610422E9
:100ED00015F0EEFE009B37801C80D02780263F0651
:100EE000F60101223949BE61364815F0E1FE5A4645
:100EF00037492B120B70EBB25D44013A013D4B7048
:100F00002D129B18CB708D7004227E612D4815F038
:100F1000CFFEBE6101222F492A4815F0C9FE5B466B
:100F20007E61002B3ADD63000093A3B29A46013B39
:100F30009BB2019353465B089946524601239A435C
:100F400013B2039343461E041E43230000274C465E
:100F50009946214D02924B46002B16DD019B012B39
:100F600027D900239A000133AE509AB29442F9D89F
:100F7000029B9A4509D0039B41465A0001331BB29C
:100F8000A952994501DD5B00E9520137009A290019
:100F90000C483FB215F08CFEBB45DCD101220F4B53
:100FA00052421A8005B03CBC90469946A246AB46D8
:100FB000F0BD0023E0E7C04662030020600300208C
:100FC000E16C011000C003400C190020E26C01101C
:100FD00010190020E06C01108C0700206403002031
:100FE000F0B54E46DE4657464546E0B59BB01193F8
:100FF00024AB139100215B5ED408994625AB0021F8
:101000005B5EE4B2069326AB00215B5E1290039315
:1010100027AB0020185E2899299B1094550702D011
:101020000134E4B21094119C002C00D102E1FC25A3
:10103000DE0C5C09ED00F6022C4034431F26DB0871
:10104000334023439BB2CC0C17934B091D40E40261
:10105000C908254331400D43ABB21693109B002BBA
:1010600000D1E7E0442402A90919129C0D8821004F
:10107000A246013BDBB20831DB005B1806999244C3
:101080008C460200D3460027CA4607936244A3B2A7
:10109000149509950A921593139B09999C46BC4493
:1010A000634604930BB20B930B0A0F93159B0293A9
:1010B000109B5F432A9B9846129BB844994657461B
:1010C000DA46C3465B461B785646059308234B44D5
:1010D00098464C468025CA46B44200D18FE0A742CC
:1010E00000DD87E0039BDB19A34200DC82E0049B68
:1010F00006998B427EDB0A9A93427BDA5246029B28
:101100009B1A0D931B1919B2584B089100229B5E34
:10111000059A154200D094E06846169A52BAC280E9
:1011200018AA94466A460620D28860440C90028031
:10113000994200D191E04E4B0E93D0231B061A002A
:1011400099468023DB0193614A4901224A4815F000
:10115000AFFD80234A46DB01536100220D9B4749C6
:101160001B19DBB20A708A70434804324B70CB7093
:1011700015F09EFD3D4B089A1A8001230E9A1380AC
:101180003F4B00229B5E0B9A93421ED0D0231B063E
:10119000190099468023DB018B61012239493648C9
:1011A00015F086FD80234946DB010F984B613649D7
:1011B00002AB1B7F0870887004222F484B70CB70E5
:1011C00015F076FD2E4B0B9A1A80D0231B061A00C1
:1011D00099468023DB0193612C490122264815F0B2
:1011E00067FD80234A46DB0153610C9902222248A5
:1011F00015F05EFD01346D08444500D06CE7012315
:101200009C46029BB24608339BB20293079BE34481
:10121000C146434500D055E7099B149ABA469F1A28
:1012200001339BB201370993119B3FB2B3469F42F2
:1012300000DA31E71BB03CBC90469946A246AB466B
:10124000F0BD18A806218446179A614452BA0A8054
:10125000089A0C919A4200D06DE7054B0E9300223C
:101260009B5E012B00D068E78AE7C046620300203E
:1012700060030020E16C011000C003400C19002045
:1012800064030020E26C011010190020E06C0110D2
:10129000F0B55746DE464E464546E0B50C690D684A
:1012A00087B04F692B1B0095CD680297EE1BAB46AC
:1012B0008D684968AC462D1BCF1B05912900019311
:1012C000794373435B1ABA4603960495936160D0E1
:1012D000036901683500CF1AB9468768B846FE1A17
:1012E0004F467D4357467743EF1B17604F46019D9E
:1012F0006E43049D6F43F61B5660674646465F4348
:101300006643F61B0F00059D67436E43009D6B43CC
:10131000DB1B5F467B436746F318464679436E43C3
:10132000029F8E1B7E4357469B1941689360436919
:10133000C068039D8046C01A4743BA46CE1A75431B
:101340002F0055467F1B019DD7606843049D029F77
:101350006E43801B1061664640465E436043059DB8
:10136000801B6843009D4C436B431C1B5B465C43E6
:10137000634659434346041900205D43491B4F43CC
:10138000E119516107B03CBC90469946A246AB4674
:10139000F0BD01204042F5E7F0B5C646956900B5BD
:1013A000060088461400002D1ED00B0081CB136868
:1013B0002900584353687B43C01893689C46604497
:1013C00014F09CFC434630601868E36829005843D9
:1013D00023695F436369C019C01814F08FFC706003
:1013E000002004BC9046F0BD01204042F9E7C04611
:1013F00010B5080012F0B4FE10BDC046F0B5DE46D0
:1014000093465746454600234E465A46E0B50B8064
:101410001380E0239B0098461023B54C83B0050051
:101420008A46A0442827994602E04034444552D0D9
:101430003A00E3681A40282AF7D14A461A42F4D102
:101440002100280018310EF0E3FB0028EDD018230E
:10145000E65E0022AB5E9E4205DB04216A5ED21886
:10146000B24200DDEAE01C21625E96199E4205DD73
:1014700004216A5ED3189E4200DC0DE11A23E65E69
:101480000222AB5E9E4205DB06216A5ED218B242A2
:1014900000DDEAE01E21625E96199E42C5DD06214E
:1014A0006A5ED3189E42C0DCFFF73AFC8642BCDC81
:1014B0001A22A35E1E21625E9B18B6D45246128881
:1014C0008C4952008B52534652461B88403401339C
:1014D00013804445ACD15B4652461B881788019364
:1014E000002B00D1EFE00022AC5E0422A85E824A0D
:1014F000591E1300002689B2490002330019C91889
:10150000B046AC4600E002330025525F944200D161
:101510000126904201D1012290461A008B42F2D15D
:10152000B1466546002F00D1D3E00222AB5E002415
:101530009C460623E85E6146604400260023AC46D4
:101540006C4A00940024155FA94201D10124009443
:10155000A84200D1012601339BB20232BB42F1D333
:101560006546009C4B46002B26D04346002B34D0CA
:10157000002C0ED1534669881A880BB2DB43DB1767
:101580000B405C4952008B52534652461B88013334
:101590001380002E3AD05B46574819880EF0D6FBD0
:1015A0005346544819880EF0D1FB03B03CBC90461A
:1015B0009946A246AB46F0BD019B29885B000AB262
:1015C000D243D2170A404C49CA525B465A461B883E
:1015D000013313804346002BCAD10023EF5E04225F
:1015E000AB5EFF18FFF79AFB874200DD77E02888A3
:1015F000AB88C01800B25B461B883F4A5B00D052E4
:101600005B465A461B8801331380B1E70223EC5E28
:101610000622AB5EE418FFF783FB84425CDC68883B
:10162000EB88C01800B253461B88324A5B00D05288
:10163000534652461B8801331380ACE7FFF76EFB1D
:1016400086420DDA1823E65E002E0BDB5B461B8814
:10165000294A5B00D6525B465A461B8801331380E9
:101660001823E65E0022AB5EFDE6FFF759FB8642DB
:101670000DDA1A23E65E002E0BDB53461B881D4A4B
:101680005B00D652534652461B88013313801A23FF
:10169000E65E0222AB5EFDE6FFF740FB864200DD20
:1016A000ECE61822A35E1C21625E9B1800D5E5E6DD
:1016B0005A461288104952008B525B465A461B8884
:1016C00001331380DAE60023002F0BD099469846A9
:1016D0002BE70026002445E7FFF722FBA3E7FFF7EF
:1016E0001DFB88E7002200269046002465E7C046DF
:1016F000CC14002024070020C8180020514B020001
:101700005969884255D0596D8A4257D09421595809
:101710008A4258D0D42159588A425AD08A21490045
:1017200059588A425BD0AA21490059588A425DD053
:10173000CA21490059588A425FD0EA2149005958C4
:101740008A4261D08521890059588A4263D0952107
:10175000890059588A4265D0A521890059588A4282
:1017600068D0B521890059588A420BD0C52189001B
:1017700059588A420DD0D521890059580E209142DE
:101780000ED07047B321890059588906EED50B2039
:10179000F7E7C321890059588906ECD50C20F0E7FA
:1017A000D3229200985820231840434258410D30CC
:1017B000E7E7D9688906A6D50020E2E7D96C890653
:1017C000A4D50120DDE78C2159588906A2D5022035
:1017D000D7E7CC2159588906A0D50320D1E7862127
:1017E0004900595889069ED50420CAE7A621490018
:1017F000595889069CD50520C3E7C6214900595888
:1018000089069AD50620BCE7E62149005958890681
:1018100098D50720B5E7832189005958890696D5C0
:101820000820AEE7932189005958890600D493E730
:101830000920A6E7A32189005958890600D490E71A
:101840000A209EE7CC140020F0B50E2385B0164D7B
:1018500000280ED00022202694012C196769D3B2EB
:10186000B84202D1E468344203D101320E2AF3D1E6
:1018700013009B01EC180E88278C01AAF61B96809A
:101880002033EB58658C01934B885B1BD3804B68EE
:10189000064D0393012311002B70636898470023C2
:1018A0002B7005B0F0BDC046CC1400201A190020E2
:1018B000F0B54646D6464F460500C0B58846794C39
:1018C00000284CD06369984200D178E0636D9D4256
:1018D00000D184E09423E3589D4200D18BE0D423CF
:1018E000E358AB4200D18DE08A235B00E3589D4270
:1018F00000D18EE0AA235B00E3589D4200D190E026
:10190000CA235B00E3589D4200D192E0EA235B00CA
:10191000E3589D4200D194E085239B00E3589D420B
:1019200000D196E095239B00E3589D4200D198E0BA
:10193000A5239B00E3589D4200D19AE0B5239B006C
:10194000E3589D4200D19CE0C5239B00E3589D4293
:1019500000D19EE0D5239B00E3589D4238D0E3237D
:10196000E0279B00E258504EBF00130422D402230C
:10197000994610339A464D480FF07CFA00200FF03C
:10198000A5FA00200FF0AEFA05200FF0A5FAA31972
:10199000E419E268520603D4454A1268AA4224D0E8
:1019A0004A460221404610F0C1FE1CBC90469946B2
:1019B000A246F0BD0523994614339A46DBE7E26858
:1019C000930600D482E70027BF013E003136CCE702
:1019D000D3239B00E2580D279306C0D5F4E7E26CB1
:1019E000930600D476E70127EEE74A465146404683
:1019F00010F09CFED9E78C23E258930600D46EE7E2
:101A00000227E1E7CC23E258930600D46CE70327D2
:101A1000DAE786235B00E258930600D46AE70427DE
:101A2000D2E7A6235B00E258930600D468E70527B7
:101A3000CAE7C6235B00E258930600D466E7062790
:101A4000C2E7E6235B00E258930600D464E7072769
:101A5000BAE783239B00E258930600D462E7082785
:101A6000B2E793239B00E258930600D460E709276E
:101A7000AAE7A3239B00E258930600D45EE70A2757
:101A8000A2E7B3239B00E258930600D45CE70B2740
:101A90009AE7C3239B00E258930600D45AE70C2729
:101AA00092E7C046CC140020B1030000FFFFFF0006
:101AB00008190020F8B55746DE464E464546E0B5C3
:101AC0000F00002853D0944C6369984200D1B5E0D0
:101AD000636D984200D1BAE09423E358834200D169
:101AE000BBE0D423E358834200D1BDE08A235B00EE
:101AF000E358984200D1BEE0AA235B00E358984225
:101B000000D1C0E0CA235B00E358984200D1C2E094
:101B1000EA235B00E358984200D1C4E085239B0090
:101B2000E358984200D1C6E095239B00E3589842C1
:101B300000D1C8E0A5239B00E358984200D1CAE039
:101B4000B5239B00E358984200D1CCE0C5239B000D
:101B5000E358984200D1CEE0D5239B00E358984249
:101B600000D1D0E0E620E0258000AD0004E0E620D2
:101B7000E025694C8000AD0039002018082214F0DF
:101B800051FE6319D9680B0453D40C239B460233CE
:101B9000984601220A4094463B88601963440384B6
:101BA00002237A880B4040D0408D121812B2914621
:101BB0008020800008406219002800D0C1444E46B1
:101BC00056846246520091464E46BA88921B92B2A3
:101BD00092460A0623D4564662199684002B19D0E1
:101BE00063195B8DFA88D21A6346D21A13B20028A1
:101BF00002D042469B1A1BB26219D384CA0503D590
:101C00005A4664199B1AE3843CBC90469946A24606
:101C1000AB46F8BD4B46FA88D21A13B2E7E75A46EC
:101C20005646B61A62199684D8E7624412B29146B3
:101C3000BEE718239B46043B9846AAE7E3689B0649
:101C400000D445E70025AD012800183094E7E36C87
:101C50009B0600D440E70125F5E78C23E3589B065B
:101C600000D43EE70225EEE7CC23E3589B0600D4E0
:101C70003CE70325E7E786235B00E3589B0600D497
:101C80003AE70425DFE7A6235B00E3589B0600D470
:101C900038E70525D7E7C6235B00E3589B0600D449
:101CA00036E70625CFE7E6235B00E3589B0600D422
:101CB00034E70725C7E783239B00E3589B0600D43E
:101CC00032E70825BFE793239B00E3589B0600D427
:101CD00030E70925B7E7A3239B00E3589B0600D410
:101CE0002EE70A25AFE7B3239B00E3589B0600D4F9
:101CF0002CE70B25A7E7C3239B00E3589B0600D4E2
:101D00002AE70C259FE7D3239B00E3580D259B066C
:101D100000D427E797E7C046CC140020F0B5144D57
:101D200087B00E24002910D012340023A4469E014F
:101D3000AE197769DCB2B94203D16746F6683E4214
:101D400003D101330E2BF2D11C0004920022A40116
:101D500001AB2C195A7201920592E2681872029135
:101D6000920602D518000DF073FD07B0F0BDC04615
:101D7000CC140020F0B5D6464F464646C0B5050007
:101D800082B0B94C00294DD06369994200D1F3E08B
:101D9000636D994200D1FFE09423E3588B4200D158
:101DA00001E1D423E358994200D104E18A235B0086
:101DB000E358994200D106E1AA235B00E358994217
:101DC00000D109E1CA235B00E358994200D10CE13C
:101DD000EA235B00E358994200D10FE185239B0081
:101DE000E358994200D112E195239B00E3589942B0
:101DF00000D115E1A5239B00E358994200D118E1D9
:101E0000B5239B00E358994200D11BE1C5239B00F9
:101E1000E358994200D11EE1D5239B00E358994233
:101E200000D1B0E00E22E32390469B00E3581B0450
:101E300000D49AE01826182701200FF041F801205D
:101E40000FF038F889480FF027F80FF02BF8884882
:101E50000FF01CF843469B019846E318DB689B048F
:101E600000D485E000200FF005F844442422A35E4E
:101E70000122E16890461140E28B2800521A921B21
:101E800012B209B200970FF0C7FBE3689B0466D556
:101E900078480EF0FBFF2422A35E22002D3210783A
:101EA000DB1B5843FF2113F029FF228B238C9B1A45
:101EB000C01883B299464346E26828001340E28B7B
:101EC0000097D21A4B46921B19B212B23B000FF088
:101ED000A3FB69480EF0CEFF4B4601331BB29A4676
:101EE0004346E26851461340E28B2800D21A92B270
:101EF000931E0232921B1BB212B20FF04DF94246F2
:101F0000E168E38B0A40B71E01339B1A4F443FB28E
:101F10009B1B1BB23A00514628000FF09FF8574810
:101F20000EF0A8FF4346E26839001340E28B280018
:101F3000D21A92B2D31E0232921B1BB212B20FF00F
:101F40002BF94146E368E28B1940023A531A4A469C
:101F5000911C1BB209B23A0028000FF07FF802B0C2
:101F60001CBC90469946A246F0BD0C260C2763E7A0
:101F700043480EF07FFF78E7E3689A0600D407E74E
:101F80000022904653E7D3239B00E3589A0600D4DF
:101F900048E70D2290464AE7E36C9A0600D4FBE638
:101FA0000122904643E78C23E3589A0600D4F8E6D2
:101FB000022290463BE7CC23E3589A0600D4F5E68C
:101FC0000322904633E786235B00E3589A0600D449
:101FD000F2E6042290462AE7A6235B00E3589A061D
:101FE00000D4EFE60522904621E7C6235B00E358C4
:101FF0009A0600D4ECE60622904618E7E6235B003A
:10200000E3589A0600D4E9E6072290460FE78323B7
:102010009B00E3589A0600D4E6E60822904606E7BD
:1020200093239B00E3589A0600D4E3E609229046E6
:10203000FDE6A3239B00E3589A0600D4E0E60A22BB
:102040009046F4E6B3239B00E3589A0600D4DDE6FD
:102050000B229046EBE6C3239B00E3589A0600D47C
:10206000DAE60C229046E2E6CC140020FFFF0000E6
:10207000E6E6E600CCCCCC00FFFFFF00A6A6A6005B
:10208000BFBFBF00F0B5D6464F464646C0B50500B7
:1020900082B0BF4C00294DD06369994200D1FEE067
:1020A000636D994200D10AE19423E3588B4200D139
:1020B0000CE1D423E358994200D10FE18A235B005D
:1020C000E358994200D111E1AA235B00E3589942F9
:1020D00000D114E1CA235B00E358994200D117E113
:1020E000EA235B00E358994200D11AE185239B0063
:1020F000E358994200D11DE195239B00E358994292
:1021000000D120E1A5239B00E358994200D123E1AF
:10211000B5239B00E358994200D126E1C5239B00DB
:10212000E358994200D129E1D5239B00E358994215
:1021300000D1BBE00E22E32392469B00E3581B0430
:1021400000D4A2E0182316269846994618270120A5
:102150000EF0B6FE01200EF0ADFE8E480EF09CFE95
:102160000EF0A0FE8C480EF091FE53469B019A465D
:10217000E318DB68DB0400D48DE000200EF07AFE6B
:102180005444638B628CE168D21A012319409A4649
:10219000A38C12B2C9182620235E09B2009328002E
:1021A0003B000FF039FAE368DB0468D57B480EF09A
:1021B0006DFE2622A35E4A469B1A22002E3210781C
:1021C000FF21584313F09AFD628B638CE1689B1AE0
:1021D000C01883B299461AB253460B40A18B28000F
:1021E000C91A4346C91A09B23B0000970FF014FA06
:1021F0006B480EF03FFE4B465F1C5346E268A18BD6
:1022000013400231C91A43464E4436B23FB2C91A8E
:1022100009B233003A0028000EF0BEFF5346E268D0
:10222000A18B1340C91A434689B28A1E0231C91ACA
:1022300012B209B23B0028000EF010FF59480EF010
:1022400019FE4B469A1C5346E068A18B03400239A5
:10225000C91A12B209B2330028000EF09DFF53468E
:10226000E268A18B1340C91A434689B28A1E023123
:10227000C91A12B209B2330028000EF0EFFE02B004
:102280001CBC90469946A246F0BD0C230A269846EF
:1022900099460C275BE744480EF0ECFD70E7E368D5
:1022A0009A0600D4FCE60022924648E7D3239B001E
:1022B000E3589A0600D43DE70D2292463FE7E36CCF
:1022C0009A0600D4F0E60122924638E78C23E358C0
:1022D0009A0600D4EDE60222924630E7CC23E3587A
:1022E0009A0600D4EAE60322924628E786235B009A
:1022F000E3589A0600D4E7E6042292461FE7A62395
:102300005B00E3589A0600D4E4E60522924616E7FD
:10231000C6235B00E3589A0600D4E1E60622924603
:102320000DE7E6235B00E3589A0600D4DEE60722B9
:10233000924604E783239B00E3589A0600D4DBE629
:1023400008229246FBE693239B00E3589A0600D4AA
:10235000D8E609229246F2E6A3239B00E3589A06A8
:1023600000D4D5E60A229246E9E6B3239B00E3585F
:102370009A0600D4D2E60B229246E0E6C3239B00E5
:10238000E3589A0600D4CFE60C229246D7E6C04620
:10239000CC140020FFFF0000E6E6E600CCCCCC0029
:1023A000FFFFFF00A6A6A600BFBFBF00D94BF0B538
:1023B000DE469B46DB6857469A464E4645462823EE
:1023C0005246E0B513408FB00026282B00D1CDE255
:1023D0005B460021DA6C282301911340282B00D1A1
:1023E000B7E28C235946C958643B0B40282B00D1D7
:1023F000A2E2CC235846C058A43B0340282B00D16E
:102400008DE286235C465B00E458E43B2340282BA6
:1024100000D176E2A6235D465B00ED58253BFF3BED
:102420002B40282B00D15EE2C6235F465B00FB58A1
:10243000994628234F463B40282B00D144E2E6230F
:102440005F465B00FB589846282347463B40282BB5
:1024500000D12AE283235F469B00FB581F000293B2
:1024600028233B40282B00D110E293235F469B009A
:10247000FB581F00039328233B40282B00D1F6E193
:10248000A3235F469B00FB581F00049328233B4077
:10249000282B00D1DCE1B3235F469B00FB581F00D3
:1024A000059328233B40282B00D1C2E1C3235F467C
:1024B0009B00FB589C46282367463B40282B00D1B5
:1024C000A8E1D3235F469B00FB581F0006932823F7
:1024D0003B40282B00D18FE18F4B09AF1B68002BAD
:1024E0005DD05E4676690796B34200D1E5E25E466E
:1024F000766DB34200D164E394275E46F759BB4240
:1025000000D168E3D4275E46F759BB4200D16AE3A5
:102510008A275E467F00F759BB4200D16DE3AA27A8
:102520005E467F00F759BB4200D170E3CA275E4682
:102530007F00F759BB4200D173E3EA275E467F0074
:10254000F759BB4200D177E385275E46BF00F759B4
:10255000BB4200D17BE395275E46BF00F759BB42E3
:1025600000D17FE3A5275E46BF00F759BB4200D1EB
:1025700083E3B5275E46BF00F759BB4200D187E32E
:10258000C5275E46BF00F759BB4200D18BE3D52774
:102590005E46BF00F65909AFB34200D19EE2142255
:1025A00052429246C0229200914604225B4D9046D0
:1025B000AA44A9442C0004E02034A14530D0564B55
:1025C0001B6822689A42F7D1424623891A42F3D007
:1025D000606800280ED0C621514B89005144464600
:1025E0009A88164203D01A68904200D1D6E0203370
:1025F0009942F4D111233B7200230122FB603B601E
:102600003B61C7237A72474A78609B00D35A42469F
:102610001A42D1D038000DF01BF92034A145CED19B
:10262000019B3D4A9B015B445B691360002B5BD0BF
:102630005A465269934200D1A4E15A46526D9342E0
:1026400000D1A9E1942259468A58934200D1AEE1C3
:10265000D42259468A58934200D1B3E18A2259467E
:1026600052008A589A4200D1B8E1AA225946520033
:102670008A58934200D1BEE1CA22594652008A5874
:10268000934200D1C4E1EA22594652008A5893424B
:1026900000D1CAE18522594692008A58934200D15E
:1026A000D0E19522594692008A58934200D1D6E152
:1026B000A522594692008A58934200D1DCE1B52206
:1026C000594692008A58934200D1E2E1C522594608
:1026D00092008A58934200D1E8E1D52259469200EF
:1026E0008A58934200D173E002223A720022FA60C3
:1026F00009927A723A61E32259467B6092008A58C5
:10270000920600D572E0042290460B329146054AAB
:1027100093460EE0CC140020081900206011002020
:10272000641100204C1100202035AC422FD0934B77
:102730001B682A689A42F7D142462B891A42F3D085
:10274000686800280DD0C6218D4B8900514446464B
:102750009A88164202D01A6890422CD020338B42BD
:10276000F5D14B463B7200230122FB603B603B618D
:10277000C7237A725A4678609B00D35A42461A425F
:10278000D2D038000DF064F82035AC42CFD10FB074
:102790003CBC90469946A246AB46F0BD11230122AF
:1027A0003B72002378603800FB607A723B603B61CB
:1027B0000DF04EF831E74B4601223B720023786062
:1027C0003800FB607A723B603B610DF041F8DBE75B
:1027D000D32292008A58920600D485E702223A72E8
:1027E00000227B60FA607A7209923A6138000DF03B
:1027F0002FF8624B1B6886E73B00DB0600D56BE6D3
:10280000DB235F469B00FB5CB34200D864E60D23EC
:10281000019361E66346DB0600D552E6CB235F46B3
:102820009B00FB5C9E4200D34BE61E000C230193F1
:1028300047E63B00DB0600D538E6BB235F469B003E
:10284000FB5C9E4200D331E61E000B2301932DE674
:102850003B00DB0600D51EE6AB235F469B00FB5C1E
:102860009E4200D317E61E000A23019313E63B00A5
:10287000DB0600D504E69B235F469B00FB5C9E4283
:1028800000D3FDE51E0009230193F9E53B00DB06BB
:1028900000D5EAE58B235F469B00FB5C9E4200D39C
:1028A000E3E51E0008230193DFE54346DB0600D580
:1028B000D0E5F6235F465B00FB5C9E4200D3C9E592
:1028C0001E0007230193C5E54B46DB0600D5B6E5A0
:1028D000D6235F465B00FB5C9E4200D3AFE51E0043
:1028E00006230193ABE5EB0600D59DE5B6235F46D5
:1028F0005B00FB5C9E4200D396E51E00052301931E
:1029000092E5E30600D585E596235D465B00EB5C2A
:102910009E4200D37EE51E00042301937AE5C306A0
:1029200000D56EE5EC235C46E35C9E4200D368E58F
:102930001E000323019364E5CB0600D559E5AC23C3
:102940005846C35C9E4200D353E51E000223019308
:102950004FE5D30600D544E56C235946CB5C9E4237
:1029600000D33EE51E00012301933AE55346DB0602
:1029700000D52DE52C235A46D65C29E50819002000
:10298000641100205A46D268920600D526E75A46BE
:10299000526D934200D055E65A46D26C920600D54D
:1029A0001CE7942259468A58934200D050E68C2264
:1029B0008A58920600D511E7D42259468A58934284
:1029C00000D04BE6CC228A58920600D506E78A2230
:1029D000594652008A589A4200D046E68622520052
:1029E0008A58920600D5F9E6AA22594652008A581A
:1029F000934200D040E6A62252008A58920600D5A3
:102A0000ECE6CA22594652008A58934200D03AE670
:102A1000C62252008A58920600D5DFE6EA225946BD
:102A200052008A58934200D034E6E62252008A5877
:102A3000920600D5D2E68522594692008A589342E2
:102A400000D02EE6832292008A58920600D5C5E671
:102A50009522594692008A58934200D028E6932244
:102A600092008A58920600D5B8E6A52259469200EF
:102A70008A58934200D022E6A32292008A589206F6
:102A800000D5ABE6B522594692008A58934200D051
:102A90001CE6B32292008A58920600D59EE6C52213
:102AA000594692008A58934200D016E6C3229200FB
:102AB0008A58920600D410E690E65646B60600D430
:102AC00015E55646B60610D5032209AF3A72002224
:102AD0007B60FA607A7209923A616CE0069EB606F3
:102AE00000D45CE5079EB342EBD05E46766DB34200
:102AF0006ED094225E46B258934200D1D8E0D422E0
:102B000059468A58934200D1D6E08A22594652004B
:102B10008A58934200D1D3E0AA22594652008A58DB
:102B2000934200D1D5E0CA22594652008A589342B6
:102B300000D1C9E0EA22594652008A58934200D196
:102B4000D0E08522594692008A58934200D1C4E0D1
:102B50009522594692008A58934200D1C7E0A52297
:102B6000594692008A58934200D1CAE0B52259468C
:102B700092008A58934200D1CDE0C5225946920076
:102B80008A58934200D1C1E0D522594692008A5812
:102B9000934200D1B0E0032209AF3A720022FA60FA
:102BA00009927A723A61E32259467B6092008A5810
:102BB000920600D4F3E438000CF04AFE584B1B6830
:102BC000EDE4960600D497E4079EB34200D178E77F
:102BD00092068ED578E78E0684D4D4275E46F759C0
:102BE000BB4200D094E4860600D57BE78A275E4688
:102BF0007F00F759BB4200D091E4A60600D571E7EB
:102C0000AA275E467F00F759BB4200D08EE4AE068D
:102C100000D567E7CA275E467F00F759BB4200D060
:102C20008BE44E46B60600D55CE7EA275E467F0099
:102C3000F759BB4200D087E44646B60600D551E7B7
:102C400085275E46BF00F759BB4200D083E4029E51
:102C5000B60600D546E795275E46BF00F759BB424A
:102C600000D07FE4039EB60600D53BE7A5275E466D
:102C7000BF00F759BB4200D07BE4049EB60600D5E6
:102C800030E7B5275E46BF00F759BB4200D077E476
:102C9000059EB60600D525E7C5275E46BF00F75955
:102CA000BB4200D073E46646B60600D46FE419E771
:102CB0008A0600D423E707E7820600D425E703E766
:102CC000A20600D428E7FFE64A46920600D431E780
:102CD000FAE6AA0600D426E7F6E6029A920600D49F
:102CE00036E7F1E64246920600D42AE7ECE6039A7C
:102CF000920600D433E7E7E6069A920600D44AE744
:102D0000E2E6049A920600D430E7DDE662469206D7
:102D100000D439E7D8E6059A920600D42DE7D3E629
:102D200008190020F0B5DE4657464E464546282194
:102D3000E0B5D14B99B0DA6C11400992179100229D
:102D4000282900D1F1E28C20185804000B9028208B
:102D50002040282800D1E1E2CC241C5925000C9405
:102D6000282425400095282D00D1D0E28624640037
:102D70001C5925000D94282425400195282D00D1AB
:102D8000BEE2A62464001C5925000E942824254088
:102D90000295282D00D1ACE2C62464001C59250000
:102DA0000F94282425400395282D00D19AE2E6248B
:102DB00064001C5925001094282425400495282DD2
:102DC00000D188E28324A4001959E53CFF3C8B46DE
:102DD0000C40282C00D178E29325AD0059592825C4
:102DE0008A460D40282D00D169E2A326B6009959E4
:102DF00028260F00374089460697282F00D158E231
:102E0000B326B600995928260F0037408846079701
:102E1000282F00D147E2C326B600995928260F0073
:102E200037408C460897282F00D136E2D326B600CB
:102E30009F5928263E400596282E00D127E2002AD9
:102E400000D1DEE010260999099431400A910B99CE
:102E500031400B910C9931400C910D9931400D91FD
:102E60000E9931400E910F9931400F9110993140D8
:102E700010915946314011915146314012914946C5
:102E800031401391414631401491614631401591D2
:102E900000213E408C461696160089466C318A46C3
:102EA00040318B46624601271799B4464AE05A469C
:102EB0009A5CB24200D185E0EC229A5CB24200D129
:102EC00089E0962252009A5CB24200D1A2E0B6227A
:102ED00052009A5CB24200D1A6E0D62252009A5C1F
:102EE000B24200D1AAE0F62252009A5CB24200D16E
:102EF000AEE08B2292009A5CB24200D1BEE09B22EF
:102F000092009A5CB24200D1ACE0AB2292009A5C93
:102F1000B24200D1C6E0BB2292009A5CB24200D11C
:102F2000B6E0CB2292009A5CB24200D1CEE0DB2226
:102F300092009A5CB24200D1BEE00137FFB232008B
:102F4000E1455ED2FF26282900D192E1282800D150
:102F500081E1009C282C00D1E0E0019C282C00D1CC
:102F6000EDE0029C282C00D1FBE0039C282C00D132
:102F700009E1049C282C00D117E1099C282C00D1E0
:102F800025E1282D00D133E1069C282C00D141E118
:102F9000079C282C00D14FE1089C282C00D1AEE0E2
:102FA000059C282C00D19BE052469A5CB24200D08E
:102FB0007DE7282900D07AE70A9A002A00D076E730
:102FC000012211E0282800D076E70B9A002A00D0D1
:102FD00072E7022208E0009A282A00D071E70C9AD2
:102FE000002A00D06DE7032292019A182C32177044
:102FF0004A460132D2B291460137FFB23200E14572
:10300000A0D3FFF7D3F919B03CBC90469946A2462D
:10301000AB46F0BD019A282A00D058E70D9A002A45
:1030200000D054E70422DFE7029A282A00D054E7B0
:103030000E9A002A00D050E70522D5E7039A282AE5
:1030400000D050E70F9A002A00D04CE70622CBE7C9
:10305000049A282A00D04CE7109A002A00D048E7AA
:103060000722C1E7282D00D04FE7129A002A00D08E
:103070004BE70922B8E7C046CC140020099A282A59
:1030800000D03CE7119A002A00D038E70822ABE7CD
:10309000079A282A00D044E7149A002A00D040E773
:1030A0000B22A1E7069A282A00D034E7139A002AB7
:1030B00000D030E70A2297E7059A282A00D03CE79B
:1030C000169A002A00D038E70D328DE7089A282A90
:1030D00000D02CE7159A002A00D028E70C2283E7BD
:1030E000169C002C00D05FE7DB24A4001C5DB442DA
:1030F00000D359E7944200D856E7260054E7159CC0
:10310000002C00D04CE7CB24A4001C5DA64200D8C4
:1031100046E7A24200D343E7260041E70C9C002C7F
:1031200000D01AE7EC341C5DB44200D315E794429A
:1031300000D812E72600019C282C00D011E70D9C36
:10314000002C00D00DE72D34FF341C5DA64200D8C2
:1031500007E7A24200D304E72600029C282C00D0F7
:1031600003E70E9C002C00D0FFE66D34FF341C5D9D
:10317000B44200D3F9E6A24200D3F6E62600039C4F
:10318000282C00D0F5E60F9C002C00D0F1E6AD34E1
:10319000FF341C5DA64200D8EBE6A24200D3E8E66D
:1031A0002600049C282C00D0E7E6109C002C00D0C0
:1031B000E3E6ED34FF341C5DA64200D8DDE6A24212
:1031C00000D3DAE62600099C282C00D0D9E6119C11
:1031D000002C00D0D5E68B24A4001C5DB44200D3A3
:1031E000CFE6944200D8CCE62600282D00D0CBE6CE
:1031F000129C002C00D0C7E69B24A4001C5DA642B4
:1032000000D8C1E6944200D8BEE62600069C282CD1
:1032100000D0BDE6139C002C00D0B9E6AB24A4007E
:103220001C5DA64200D8B3E6A24200D3B0E6260059
:10323000079C282C00D0AFE6149C002C00D0ABE6F5
:10324000BB24A4001C5DA64200D8A5E6A24200D380
:10325000A2E62600A0E60B9C002C00D079E65C4696
:103260001C5DA64200D874E6944200D871E62600A0
:103270006FE60A9C002C00D068E654461E5DFF2EC7
:1032800000D163E6964200D960E6FF265EE6F906C5
:1032900000D5D4E50132D2B2D4E5C90600D5C5E5E2
:1032A0000132D2B2C2E5C90600D5B4E50132D2B2CC
:1032B000B1E5C90600D5A3E50132D2B2A0E5C90641
:1032C00000D592E50132D2B28FE5C90600D583E57B
:1032D0000132D2B280E51099C90600D572E50132FB
:1032E000D2B26FE50F99C90600D560E50132D2B2BE
:1032F0005DE50E99C90600D54EE50132D2B24BE527
:103300000D99C90600D53CE50132D2B239E50C99D8
:10331000C90600D52AE50132D2B227E52100C90647
:1033200000D519E50132D2B216E5099A1009012239
:10333000824308E5F0B5DE4657464E464546E0B5C1
:1033400087B000280CD0002304258F4A948825429A
:1033500002D01468A0420AD001332032182BF5D1D4
:1033600007B03CBC90469946A246AB46F0BD874AA2
:103370005B019046D218948903AEA3465D460C8843
:10338000D789641BA4B2B480D568019703954D8892
:10339000ED1BADB2F580AC460427CD5FA9460627EC
:1033A000CD5F49682F0055690591002D58D0784AA6
:1033B00051698D4200D185E0516D8D4200D187E089
:1033C000942151588D4200D188E0D42151588D422A
:1033D00000D18AE08A21490051588D4200D18BE00A
:1033E000AA21490051588D4200D18DE0CA214900DF
:1033F00051588D4200D18FE0EA21490051588D4249
:1034000000D191E08521890051588D4200D193E08F
:103410009521890051588D4200D195E0A521890060
:1034200051588D4200D197E0B521890051588D4205
:1034300000D199E0C521890051588D4200D19BE00F
:10344000D521890051588A460E2155450AD1D321EC
:1034500020258900515829404D4269410D3101E034
:103460000E214B4A4D46ADB2AA465D4689015544F0
:1034700065195418A346248C2C1B5D46AD8C641B27
:10348000A4B225B2A94500DC6AE7002D02DD55464D
:103490002C1B3481BCB23D00019F51184A8C3F194E
:1034A000C98C6744BA1A521A92B211B28D4200DC2A
:1034B00056E7002901DDA21A728142463100D35835
:1034C00098474DE7D168890600D475E70021C9E720
:1034D000D16C890600D473E70121C3E78C215158D0
:1034E000890600D471E70221BCE7CC215158890636
:1034F00000D46FE70321B5E78621490051588906BA
:1035000000D46DE70421ADE7A62149005158890692
:1035100000D46BE70521A5E7C6214900515889066B
:1035200000D469E706219DE7E62149005158890644
:1035300000D467E7072195E7832189005158890660
:1035400000D465E708218DE7932189005158890649
:1035500000D463E7092185E7A32189005158890632
:1035600000D461E70A217DE7B3218900515889061B
:1035700000D45FE70B2175E7C32189005158890604
:1035800000D45DE70C216DE7641100204C11002090
:10359000CC140020F0B55746DE464E464546E0B511
:1035A00007008BB000280CD000220420CE4B998855
:1035B000084202D01C68A7420AD001322033182AE0
:1035C000F5D10BB03CBC90469946A246AB46F0BD47
:1035D000C648520183185B69002BF2D0C44E74694F
:1035E000A34200D17AE1746DA34200D186E1942414
:1035F0003459A34200D187E1D4243459A34200D1E5
:1036000089E18A2464003459A34200D18AE1AA24C2
:1036100064003459A34200D121E3CA246400345920
:10362000A34200D123E3EA2464003459A34200D129
:1036300025E38524A4003459A34200D127E395242F
:10364000A4003459A34200D129E3A524A40034598D
:10365000A34200D12BE3B524A4003459A34200D1E6
:103660002DE3C524A4003459A34200D12FE3D5246F
:10367000A4003459A342A4D1D3239B00F558AB0630
:103680009FD50D240523194005299AD1EB0698D41E
:1036900006AB0C32801807A99A1DFDF7AFFE06ABEA
:1036A0009A88012A00D18CE70023A40134192C3414
:1036B00004930294059704998E484900415E0133B2
:1036C0008A468C495B00CB5A51465B1A1BB2039366
:1036D00006ABDB88012B00D15BE20023864A009316
:1036E0000025904628240CE0009B002B00D077E2B8
:1036F00006AAD2880135ADB2013A2B00954200D31B
:103700003EE241466A008A5E0133914642465B00D2
:10371000D35E22000193F36C1A40282A00D11DE1E8
:10372000002300279B468C232200F3581A40282AA6
:1037300000D1FFE0CC232200F3581A40282A00D100
:10374000FBE1862322005B00F3581A40282A00D1AF
:10375000DDE1A62322005B00F3581A40282A00D19D
:10376000BFE1C62322005B00F3581A40282A00D18B
:10377000A1E1E62322005B00F3581A40282A00D179
:1037800083E1832322009B00F3581A40282A00D1AA
:1037900065E1932322009B00F3581A40282A00D1A8
:1037A00047E1A32322009B00F3581A40282A00D1A6
:1037B00029E1B32322009B00F3581A40282A00D1A4
:1037C0000BE1C32322009B00F3581A40282A00D1A2
:1037D000EDE0D32322009B00F3581A40282A00D1A1
:1037E000D0E0BF01F7197A690E23002A55D073691A
:1037F0009A4200D1B8E1736D9A4200D1BAE19423A4
:10380000F3589A4200D1CDE1D423F3589A4200D123
:10381000CFE18A235B00F3589A4200D1D0E1AA237A
:103820005B00F3589A4200D1D2E1CA235B00F358FF
:103830009A4200D1DBE1EA235B00F3589A4200D1BF
:10384000DDE185239B00F3589A4200D1DFE1952307
:103850009B00F3589A4200D1E1E1A5239B00F35865
:103860009A4200D1E3E1B5239B00F3589A4200D17C
:10387000E5E1C5239B00F3589A4200D1E7E1D52347
:103880009B00F1580E238A4207D1D32320229B00AC
:10389000F35813405A4253410D339B01F318029AD7
:1038A0002C3312781B789A4200D01DE74A46019BC0
:1038B0009B1A08AA0021505E0427D15F4F4617804B
:1038C00057465780039F9BB2D780009F9380002F5D
:1038D00000D146E15B181080938009E7F568AC06DB
:1038E00000D480E60024CDE6641100204C110020B5
:1038F000CC14002024070020C8180020F56CAC066A
:1039000000D474E60124BDE68C243559AC0600D4FD
:1039100072E60224B6E6CC243559AC0600D470E633
:103920000324AFE6862464003559AC0600D46EE665
:103930000424A7E6DB0600D5FCE6300052469830AA
:1039400049460CF049F9002800D1F3E6AC23F35CBA
:103950005B4500D8EEE69B460227EBE6DB0600D58A
:10396000DEE630005246583049460CF035F9002862
:1039700000D1D5E66C23F35C1F009B467B1E9F4164
:10398000FFB2D0E6DB0600D52BE7D6239B00F0186C
:10399000524649460CF020F9002800D121E7DB23EC
:1039A0009B00F35C5B4500D81BE70D2719E7DB069E
:1039B00000D50EE7C6239B00F018524649460CF08E
:1039C0000BF9002800D104E7CB239B00F35C9B4557
:1039D00000D3FEE69B460C27FBE6DB0600D5F0E6AF
:1039E000B6239B00F018524649460CF0F5F8002823
:1039F00000D1E6E6BB239B00F35C9B4500D3E0E6E9
:103A00009B460B27DDE6DB0600D5D2E6A6239B000E
:103A1000F018524649460CF0DFF8002800D1C8E6FD
:103A2000AB239B00F35C5B4500D8C2E69B460A27AC
:103A3000BFE6DB0600D5B4E696239B00F01852469D
:103A400049460CF0C9F8002800D1AAE69B239B0048
:103A5000F35C5B4500D8A4E69B460927A1E6DB069C
:103A600000D596E686239B00F018524649460CF096
:103A7000B3F8002800D18CE68B239B00F35C5B45F8
:103A800000D886E69B46082783E6DB0600D578E665
:103A90003000D930FF30524649460CF09DF80028DE
:103AA00000D16EE6F6235B00F35C5B4500D868E668
:103AB0009B46072765E6DB0600D55AE630009930BD
:103AC000FF30524649460CF087F8002800D150E6F6
:103AD000D6235B00F35C5B4500D84AE69B4606278D
:103AE00047E6DB0600D53CE630005930FF30524651
:103AF00049460CF071F8002800D132E6B6235B008D
:103B0000F35C5B4500D82CE69B46052729E6DB06DF
:103B100000D51EE630001930FF30524649460CF001
:103B20005BF8002800D114E696235B00F35C5B454C
:103B300000D80EE69B4604270BE6DB0600D500E620
:103B400030005246D83049460CF046F8002800D1E3
:103B5000F7E5EC23F35C5B4500D8F2E59B460327D1
:103B6000EFE501230093C3E5F3689B0600D442E62A
:103B7000002392E6F36C9B0600D440E601238CE61A
:103B8000009B002B03D008A90598FFF7D3FB06ABD9
:103B90009A88049B511E01339BB204938B4200D23E
:103BA00089E50EE58C23F3589B0600D42CE602230E
:103BB00073E6CC23F3589B0600D42AE603236CE675
:103BC00086235B00F3589B0600D428E6042364E6B2
:103BD000A6235B00F3589B0600D426E605235CE68B
:103BE00008A90598FFF7A6FB0023009380E5C623EC
:103BF0005B00F3589B0600D41DE606234DE6E62342
:103C00005B00F3589B0600D41BE6072345E683239D
:103C10009B00F3589B0600D419E608233DE6932346
:103C20009B00F3589B0600D417E6092335E6A3232F
:103C30009B00F3589B0600D415E60A232DE6B32318
:103C40009B00F3589B0600D413E60B2325E6C32301
:103C50009B00F3589B0600D411E60C231DE6A62416
:103C600064003559AC0600D4D7E405240AE5C6241F
:103C700064003559AC0600D4D5E4062402E5E624F8
:103C800064003559AC0600D4D3E40724FAE4832455
:103C9000A4003559AC0600D4D1E40824F2E49324FE
:103CA000A4003559AC0600D4CFE40924EAE4A324E7
:103CB000A4003559AC0600D4CDE40A24E2E4B324D0
:103CC000A4003559AC0600D4CBE40B24DAE4C324B9
:103CD000A4003559AC0600D4C9E40C24D2E4C04693
:103CE000F0B5D6464F464646C0B582B000284CD007
:103CF000CA4C636998424ED0626D904200D1F5E0A3
:103D00009422A258904200D142E1D422A25890427B
:103D100000D144E18A225200A258904200D145E1EC
:103D2000AA225200A258904200D147E1CA22520072
:103D3000A258904200D149E1EA225200A258904292
:103D400000D14BE185229200A258904200D14DE172
:103D500095229200A258904200D14FE1A5229200F4
:103D6000A258904200D151E1B5229200A25890424F
:103D700000D15DE1C5229200A258904200D15FE1DE
:103D8000D5229200A25890420ED002B01CBC9046A0
:103D90009946A246F0BDE2689206ADD50026E368DA
:103DA0009B0609D50023AEE0D3229200A2580D262F
:103DB0009206EAD59842F2D0636D984200D19DE018
:103DC0009423E358984200D142E1D423E358984227
:103DD00000D144E18A235B00E358984200D145E1D9
:103DE000AA235B00E358984200D147E1CA235B0055
:103DF000E358984200D149E1EA235B00E358984236
:103E000000D14BE185239B00E358984200D14DE15E
:103E100095239B00E358984200D14FE1A5239B00D6
:103E2000E358984200D151E1B5239B00E3589842F2
:103E300000D153E1C5239B00E358984200D155E1DE
:103E4000D5239B00E358984200D157E118239846A8
:103E500000239946FCF762FF03274B46C5173D40F8
:103E60002D18AD105D43FCF75BFF4346C01A03B24B
:103E7000984601200DF02AF800200CF0FBFFB60157
:103E80006748A4190CF0FCFF66480DF005F81A21EC
:103E9000625E1820215E6448ADB2814640462BB276
:103EA000009048460DF0A6FBA38B268BF6181A222D
:103EB000A35E36B29A46FCF731FF4246C3171F4055
:103EC0003F18BF10ED192BB2009231005246484600
:103ED0000DF090FB1823E15E1A23E25EA38B4846A7
:103EE0005B181BB200920DF085FB4EE7E26C920668
:103EF00000D405E70126984200D150E7E36C9B0609
:103F000000D45DE70123494A5178994200D103E189
:103F10009178994200D1FDE0D178994200D1FFE03B
:103F20001179994200D1F9E05179994200D101E12A
:103F30009179994200D1FBE0D179994200D1F5E025
:103F4000117A994200D1EFE0517A994200D1E9E02B
:103F5000917A994200D1EFE0D17A994200D1EFE015
:103F6000117B994200D1E9E0182188460021527B5B
:103F700089469A4200D06DE70D2303251822013BA4
:103F8000DBB21D409B0801335343A946984661E7C5
:103F90008C22A258920600D4B7E602260AE7CC2269
:103FA000A258920600D4B5E6032603E78622520003
:103FB000A258920600D4B3E60426FBE6A6225200DD
:103FC000A258920600D4B1E60526F3E6C6225200B6
:103FD000A258920600D4AFE60626EBE6E62252008F
:103FE000A258920600D4ADE60726E3E683229200AB
:103FF000A258920600D4ABE60826DBE69322920094
:10400000A258920600D4A9E60926D3E6A32292007C
:10401000A258920600D4A7E60A26CBE6CC140020CC
:10402000FFFFFF00F0FF0000D80600203C11002039
:10403000B3229200A258920600D49BE60B26B9E662
:10404000C3229200A258920600D499E60C26B1E64B
:104050008C23E3589B0600D4B7E6022353E7CC2316
:10406000E3589B0600D4B5E603234CE786235B00A8
:10407000E3589B0600D4B3E6042344E7A6235B0081
:10408000E3589B0600D4B1E605233CE7C6235B005A
:10409000E3589B0600D4AFE6062334E7E6235B0033
:1040A000E3589B0600D4ADE607232CE783239B004F
:1040B000E3589B0600D4ABE6082324E793239B0038
:1040C000E3589B0600D4A9E609231CE7A3239B0021
:1040D000E3589B0600D4A7E60A2314E7B3239B000A
:1040E000E3589B0600D4A5E60B230CE7C3239B00F3
:1040F000E3589B0600D4A3E60C2304E71822D3233D
:10410000904600229B00E35891469B0600D4A1E60E
:104110000D23F8E6022330E701232EE704232CE7E2
:1041200003232AE7092328E7082326E7072324E7B0
:10413000062322E7052320E70A231EE70C231CE7BA
:104140000B231AE7F0B55746DE464E464546E0B526
:1041500007008DB000280CD0002204246F4B9888F3
:10416000044202D01D68AF420AD001322033182A1F
:10417000F5D10DB03CBC90469946A246AB46F0BD89
:10418000674D5201AB185B690E24002B50D0654E71
:104190007469A34200D163E3746DA34200D165E367
:1041A00094243459A34200D166E3D4243459A34261
:1041B00000D168E38A2464003459A34200D169E342
:1041C000AA2464003459A34200D16BE3CA246400DA
:1041D0003459A34200D16DE3EA2464003459A34268
:1041E00000D16FE38524A4003459A34200D171E3C8
:1041F0009524A4003459A34200D173E3A524A4005C
:104200003459A34200D175E3B524A4003459A34224
:1042100000D177E3C524A4003459A34200D179E347
:10422000D524A4003459A4460E24634500D177E177
:104230000523184005289CD13A4EA4013319DB68A8
:10424000DB0696D4A94691444B460C229A5E0AA8F6
:1042500093B29A460B8853449BB202931BB20193CC
:1042600003804B4610255B5F9C46019B6244934252
:1042700000DD7EE74B460E255B5F03939BB2049304
:104280004D889B46A846D84443469BB205931BB233
:10429000984643804B4612255B5F9946039B4B44EF
:1042A0000393984500DD64E704254B5F9B46019B23
:1042B0005B449A4200DA3BE35B4683800623CA5E96
:1042C00043460399D318994200DA2BE3C28006AB28
:1042D0009A1D07A9FDF792F806AB9A88012A00D12A
:1042E00047E7002334192C3404930294059704996A
:1042F0000D484900415E01338A460B495B00CB5AA9
:1043000051465B1A1BB2039306ABDB88012B00D12D
:1043100040E2002300259846282414E06411002080
:104320004C110020CC140020240700204346002B11
:1043300000D04EE206AAD2880135ADB2013A2B0078
:10434000954200D31DE2D2496A008A5E013391464C
:10435000CF4A5B00D35E22000193F36C1A40282AF7
:1043600000D1EBE1002300279B468C232200F35869
:104370001A40282A00D1CDE1CC232200F3581A405C
:10438000282A00D1B2E1862322005B00F3581A40AC
:10439000282A00D194E1A62322005B00F3581A409A
:1043A000282A00D176E1C62322005B00F3581A4088
:1043B000282A00D156E1E62322005B00F3581A4078
:1043C000282A00D138E1832322009B00F3581A40A9
:1043D000282A00D11AE1932322009B00F3581A40A7
:1043E000282A00D1FCE0A32322009B00F3581A40A6
:1043F000282A00D1DEE0B32322009B00F3581A40A4
:10440000282A00D1C0E0C32322009B00F3581A40A1
:10441000282A00D1A2E0D32322009B00F3581A409F
:10442000282A00D185E0BF01F7197A690E23002AF6
:1044300055D073699A4200D197E1736D9A4200D1C9
:1044400099E19423F3589A4200D1ACE1D423F35874
:104450009A4200D1AEE18A235B00F3589A4200D120
:10446000AFE1AA235B00F3589A4200D1B8E1CA2316
:104470005B00F3589A4200D1BAE1EA235B00F3589B
:104480009A4200D1BCE185239B00F3589A4200D1A7
:10449000BEE195239B00F3589A4200D1C0E1A523C9
:1044A0009B00F3589A4200D1C2E1B5239B00F35818
:1044B0009A4200D1C4E1C5239B00F3589A4200D12F
:1044C000C6E1D5239B00F1580E238A4207D1D3239E
:1044D00020229B00F35813405A4253410D339B0155
:1044E000F318029A2C3312781B789A4200D01DE7F9
:1044F0004A46019B9B1A08AA0021505E0427D15FFF
:104500004F46178057465780039F9BB2D780474638
:104510009380002F00D125E15B181080938009E77C
:10452000D3239B00F45820231C4063425C410D348C
:104530007EE6DB0600D576E7D6239B00F0185246D0
:1045400049460BF049FB002800D16CE7DB239B00B8
:10455000F35C5B4500D866E70D2764E7DB0600D512
:1045600059E7C6239B00F018524649460BF034FB2E
:10457000002800D14FE7CB239B00F35C9B4500D381
:1045800049E79B460C2746E7DB0600D53BE7B62309
:104590009B00F018524649460BF01EFB002800D144
:1045A00031E7BB239B00F35C5B4500D82BE79B46C0
:1045B0000B2728E7DB0600D51DE7A6239B00F01894
:1045C000524649460BF008FB002800D113E7AB2305
:1045D0009B00F35C5B4500D80DE79B460A270AE782
:1045E000DB0600D5FFE696239B00F01852464946AD
:1045F0000BF0F2FA002800D1F5E69B239B00F35C58
:104600005B4500D8EFE69B460927ECE6DB0600D5C4
:10461000E1E686239B00F018524649460BF0DCFA8F
:10462000002800D1D7E68B239B00F35C5B4500D8C4
:10463000D1E69B460827CEE6DB0600D5C3E6300070
:10464000D930FF30524649460BF0C6FA002800D157
:10465000B9E6F6235B00F35C5B4500D8B3E69B4606
:104660000727B0E6DB0600D5A5E630009930FF301D
:10467000524649460BF0B0FA002800D19BE6D623FB
:104680005B00F35C5B4500D895E69B46062792E607
:10469000C8180020DB0600D585E630005930FF3011
:1046A000524649460BF098FA002800D17BE6B62323
:1046B0005B00F35C5B4500D875E69B46052772E618
:1046C000DB0600D567E630001930FF305246494618
:1046D0000BF082FA002800D15DE696235B00F35CC4
:1046E0005B4500D857E69B46042754E6DB0600D519
:1046F00049E630005246D83049460BF06DFA0028A2
:1047000000D140E6EC23F35C5B4500D83BE69B46DA
:10471000032738E6DB0600D52EE6300052469830F7
:1047200049460BF059FA002800D125E6AC23F35C8A
:104730005B4500D820E69B4602271DE6DB0600D538
:1047400010E630005246583049460BF045FA002832
:1047500000D107E66C23F35C1F009B467B1E9F4144
:10476000FFB202E601239846E4E5F3689B0600D415
:1047700063E60023B3E6F36C9B0600D461E60123F5
:10478000ADE64346002B03D008A90598FEF7D2FDFD
:1047900006AB9A88049B511E01339BB204938B4253
:1047A00000D2A4E5E5E48C23F3589B0600D44DE643
:1047B000022394E6CC23F3589B0600D44BE6032354
:1047C0008DE686235B00F3589B0600D449E604235C
:1047D00085E608A90598FEF7ADFD00239846A9E5F2
:1047E000A6235B00F3589B0600D440E6052376E63B
:1047F000C6235B00F3589B0600D43EE606236EE614
:10480000E6235B00F3589B0600D43CE6072366E6EC
:1048100083239B00F3589B0600D43AE608235EE608
:1048200093239B00F3589B0600D438E6092356E6F1
:10483000A3239B00F3589B0600D436E60A234EE6DA
:10484000B3239B00F3589B0600D434E60B2346E6C3
:10485000C3239B00F3589B0600D432E60C233EE6AC
:10486000F468A40600D497E40024E1E4F46CA40600
:1048700000D495E40124DBE48C243459A40600D44C
:1048800093E40224D4E4CC243459A40600D491E463
:104890000324CDE4862464003459A40600D48FE4B4
:1048A0000424C5E4A62464003459A40600D48DE48D
:1048B0000524BDE4C62464003459A40600D48BE466
:1048C0000624B5E4E62464003459A40600D489E43F
:1048D0000724ADE48324A4003459A40600D487E45B
:1048E0000824A5E49324A4003459A40600D485E444
:1048F00009249DE4A324A4003459A40600D483E42D
:104900000A2495E4B324A4003459A40600D481E415
:104910000B248DE4C324A4003459A40600D47FE4FE
:104920000C2485E4049B059A4B449B1AC380CEE477
:104930005246029B6244D31A8380BFE4F0B54E46D0
:10494000DE4657464546E0B591B0061E0291BA4C88
:104950004DD06369984200D1BFE0636D9E4200D1A3
:10496000F1E29423E3589E4200D1F2E2D423E358CB
:104970009E4200D1F4E28A235B00E3589E4200D1BC
:10498000F5E2AA235B00E3589E4200D1F7E2CA2376
:104990005B00E3589E4200D1F9E2EA235B00E35852
:1049A0009E4200D110E385239B00E3589E4200D134
:1049B00012E395239B00E3589E4200D114E3A52304
:1049C0009B00E3589E4200D116E3B5239B00E358B9
:1049D0009E4200D118E3C5239B00E3589E4200D1BC
:1049E0001AE3D5239B00E3589E4200D199E2E323CA
:1049F0000E219B00E3588F01E019058B1188039766
:104A0000491B0AAD2982390018316158408B0D913C
:104A100051885268091A69820F929A0502D5029A42
:104A2000520760D4DA0704D5062202990A4200D060
:104A300055E19A0703D5029AD20700D57DE180227D
:104A40001A40DB050CD4002A03D0029B1B0700D5BB
:104A500062E211B03CBC90469946A246AB46F0BD1E
:104A6000102302990B40002A30D0002B00D060E2C6
:104A7000029B1B0700D561E2039B80259C46644492
:104A8000E3682D021D406B425D410B2301206D4206
:104A90009D430CF015FA69480CF0F8F900200CF071
:104AA00009FA0CF0FFF9E38C628C218CD218638B2D
:104AB0001835D21AA38C12B2C918238B0DA8C91AA3
:104AC00009B200952B000CF0A7FDC2E7002BC0D067
:104AD00031000DA8FDF74EF9BBE7E368990600D455
:104AE0003BE7002187E7002E52D063699E4201D147
:104AF00000F065FC636D9E4201D100F07AFC9423C6
:104B0000E3589E4201D100F007FDD423E3589E42B2
:104B100001D100F00AFD8A235B00E3589E4201D1D7
:104B200000F024FDAA235B00E3589E4200D1DBE2A3
:104B3000CA235B00E3589E4200D1EDE2EA235B000A
:104B4000E3589E4200D1EFE285239B00E3589E424A
:104B500000D111E395239B00E3589E4200D11BE353
:104B6000A5239B00E3589E4200D135E3B5239B006B
:104B7000E3589E4200D137E3C5239B00E3589E4291
:104B800000D159E3D5239B00E3589E4200D164E352
:104B9000E3230E229B00E3589201A518934624229A
:104BA000AF5E1B0400D476E205200CF095F9EB68AB
:104BB0001B0600D57EE214230493079301200CF01A
:104BC0007FF91F480CF062F900200CF073F90CF02B
:104BD00069F95B46E5186B8B6A8C298CD21A049BA9
:104BE0000DA8D21A2B8B12B2C91A079B09B20093D7
:104BF0003B000CF011FD00200CF068F900200CF0D7
:104C000071F910480CF048F92A000127EB682F329F
:104C100012781F40B846002A00D130E30022AA468D
:104C200091462232524405921A2252444D4606922F
:104C30000996A146574637E0CC140020CCCCCC00D6
:104C4000E6E6E600FFFF0000D5480CF013F9D54872
:104C50000DF094FE5A464B469B58059A06991288C9
:104C600009880332521A04994044521A524401B23C
:104C70001B5912B20DA80DF059FD5A464B469B58D0
:104C8000013518590DF07AFE0400C7480DF076FE84
:104C90002418361933B298463B002F331B78EDB2F7
:104CA000AB4200D8E9E2FB684246AC0096B21B0575
:104CB00005D53B0030331B78AB4200D1EEE2002338
:104CC000B0469A46388D29000AF0EEFF0028BBD086
:104CD000FB685B05B8D500200CF0CCF8B7E70020E6
:104CE0000CF0C8F8B1480CF0D7F8039BE518EB6856
:104CF0009B0700D4B4E1EB8B2A216A5E013B0021C3
:104D00001BB20DA80CF048FAEB8B2A216A5EA98B26
:104D1000013B01391BB209B20DA80CF03DFA039B0F
:104D20000021E518EB8BAA8B013B013A1BB212B2B2
:104D30000DA80CF093F9EB687BE6002E4FD0636969
:104D40009E4200D143E3636D9E4200D1D0E39423A1
:104D5000E3589E4200D1D1E3D423E3589E4201D1CF
:104D600000F0F3FB8A235B00E3589E4201D100F080
:104D7000F4FBAA235B00E3589E4200D1ACE1CA23B6
:104D80005B00E3589E4200D1BEE1EA235B00E3589A
:104D90009E4200D1D0E185239B00E3589E4200D182
:104DA000E2E195239B00E3589E4200D1FCE1A5235C
:104DB0009B00E3589E4200D106E2B5239B00E358D6
:104DC0009E4200D118E2C5239B00E3589E4200D1C9
:104DD0002AE2D5239B00E3589E4200D145E2E3231B
:104DE0000E279B00E258724B0E2598461B68002B3D
:104DF0004ED061698B4200D1EFE2616D8B4200D1F0
:104E0000F1E2942161588B4200D17EE3D4216158B4
:104E10008B4200D192E38A21490061588B4200D134
:104E2000AEE3AA21490061588B4200D14CE1CA216E
:104E300049006158994200D15EE1EA214900615878
:104E4000994200D180E18521890061588B4200D1CF
:104E500082E19521890061588B4200D194E1A5211E
:104E6000890061588B4200D1A6E1B52189006158C3
:104E70008B4200D1C8E1C521890061588B4200D125
:104E8000CAE1D521890061580E258B4200D1DBE1B2
:104E9000110400D4CFE019210B9143310A91454907
:104EA00009912E21089117398B46434907914349AF
:104EB00005914349069143490491142189469E4234
:104EC00000D1B1E036480BF0E1FF00200BF0F2FF1B
:104ED00001200BF0F5FF0BF0E5FFBB01E7189A4648
:104EE0001C22BB5E2A217A5E0DA8009200210022BE
:104EF0000CF092FB43461B689E4205D1AD0165193B
:104F0000EB685B0600D47CE20DA93000FCF7D0FC16
:104F1000039BE318DB6892E531000DA8FDF7B2F8BA
:104F200097E5D3239B00E358990600D45FE50D2154
:104F300061E531000DA8FCF71DFF99E531000DA8D2
:104F4000FDF7A0F898E5E36C990600D409E5012186
:104F500051E58C23E358990600D407E502214AE580
:104F6000CC23E358990600D405E5032143E58623C5
:104F70005B00E358990600D403E504213BE5A62332
:104F80005B00E358990600D401E5052133E5C6230B
:104F90005B00E358990600D4FFE406212BE5C046E8
:104FA000BFBFBF00006D0110FC6C0110FFFF0000CF
:104FB00008190020BBFF0000E86D0110406E0110D1
:104FC000906D0110386D0110E6235B00E3589906DF
:104FD00000D4E8E407210EE583239B00E3589906FB
:104FE00000D4E6E4082106E593239B00E3589906E4
:104FF00000D4E4E40921FEE4A3239B00E3589906CE
:1050000000D4E2E40A21F6E4B3239B00E3589906B6
:1050100000D4E0E40B21EEE4C3239B00E35899069F
:1050200000D4DEE40C21E6E4FF2053063FD5000463
:105030000BF02CFF49E712210B912E310A91924976
:1050400009912021089110398B4690490791904988
:10505000059190490691904904910E2189462EE7C9
:10506000AA8B0DA8013A12B2002300210BF0F6FF23
:10507000EB8B0DA8013B1BB2002200210CF08CF839
:10508000EB8BA98B013B01391BB209B200220DA8A1
:105090000CF082F843E600200BF01EFFEB681B06C5
:1050A0000ED50E230C373FB20493079386E50BF021
:1050B000EDFE0AE7142318373FB2049307937DE50A
:1050C0000E230493079379E5A621490061588906C8
:1050D00000D4ACE60525DBE6A6235B00E258930688
:1050E00000D44CE605277EE6A6235B00E3589A062B
:1050F00000D41DE505224FE5C62149006158890607
:1051000000D49AE60625C3E6C6235B00E258930660
:1051100000D43AE6062766E6C6235B00E3589A0603
:1051200000D40BE5062237E5E6235B00E3589A0638
:1051300000D409E507222FE5E6235B00E258930639
:1051400000D428E607274EE6E62149006158890683
:1051500000D478E607259BE68321890061588906FB
:1051600000D476E6082593E683239B00E258930655
:1051700000D416E6082736E683239B00E3589A06F8
:1051800000D4E7E4082207E59321890061588906E5
:1051900000D464E609257BE693239B00E3589A0636
:1051A00000D4DDE40922F7E493239B00E258930640
:1051B00000D4FCE5092716E6A32189006158890679
:1051C00000D452E60A2563E6A3239B00E258930627
:1051D00000D4F2E50A2706E6A3239B00E3589A06CB
:1051E00000D4C3E40A22D7E4B3239B00E3589A0611
:1051F00000D4C1E40B22CFE4B3239B00E258930612
:1052000000D4E0E50B27EEE5B3218900615889065B
:1052100000D430E60B253BE6C3218900615889069E
:1052200000D42EE60C2533E6C3239B00E2589306F8
:1052300000D4CEE50C27D6E5C3239B00E3589A069D
:1052400000D49FE40C22A7E4D321890065582021D3
:105250000D4069424D410D351AE6D3239B00E358BA
:105260009A0600D494E40D2296E4D3239B00E258DE
:10527000930600D4B3E50D27B5E54C46099E039B84
:10528000E318DB68FFF7CEFBD0FF0000CC6D011008
:10529000246E0110746D01101C6D0110BC480BF0E0
:1052A000F5FD059B069A1B88128804989B1A1B1A09
:1052B00019B248465B46C058089100590DF05EFB94
:1052C0008246B4480DF05AFB504403B20798414659
:1052D000089A00900DA80CF09FF900200BF0CAFD71
:1052E000059B06991A880B880498D21A92B2531E0D
:1052F000121A41461BB212B20DA80BF04DFF5846D0
:105300004A46125810590DF039FB731E9AB2824664
:10531000A04808920DF032FB059B06991B8809886E
:10532000049A50445B1A9B1A02000898414684462E
:1053300062441BB212B20DA80BF090FE96480BF01F
:1053400099FD5A464846805800590DF017FB824691
:1053500090480DF013FB059B06991A880B88049959
:10536000D21A92B2531E521A089950448C46604485
:1053700001B21BB212B20DA80BF00EFF5A464846FE
:10538000805800590DF0FAFA824682480DF0F6FA7C
:10539000059B06991B880988013B5B1A0899020046
:1053A0008C46524462441BB2414612B20DA80BF027
:1053B00055FE731C9BB2984601239A4682E4E3682B
:1053C0009A0601D4FFF796FB0022FFF7E5FBE2689F
:1053D000930600D4B7E4002705E5E168890600D408
:1053E0000BE5002554E5E16C890600D409E50125AB
:1053F0004EE5E36C9A0601D4FFF781FB0122FFF72B
:10540000CBFB00200BF036FD0420FB688025184004
:1054100043425841614B404218405F4B6D029C46ED
:1054200060440BF02DFD01200BF050FD5B46B98B65
:105430000222C91A049B09B201934B460DA800939E
:105440000EF044FBF868284043425841544B404218
:1054500098461840534B9C4660440BF00BFD0020CF
:105460000BF034FD059B022201934B460221009371
:105470000DA80EF02BFB00200BF0FCFC01200BF024
:1054800025FDFB681D406842684143464042184084
:10549000444B9C4660440BF0F3FCB98B089B022202
:1054A000C91A069B09B201934B460DA800930EF052
:1054B0000DFB39480BF0E4FC099BB98B9C46079B1C
:1054C000614401934B460DA8009309B202220EF0ED
:1054D000FDFA50461C23FD5E0A9B3130ED1A0B9BF2
:1054E0002018ED1A0DF04AFA854200DC10E50BE5B4
:1054F000E26C930600D42AE4012774E48C23E2587A
:10550000930600D428E402276DE48C2161588906B3
:1055100000D47BE40225BBE48C23E3589A0601D433
:10552000FFF7F3FA0222FFF737FBCC23E3589A0682
:1055300001D4FFF7F0FA0322FFF72EFBCC216158CC
:10554000890600D467E40325A2E4CC23E25893063D
:1055500001D4FFF707FC032745E486235B00E258EC
:10556000930601D4FFF705FC04273CE486235B0087
:10557000E3589A0601D4FFF7D5FA0422FFF70CFB93
:10558000862149006158890600D44AE404257FE455
:10559000CCCCCC00FC6C0110FFFFFF00C0BFBFFFF4
:1055A00040404000BFBFBF00F0B557464E46DE4604
:1055B0004546E0B58A468BB0061E4BD05D4C63690C
:1055C00098424ED0636D9E4259D09423E3589E4238
:1055D00000D1C2E1D423E3589E4200D1C5E18A2321
:1055E0005B00E3589E4200D1C7E1AA235B00E35869
:1055F0009E4200D1CAE1CA235B00E3589E4200D11B
:10560000CDE1EA235B00E3589E4200D1D0E185233F
:105610009B00E3589E4200D1D3E195239B00E358C1
:105620009E4200D1D6E1A5239B00E3589E4200D1C3
:10563000D9E1B5239B00E3589E4200D1DCE1C523AC
:105640009B00E3589E4200D1DFE1D5239B00E35845
:105650009E420CD00BB03CBC90469946A246AB464D
:10566000F0BDE3689A06ADD5002100250CE0D323F8
:105670009B00E3589A06EDD50D210D2504E0E36C5F
:105680009A06A2D50121012528221A40282AE1D113
:10569000DB06DFD40029DDD0AD012B00183399469D
:1056A000FBF73CFB0700FBF73BFB631919001831C4
:1056B000009118215A5EA1448346002A10DB1A206B
:1056C000195E8C4600290BDB1C20195E884642447B
:1056D000BA4205DC1E229B5E63445B4500DC26E388
:1056E00004AB9A1D05A94846FBF788FE04AB9A88CF
:1056F000012AAFD00023514665192C35019300953E
:105700000296039101990C484900415E0133894694
:10571000484604A9488108495B00CB5A04A91B1AD2
:10572000CB81CB88012B00D1A2E2002300269A4630
:105730002825EBE0CC1400202407002000230027BC
:105740009B468C232A00E3581A40282A00D154E2B1
:10575000CC232A00E3581A40282A00D139E28623B4
:105760002A005B00E3581A40282A00D11BE2A62336
:105770002A005B00E3581A40282A00D1FDE1C62325
:105780002A005B00E3581A40282A00D1DFE1E62313
:105790002A005B00E3581A40282A00D1C1E1832384
:1057A0002A009B00E3581A40282A00D1A3E1932342
:1057B0002A009B00E3581A40282A00D185E1A32340
:1057C0002A009B00E3581A40282A00D167E1B3233E
:1057D0002A009B00E3581A40282A00D149E1C3233C
:1057E0002A009B00E3581A40282A00D12BE1D3233A
:1057F0002A009B00E3581A40282A00D10EE1BF017D
:10580000E7197A690E23002A55D063699A4200D1BC
:1058100016E2636D9A4200D118E29423E3589A424B
:1058200000D12EE2D423E3589A4200D130E28A23F9
:105830005B00E3589A4200D131E2AA235B00E358AF
:105840009A4200D133E2CA235B00E3589A4200D166
:1058500035E2EA235B00E3589A4200D137E2852320
:105860009B00E3589A4200D139E295239B00E3580C
:105870009A4200D13BE2A5239B00E3589A4200D113
:105880003DE2B5239B00E3589A4200D13FE2C52395
:105890009B00E3589A4200D141E2D5239B00E15896
:1058A0000E238A4207D1D32320229B00E3581340C2
:1058B0005A4253410D339B01E318009A2C3312785E
:1058C0001B789A4200D2AFE108AF0022BB5E06A966
:1058D00099460422BB5E38000822984610F0A2FFC9
:1058E0005346002B00D19CE14B463B80BB88434490
:1058F000BB8004AAD2880136B6B2013A3300964280
:1059000000D3ABE104AA0A21525E9146D24972004B
:105910008A5E01339046414604AA1181CE4A5B005B
:10592000D35A04AA5B1A93812A00E36C1A40282AEE
:1059300000D003E7DB0600D500E720004A465830D8
:105940000AF04AF9002800D1F8E66C23E35C1F0056
:105950009B467B1E9F41FFB2F3E68C23E3589A06D9
:1059600000D437E6022102258EE6CC23E3589A06BE
:1059700000D434E60321032586E686235B00E35842
:105980009A0600D431E6042104257DE6A6235B00B7
:10599000E3589A0600D42EE60521052574E6C623B1
:1059A0005B00E3589A0600D42BE6062106256BE639
:1059B000E6235B00E3589A0600D428E60721072572
:1059C00062E683239B00E3589A0600D425E608216B
:1059D000082559E693239B00E3589A0600D422E653
:1059E0000921092550E6A3239B00E3589A0600D419
:1059F0001FE60A210A2547E6B3239B00E3589A06CF
:105A000000D41CE60B210B253EE6C3239B00E35884
:105A10009A0600D419E60C210C2535E6DB0600D5E4
:105A2000EDE6D6239B00E0184A4641460AF0D4F83A
:105A3000002800D1E3E6DB239B00E35C5B4500D854
:105A4000DDE60D27DBE6DB0600D5D0E6C6239B00AE
:105A5000E0184A4641460AF0BFF8002800D1C6E6E1
:105A6000CB239B00E35C9B4500D3C0E69B460C2701
:105A7000BDE6DB0600D5B2E6B6239B00E0184A4639
:105A800041460AF0A9F8002800D1A8E6BB239B00F4
:105A9000E35C9B4500D3A2E69B460B279FE6DB0613
:105AA00000D594E6A6239B00E0184A4641460AF03A
:105AB00093F8002800D18AE6AB239B00E35C9B456A
:105AC00000D384E69B460A2781E6DB0600D576E60E
:105AD00096239B00E0184A4641460AF07DF80028CC
